{
	"contracts/Tok2tok.sol": {
		"Tok2tok": {
			"abi": [
				{
					"inputs": [],
					"stateMutability": "nonpayable",
					"type": "constructor"
				},
				{
					"anonymous": false,
					"inputs": [
						{
							"indexed": true,
							"internalType": "address",
							"name": "user",
							"type": "address"
						},
						{
							"indexed": false,
							"internalType": "uint256",
							"name": "amount",
							"type": "uint256"
						}
					],
					"name": "BillUser",
					"type": "event"
				},
				{
					"anonymous": false,
					"inputs": [
						{
							"indexed": true,
							"internalType": "address",
							"name": "user",
							"type": "address"
						},
						{
							"indexed": false,
							"internalType": "uint256",
							"name": "amount",
							"type": "uint256"
						}
					],
					"name": "UserDeposit",
					"type": "event"
				},
				{
					"anonymous": false,
					"inputs": [
						{
							"indexed": true,
							"internalType": "address",
							"name": "user",
							"type": "address"
						},
						{
							"indexed": false,
							"internalType": "uint256",
							"name": "amount",
							"type": "uint256"
						}
					],
					"name": "UserWithdraw",
					"type": "event"
				},
				{
					"inputs": [],
					"name": "admin_balance",
					"outputs": [
						{
							"internalType": "uint256",
							"name": "",
							"type": "uint256"
						}
					],
					"stateMutability": "view",
					"type": "function"
				},
				{
					"inputs": [
						{
							"internalType": "address payable",
							"name": "to",
							"type": "address"
						},
						{
							"internalType": "uint256",
							"name": "amount",
							"type": "uint256"
						}
					],
					"name": "admin_withdraw",
					"outputs": [],
					"stateMutability": "nonpayable",
					"type": "function"
				},
				{
					"inputs": [
						{
							"internalType": "uint256",
							"name": "amount",
							"type": "uint256"
						}
					],
					"name": "bill_user",
					"outputs": [],
					"stateMutability": "nonpayable",
					"type": "function"
				},
				{
					"inputs": [],
					"name": "contract_balance",
					"outputs": [
						{
							"internalType": "uint256",
							"name": "",
							"type": "uint256"
						}
					],
					"stateMutability": "view",
					"type": "function"
				},
				{
					"inputs": [],
					"name": "contract_owner",
					"outputs": [
						{
							"internalType": "address",
							"name": "",
							"type": "address"
						}
					],
					"stateMutability": "view",
					"type": "function"
				},
				{
					"inputs": [],
					"name": "total_admin_withdraw",
					"outputs": [
						{
							"internalType": "uint256",
							"name": "",
							"type": "uint256"
						}
					],
					"stateMutability": "view",
					"type": "function"
				},
				{
					"inputs": [],
					"name": "total_bill",
					"outputs": [
						{
							"internalType": "uint256",
							"name": "",
							"type": "uint256"
						}
					],
					"stateMutability": "view",
					"type": "function"
				},
				{
					"inputs": [],
					"name": "total_deposit",
					"outputs": [
						{
							"internalType": "uint256",
							"name": "",
							"type": "uint256"
						}
					],
					"stateMutability": "view",
					"type": "function"
				},
				{
					"inputs": [],
					"name": "total_withdraw",
					"outputs": [
						{
							"internalType": "uint256",
							"name": "",
							"type": "uint256"
						}
					],
					"stateMutability": "view",
					"type": "function"
				},
				{
					"inputs": [],
					"name": "user_balance",
					"outputs": [
						{
							"internalType": "uint256",
							"name": "",
							"type": "uint256"
						}
					],
					"stateMutability": "view",
					"type": "function"
				},
				{
					"inputs": [],
					"name": "user_deposit",
					"outputs": [],
					"stateMutability": "payable",
					"type": "function"
				},
				{
					"inputs": [
						{
							"internalType": "uint256",
							"name": "amount",
							"type": "uint256"
						}
					],
					"name": "user_withdraw",
					"outputs": [],
					"stateMutability": "nonpayable",
					"type": "function"
				},
				{
					"inputs": [],
					"name": "withdraw_all",
					"outputs": [],
					"stateMutability": "nonpayable",
					"type": "function"
				}
			],
			"devdoc": {
				"kind": "dev",
				"methods": {},
				"version": 1
			},
			"evm": {
				"assembly": "    /* \"contracts/Tok2tok.sol\":70:2253  contract Tok2tok {... */\n  mstore(0x40, 0x80)\n    /* \"contracts/Tok2tok.sol\":303:362  constructor () {... */\n  callvalue\n  dup1\n  iszero\n  tag_1\n  jumpi\n  0x00\n  dup1\n  revert\ntag_1:\n  pop\n    /* \"contracts/Tok2tok.sol\":344:354  msg.sender */\n  caller\n    /* \"contracts/Tok2tok.sol\":328:333  owner */\n  0x05\n  0x00\n    /* \"contracts/Tok2tok.sol\":328:355  owner = payable(msg.sender) */\n  0x0100\n  exp\n  dup2\n  sload\n  dup2\n  0xffffffffffffffffffffffffffffffffffffffff\n  mul\n  not\n  and\n  swap1\n  dup4\n  0xffffffffffffffffffffffffffffffffffffffff\n  and\n  mul\n  or\n  swap1\n  sstore\n  pop\n    /* \"contracts/Tok2tok.sol\":70:2253  contract Tok2tok {... */\n  dataSize(sub_0)\n  dup1\n  dataOffset(sub_0)\n  0x00\n  codecopy\n  0x00\n  return\nstop\n\nsub_0: assembly {\n        /* \"contracts/Tok2tok.sol\":70:2253  contract Tok2tok {... */\n      mstore(0x40, 0x80)\n      jumpi(tag_1, lt(calldatasize, 0x04))\n      shr(0xe0, calldataload(0x00))\n      dup1\n      0xa0e57a31\n      gt\n      tag_15\n      jumpi\n      dup1\n      0xd3da43b3\n      gt\n      tag_16\n      jumpi\n      dup1\n      0xd3da43b3\n      eq\n      tag_11\n      jumpi\n      dup1\n      0xdd473d2b\n      eq\n      tag_12\n      jumpi\n      dup1\n      0xfa863d30\n      eq\n      tag_13\n      jumpi\n      dup1\n      0xfecde132\n      eq\n      tag_14\n      jumpi\n      jump(tag_1)\n    tag_16:\n      dup1\n      0xa0e57a31\n      eq\n      tag_8\n      jumpi\n      dup1\n      0xa984d411\n      eq\n      tag_9\n      jumpi\n      dup1\n      0xc3f79c9f\n      eq\n      tag_10\n      jumpi\n      jump(tag_1)\n    tag_15:\n      dup1\n      0x057440d3\n      eq\n      tag_2\n      jumpi\n      dup1\n      0x2ace5a2e\n      eq\n      tag_3\n      jumpi\n      dup1\n      0x384f58eb\n      eq\n      tag_4\n      jumpi\n      dup1\n      0x637d89d4\n      eq\n      tag_5\n      jumpi\n      dup1\n      0x9a8318f4\n      eq\n      tag_6\n      jumpi\n      dup1\n      0x9ff8ba98\n      eq\n      tag_7\n      jumpi\n    tag_1:\n      0x00\n      dup1\n      revert\n        /* \"contracts/Tok2tok.sol\":2054:2158  function contract_balance () public view returns (uint256) {... */\n    tag_2:\n      callvalue\n      dup1\n      iszero\n      tag_17\n      jumpi\n      0x00\n      dup1\n      revert\n    tag_17:\n      pop\n      tag_18\n      tag_19\n      jump\t// in\n    tag_18:\n      mload(0x40)\n      tag_20\n      swap2\n      swap1\n      tag_21\n      jump\t// in\n    tag_20:\n      mload(0x40)\n      dup1\n      swap2\n      sub\n      swap1\n      return\n        /* \"contracts/Tok2tok.sol\":133:161  uint256 public total_deposit */\n    tag_3:\n      callvalue\n      dup1\n      iszero\n      tag_22\n      jumpi\n      0x00\n      dup1\n      revert\n    tag_22:\n      pop\n      tag_23\n      tag_24\n      jump\t// in\n    tag_23:\n      mload(0x40)\n      tag_25\n      swap2\n      swap1\n      tag_21\n      jump\t// in\n    tag_25:\n      mload(0x40)\n      dup1\n      swap2\n      sub\n      swap1\n      return\n        /* \"contracts/Tok2tok.sol\":2164:2250  function contract_owner () public view returns (address) {... */\n    tag_4:\n      callvalue\n      dup1\n      iszero\n      tag_26\n      jumpi\n      0x00\n      dup1\n      revert\n    tag_26:\n      pop\n      tag_27\n      tag_28\n      jump\t// in\n    tag_27:\n      mload(0x40)\n      tag_29\n      swap2\n      swap1\n      tag_30\n      jump\t// in\n    tag_29:\n      mload(0x40)\n      dup1\n      swap2\n      sub\n      swap1\n      return\n        /* \"contracts/Tok2tok.sol\":430:604  function user_deposit () public payable {... */\n    tag_5:\n      tag_31\n      tag_32\n      jump\t// in\n    tag_31:\n      stop\n        /* \"contracts/Tok2tok.sol\":167:196  uint256 public total_withdraw */\n    tag_6:\n      callvalue\n      dup1\n      iszero\n      tag_33\n      jumpi\n      0x00\n      dup1\n      revert\n    tag_33:\n      pop\n      tag_34\n      tag_35\n      jump\t// in\n    tag_34:\n      mload(0x40)\n      tag_36\n      swap2\n      swap1\n      tag_21\n      jump\t// in\n    tag_36:\n      mload(0x40)\n      dup1\n      swap2\n      sub\n      swap1\n      return\n        /* \"contracts/Tok2tok.sol\":1261:1575  function bill_user (uint256 amount) public {... */\n    tag_7:\n      callvalue\n      dup1\n      iszero\n      tag_37\n      jumpi\n      0x00\n      dup1\n      revert\n    tag_37:\n      pop\n      tag_38\n      0x04\n      dup1\n      calldatasize\n      sub\n      dup2\n      add\n      swap1\n      tag_39\n      swap2\n      swap1\n      tag_40\n      jump\t// in\n    tag_39:\n      tag_41\n      jump\t// in\n    tag_38:\n      stop\n        /* \"contracts/Tok2tok.sol\":1831:1944  function admin_balance () public view returns (uint256) {... */\n    tag_8:\n      callvalue\n      dup1\n      iszero\n      tag_42\n      jumpi\n      0x00\n      dup1\n      revert\n    tag_42:\n      pop\n      tag_43\n      tag_44\n      jump\t// in\n    tag_43:\n      mload(0x40)\n      tag_45\n      swap2\n      swap1\n      tag_21\n      jump\t// in\n    tag_45:\n      mload(0x40)\n      dup1\n      swap2\n      sub\n      swap1\n      return\n        /* \"contracts/Tok2tok.sol\":673:941  function user_withdraw (uint256 amount) public {... */\n    tag_9:\n      callvalue\n      dup1\n      iszero\n      tag_46\n      jumpi\n      0x00\n      dup1\n      revert\n    tag_46:\n      pop\n      tag_47\n      0x04\n      dup1\n      calldatasize\n      sub\n      dup2\n      add\n      swap1\n      tag_48\n      swap2\n      swap1\n      tag_40\n      jump\t// in\n    tag_48:\n      tag_49\n      jump\t// in\n    tag_47:\n      stop\n        /* \"contracts/Tok2tok.sol\":202:227  uint256 public total_bill */\n    tag_10:\n      callvalue\n      dup1\n      iszero\n      tag_50\n      jumpi\n      0x00\n      dup1\n      revert\n    tag_50:\n      pop\n      tag_51\n      tag_52\n      jump\t// in\n    tag_51:\n      mload(0x40)\n      tag_53\n      swap2\n      swap1\n      tag_21\n      jump\t// in\n    tag_53:\n      mload(0x40)\n      dup1\n      swap2\n      sub\n      swap1\n      return\n        /* \"contracts/Tok2tok.sol\":1950:2048  function user_balance () public view returns (uint256) {... */\n    tag_11:\n      callvalue\n      dup1\n      iszero\n      tag_54\n      jumpi\n      0x00\n      dup1\n      revert\n    tag_54:\n      pop\n      tag_55\n      tag_56\n      jump\t// in\n    tag_55:\n      mload(0x40)\n      tag_57\n      swap2\n      swap1\n      tag_21\n      jump\t// in\n    tag_57:\n      mload(0x40)\n      dup1\n      swap2\n      sub\n      swap1\n      return\n        /* \"contracts/Tok2tok.sol\":947:1192  function withdraw_all () public {... */\n    tag_12:\n      callvalue\n      dup1\n      iszero\n      tag_58\n      jumpi\n      0x00\n      dup1\n      revert\n    tag_58:\n      pop\n      tag_59\n      tag_60\n      jump\t// in\n    tag_59:\n      stop\n        /* \"contracts/Tok2tok.sol\":1581:1825  function admin_withdraw (address payable to, uint256 amount) public {... */\n    tag_13:\n      callvalue\n      dup1\n      iszero\n      tag_61\n      jumpi\n      0x00\n      dup1\n      revert\n    tag_61:\n      pop\n      tag_62\n      0x04\n      dup1\n      calldatasize\n      sub\n      dup2\n      add\n      swap1\n      tag_63\n      swap2\n      swap1\n      tag_64\n      jump\t// in\n    tag_63:\n      tag_65\n      jump\t// in\n    tag_62:\n      stop\n        /* \"contracts/Tok2tok.sol\":233:268  uint256 public total_admin_withdraw */\n    tag_14:\n      callvalue\n      dup1\n      iszero\n      tag_66\n      jumpi\n      0x00\n      dup1\n      revert\n    tag_66:\n      pop\n      tag_67\n      tag_68\n      jump\t// in\n    tag_67:\n      mload(0x40)\n      tag_69\n      swap2\n      swap1\n      tag_21\n      jump\t// in\n    tag_69:\n      mload(0x40)\n      dup1\n      swap2\n      sub\n      swap1\n      return\n        /* \"contracts/Tok2tok.sol\":2054:2158  function contract_balance () public view returns (uint256) {... */\n    tag_19:\n        /* \"contracts/Tok2tok.sol\":2104:2111  uint256 */\n      0x00\n        /* \"contracts/Tok2tok.sol\":2130:2151  address(this).balance */\n      selfbalance\n        /* \"contracts/Tok2tok.sol\":2123:2151  return address(this).balance */\n      swap1\n      pop\n        /* \"contracts/Tok2tok.sol\":2054:2158  function contract_balance () public view returns (uint256) {... */\n      swap1\n      jump\t// out\n        /* \"contracts/Tok2tok.sol\":133:161  uint256 public total_deposit */\n    tag_24:\n      sload(0x01)\n      dup2\n      jump\t// out\n        /* \"contracts/Tok2tok.sol\":2164:2250  function contract_owner () public view returns (address) {... */\n    tag_28:\n        /* \"contracts/Tok2tok.sol\":2212:2219  address */\n      0x00\n        /* \"contracts/Tok2tok.sol\":2238:2243  owner */\n      0x05\n      0x00\n      swap1\n      sload\n      swap1\n      0x0100\n      exp\n      swap1\n      div\n      0xffffffffffffffffffffffffffffffffffffffff\n      and\n        /* \"contracts/Tok2tok.sol\":2231:2243  return owner */\n      swap1\n      pop\n        /* \"contracts/Tok2tok.sol\":2164:2250  function contract_owner () public view returns (address) {... */\n      swap1\n      jump\t// out\n        /* \"contracts/Tok2tok.sol\":430:604  function user_deposit () public payable {... */\n    tag_32:\n        /* \"contracts/Tok2tok.sol\":503:512  msg.value */\n      callvalue\n        /* \"contracts/Tok2tok.sol\":480:487  deposit */\n      0x00\n        /* \"contracts/Tok2tok.sol\":480:499  deposit[msg.sender] */\n      dup1\n        /* \"contracts/Tok2tok.sol\":488:498  msg.sender */\n      caller\n        /* \"contracts/Tok2tok.sol\":480:499  deposit[msg.sender] */\n      0xffffffffffffffffffffffffffffffffffffffff\n      and\n      0xffffffffffffffffffffffffffffffffffffffff\n      and\n      dup2\n      mstore\n      0x20\n      add\n      swap1\n      dup2\n      mstore\n      0x20\n      add\n      0x00\n      keccak256\n      0x00\n        /* \"contracts/Tok2tok.sol\":480:512  deposit[msg.sender] += msg.value */\n      dup3\n      dup3\n      sload\n      tag_73\n      swap2\n      swap1\n      tag_74\n      jump\t// in\n    tag_73:\n      swap3\n      pop\n      pop\n      dup2\n      swap1\n      sstore\n      pop\n        /* \"contracts/Tok2tok.sol\":539:548  msg.value */\n      callvalue\n        /* \"contracts/Tok2tok.sol\":522:535  total_deposit */\n      0x01\n      0x00\n        /* \"contracts/Tok2tok.sol\":522:548  total_deposit += msg.value */\n      dup3\n      dup3\n      sload\n      tag_75\n      swap2\n      swap1\n      tag_74\n      jump\t// in\n    tag_75:\n      swap3\n      pop\n      pop\n      dup2\n      swap1\n      sstore\n      pop\n        /* \"contracts/Tok2tok.sol\":575:585  msg.sender */\n      caller\n        /* \"contracts/Tok2tok.sol\":563:597  UserDeposit(msg.sender, msg.value) */\n      0xffffffffffffffffffffffffffffffffffffffff\n      and\n      0x35db3d768e685509e031bae369804ca7dc6656af739e079f1d3312cadc7b19d8\n        /* \"contracts/Tok2tok.sol\":587:596  msg.value */\n      callvalue\n        /* \"contracts/Tok2tok.sol\":563:597  UserDeposit(msg.sender, msg.value) */\n      mload(0x40)\n      tag_76\n      swap2\n      swap1\n      tag_21\n      jump\t// in\n    tag_76:\n      mload(0x40)\n      dup1\n      swap2\n      sub\n      swap1\n      log2\n        /* \"contracts/Tok2tok.sol\":430:604  function user_deposit () public payable {... */\n      jump\t// out\n        /* \"contracts/Tok2tok.sol\":167:196  uint256 public total_withdraw */\n    tag_35:\n      sload(0x02)\n      dup2\n      jump\t// out\n        /* \"contracts/Tok2tok.sol\":1261:1575  function bill_user (uint256 amount) public {... */\n    tag_41:\n        /* \"contracts/Tok2tok.sol\":1314:1329  uint256 balance */\n      0x00\n        /* \"contracts/Tok2tok.sol\":1332:1346  user_balance() */\n      tag_78\n        /* \"contracts/Tok2tok.sol\":1332:1344  user_balance */\n      tag_56\n        /* \"contracts/Tok2tok.sol\":1332:1346  user_balance() */\n      jump\t// in\n    tag_78:\n        /* \"contracts/Tok2tok.sol\":1314:1346  uint256 balance = user_balance() */\n      swap1\n      pop\n        /* \"contracts/Tok2tok.sol\":1370:1376  amount */\n      dup2\n        /* \"contracts/Tok2tok.sol\":1360:1367  balance */\n      dup2\n        /* \"contracts/Tok2tok.sol\":1360:1376  balance < amount */\n      lt\n        /* \"contracts/Tok2tok.sol\":1356:1419  if (balance < amount) {... */\n      iszero\n      tag_79\n      jumpi\n        /* \"contracts/Tok2tok.sol\":1401:1408  balance */\n      dup1\n        /* \"contracts/Tok2tok.sol\":1392:1408  amount = balance */\n      swap2\n      pop\n        /* \"contracts/Tok2tok.sol\":1356:1419  if (balance < amount) {... */\n    tag_79:\n        /* \"contracts/Tok2tok.sol\":1450:1455  owner */\n      0x05\n      0x00\n      swap1\n      sload\n      swap1\n      0x0100\n      exp\n      swap1\n      div\n      0xffffffffffffffffffffffffffffffffffffffff\n      and\n        /* \"contracts/Tok2tok.sol\":1436:1455  msg.sender == owner */\n      0xffffffffffffffffffffffffffffffffffffffff\n      and\n        /* \"contracts/Tok2tok.sol\":1436:1446  msg.sender */\n      caller\n        /* \"contracts/Tok2tok.sol\":1436:1455  msg.sender == owner */\n      0xffffffffffffffffffffffffffffffffffffffff\n      and\n      eq\n        /* \"contracts/Tok2tok.sol\":1428:1456  require(msg.sender == owner) */\n      tag_80\n      jumpi\n      0x00\n      dup1\n      revert\n    tag_80:\n        /* \"contracts/Tok2tok.sol\":1480:1486  amount */\n      dup2\n        /* \"contracts/Tok2tok.sol\":1466:1476  total_bill */\n      0x03\n      0x00\n        /* \"contracts/Tok2tok.sol\":1466:1486  total_bill += amount */\n      dup3\n      dup3\n      sload\n      tag_81\n      swap2\n      swap1\n      tag_74\n      jump\t// in\n    tag_81:\n      swap3\n      pop\n      pop\n      dup2\n      swap1\n      sstore\n      pop\n        /* \"contracts/Tok2tok.sol\":1519:1525  amount */\n      dup2\n        /* \"contracts/Tok2tok.sol\":1496:1503  deposit */\n      0x00\n        /* \"contracts/Tok2tok.sol\":1496:1515  deposit[msg.sender] */\n      dup1\n        /* \"contracts/Tok2tok.sol\":1504:1514  msg.sender */\n      caller\n        /* \"contracts/Tok2tok.sol\":1496:1515  deposit[msg.sender] */\n      0xffffffffffffffffffffffffffffffffffffffff\n      and\n      0xffffffffffffffffffffffffffffffffffffffff\n      and\n      dup2\n      mstore\n      0x20\n      add\n      swap1\n      dup2\n      mstore\n      0x20\n      add\n      0x00\n      keccak256\n      0x00\n        /* \"contracts/Tok2tok.sol\":1496:1525  deposit[msg.sender] += amount */\n      dup3\n      dup3\n      sload\n      tag_82\n      swap2\n      swap1\n      tag_74\n      jump\t// in\n    tag_82:\n      swap3\n      pop\n      pop\n      dup2\n      swap1\n      sstore\n      pop\n        /* \"contracts/Tok2tok.sol\":1549:1559  msg.sender */\n      caller\n        /* \"contracts/Tok2tok.sol\":1540:1568  BillUser(msg.sender, amount) */\n      0xffffffffffffffffffffffffffffffffffffffff\n      and\n      0xc792f24e3f61f64fe1c3a705f0a25fdfe9a49c9c784d24c01d8ef2e17625a208\n        /* \"contracts/Tok2tok.sol\":1561:1567  amount */\n      dup4\n        /* \"contracts/Tok2tok.sol\":1540:1568  BillUser(msg.sender, amount) */\n      mload(0x40)\n      tag_83\n      swap2\n      swap1\n      tag_21\n      jump\t// in\n    tag_83:\n      mload(0x40)\n      dup1\n      swap2\n      sub\n      swap1\n      log2\n        /* \"contracts/Tok2tok.sol\":1304:1575  {... */\n      pop\n        /* \"contracts/Tok2tok.sol\":1261:1575  function bill_user (uint256 amount) public {... */\n      pop\n      jump\t// out\n        /* \"contracts/Tok2tok.sol\":1831:1944  function admin_balance () public view returns (uint256) {... */\n    tag_44:\n        /* \"contracts/Tok2tok.sol\":1878:1885  uint256 */\n      0x00\n        /* \"contracts/Tok2tok.sol\":1917:1937  total_admin_withdraw */\n      sload(0x04)\n        /* \"contracts/Tok2tok.sol\":1904:1914  total_bill */\n      sload(0x03)\n        /* \"contracts/Tok2tok.sol\":1904:1937  total_bill - total_admin_withdraw */\n      tag_85\n      swap2\n      swap1\n      tag_86\n      jump\t// in\n    tag_85:\n        /* \"contracts/Tok2tok.sol\":1897:1937  return total_bill - total_admin_withdraw */\n      swap1\n      pop\n        /* \"contracts/Tok2tok.sol\":1831:1944  function admin_balance () public view returns (uint256) {... */\n      swap1\n      jump\t// out\n        /* \"contracts/Tok2tok.sol\":673:941  function user_withdraw (uint256 amount) public {... */\n    tag_49:\n        /* \"contracts/Tok2tok.sol\":761:767  amount */\n      dup1\n        /* \"contracts/Tok2tok.sol\":738:745  deposit */\n      0x00\n        /* \"contracts/Tok2tok.sol\":738:757  deposit[msg.sender] */\n      dup1\n        /* \"contracts/Tok2tok.sol\":746:756  msg.sender */\n      caller\n        /* \"contracts/Tok2tok.sol\":738:757  deposit[msg.sender] */\n      0xffffffffffffffffffffffffffffffffffffffff\n      and\n      0xffffffffffffffffffffffffffffffffffffffff\n      and\n      dup2\n      mstore\n      0x20\n      add\n      swap1\n      dup2\n      mstore\n      0x20\n      add\n      0x00\n      keccak256\n      sload\n        /* \"contracts/Tok2tok.sol\":738:767  deposit[msg.sender] >= amount */\n      lt\n      iszero\n        /* \"contracts/Tok2tok.sol\":730:768  require(deposit[msg.sender] >= amount) */\n      tag_88\n      jumpi\n      0x00\n      dup1\n      revert\n    tag_88:\n        /* \"contracts/Tok2tok.sol\":796:802  amount */\n      dup1\n        /* \"contracts/Tok2tok.sol\":778:792  total_withdraw */\n      0x02\n      0x00\n        /* \"contracts/Tok2tok.sol\":778:802  total_withdraw += amount */\n      dup3\n      dup3\n      sload\n      tag_89\n      swap2\n      swap1\n      tag_74\n      jump\t// in\n    tag_89:\n      swap3\n      pop\n      pop\n      dup2\n      swap1\n      sstore\n      pop\n        /* \"contracts/Tok2tok.sol\":835:841  amount */\n      dup1\n        /* \"contracts/Tok2tok.sol\":812:819  deposit */\n      0x00\n        /* \"contracts/Tok2tok.sol\":812:831  deposit[msg.sender] */\n      dup1\n        /* \"contracts/Tok2tok.sol\":820:830  msg.sender */\n      caller\n        /* \"contracts/Tok2tok.sol\":812:831  deposit[msg.sender] */\n      0xffffffffffffffffffffffffffffffffffffffff\n      and\n      0xffffffffffffffffffffffffffffffffffffffff\n      and\n      dup2\n      mstore\n      0x20\n      add\n      swap1\n      dup2\n      mstore\n      0x20\n      add\n      0x00\n      keccak256\n      0x00\n        /* \"contracts/Tok2tok.sol\":812:841  deposit[msg.sender] -= amount */\n      dup3\n      dup3\n      sload\n      tag_90\n      swap2\n      swap1\n      tag_86\n      jump\t// in\n    tag_90:\n      swap3\n      pop\n      pop\n      dup2\n      swap1\n      sstore\n      pop\n        /* \"contracts/Tok2tok.sol\":859:869  msg.sender */\n      caller\n        /* \"contracts/Tok2tok.sol\":851:879  payable(msg.sender).transfer */\n      0xffffffffffffffffffffffffffffffffffffffff\n      and\n        /* \"contracts/Tok2tok.sol\":851:887  payable(msg.sender).transfer(amount) */\n      0x08fc\n        /* \"contracts/Tok2tok.sol\":880:886  amount */\n      dup3\n        /* \"contracts/Tok2tok.sol\":851:887  payable(msg.sender).transfer(amount) */\n      swap1\n      dup2\n      iszero\n      mul\n      swap1\n      mload(0x40)\n      0x00\n      mload(0x40)\n      dup1\n      dup4\n      sub\n      dup2\n      dup6\n      dup9\n      dup9\n      call\n      swap4\n      pop\n      pop\n      pop\n      pop\n      iszero\n      dup1\n      iszero\n      tag_92\n      jumpi\n      returndatasize\n      0x00\n      dup1\n      returndatacopy\n      revert(0x00, returndatasize)\n    tag_92:\n      pop\n        /* \"contracts/Tok2tok.sol\":915:925  msg.sender */\n      caller\n        /* \"contracts/Tok2tok.sol\":902:934  UserWithdraw(msg.sender, amount) */\n      0xffffffffffffffffffffffffffffffffffffffff\n      and\n      0x98824d89d47225910d3e61aa38b640d29d58b43e2dc47b4d986a588c88e0a2a8\n        /* \"contracts/Tok2tok.sol\":927:933  amount */\n      dup3\n        /* \"contracts/Tok2tok.sol\":902:934  UserWithdraw(msg.sender, amount) */\n      mload(0x40)\n      tag_93\n      swap2\n      swap1\n      tag_21\n      jump\t// in\n    tag_93:\n      mload(0x40)\n      dup1\n      swap2\n      sub\n      swap1\n      log2\n        /* \"contracts/Tok2tok.sol\":673:941  function user_withdraw (uint256 amount) public {... */\n      pop\n      jump\t// out\n        /* \"contracts/Tok2tok.sol\":202:227  uint256 public total_bill */\n    tag_52:\n      sload(0x03)\n      dup2\n      jump\t// out\n        /* \"contracts/Tok2tok.sol\":1950:2048  function user_balance () public view returns (uint256) {... */\n    tag_56:\n        /* \"contracts/Tok2tok.sol\":1996:2003  uint256 */\n      0x00\n        /* \"contracts/Tok2tok.sol\":2022:2029  deposit */\n      dup1\n        /* \"contracts/Tok2tok.sol\":2022:2041  deposit[msg.sender] */\n      0x00\n        /* \"contracts/Tok2tok.sol\":2030:2040  msg.sender */\n      caller\n        /* \"contracts/Tok2tok.sol\":2022:2041  deposit[msg.sender] */\n      0xffffffffffffffffffffffffffffffffffffffff\n      and\n      0xffffffffffffffffffffffffffffffffffffffff\n      and\n      dup2\n      mstore\n      0x20\n      add\n      swap1\n      dup2\n      mstore\n      0x20\n      add\n      0x00\n      keccak256\n      sload\n        /* \"contracts/Tok2tok.sol\":2015:2041  return deposit[msg.sender] */\n      swap1\n      pop\n        /* \"contracts/Tok2tok.sol\":1950:2048  function user_balance () public view returns (uint256) {... */\n      swap1\n      jump\t// out\n        /* \"contracts/Tok2tok.sol\":947:1192  function withdraw_all () public {... */\n    tag_60:\n        /* \"contracts/Tok2tok.sol\":989:1003  uint256 amount */\n      0x00\n        /* \"contracts/Tok2tok.sol\":1006:1013  deposit */\n      dup1\n        /* \"contracts/Tok2tok.sol\":1006:1025  deposit[msg.sender] */\n      0x00\n        /* \"contracts/Tok2tok.sol\":1014:1024  msg.sender */\n      caller\n        /* \"contracts/Tok2tok.sol\":1006:1025  deposit[msg.sender] */\n      0xffffffffffffffffffffffffffffffffffffffff\n      and\n      0xffffffffffffffffffffffffffffffffffffffff\n      and\n      dup2\n      mstore\n      0x20\n      add\n      swap1\n      dup2\n      mstore\n      0x20\n      add\n      0x00\n      keccak256\n      sload\n        /* \"contracts/Tok2tok.sol\":989:1025  uint256 amount = deposit[msg.sender] */\n      swap1\n      pop\n        /* \"contracts/Tok2tok.sol\":1053:1059  amount */\n      dup1\n        /* \"contracts/Tok2tok.sol\":1035:1049  total_withdraw */\n      0x02\n      0x00\n        /* \"contracts/Tok2tok.sol\":1035:1059  total_withdraw += amount */\n      dup3\n      dup3\n      sload\n      tag_96\n      swap2\n      swap1\n      tag_74\n      jump\t// in\n    tag_96:\n      swap3\n      pop\n      pop\n      dup2\n      swap1\n      sstore\n      pop\n        /* \"contracts/Tok2tok.sol\":1091:1092  0 */\n      0x00\n        /* \"contracts/Tok2tok.sol\":1069:1076  deposit */\n      dup1\n        /* \"contracts/Tok2tok.sol\":1069:1088  deposit[msg.sender] */\n      0x00\n        /* \"contracts/Tok2tok.sol\":1077:1087  msg.sender */\n      caller\n        /* \"contracts/Tok2tok.sol\":1069:1088  deposit[msg.sender] */\n      0xffffffffffffffffffffffffffffffffffffffff\n      and\n      0xffffffffffffffffffffffffffffffffffffffff\n      and\n      dup2\n      mstore\n      0x20\n      add\n      swap1\n      dup2\n      mstore\n      0x20\n      add\n      0x00\n      keccak256\n        /* \"contracts/Tok2tok.sol\":1069:1092  deposit[msg.sender] = 0 */\n      dup2\n      swap1\n      sstore\n      pop\n        /* \"contracts/Tok2tok.sol\":1110:1120  msg.sender */\n      caller\n        /* \"contracts/Tok2tok.sol\":1102:1130  payable(msg.sender).transfer */\n      0xffffffffffffffffffffffffffffffffffffffff\n      and\n        /* \"contracts/Tok2tok.sol\":1102:1138  payable(msg.sender).transfer(amount) */\n      0x08fc\n        /* \"contracts/Tok2tok.sol\":1131:1137  amount */\n      dup3\n        /* \"contracts/Tok2tok.sol\":1102:1138  payable(msg.sender).transfer(amount) */\n      swap1\n      dup2\n      iszero\n      mul\n      swap1\n      mload(0x40)\n      0x00\n      mload(0x40)\n      dup1\n      dup4\n      sub\n      dup2\n      dup6\n      dup9\n      dup9\n      call\n      swap4\n      pop\n      pop\n      pop\n      pop\n      iszero\n      dup1\n      iszero\n      tag_98\n      jumpi\n      returndatasize\n      0x00\n      dup1\n      returndatacopy\n      revert(0x00, returndatasize)\n    tag_98:\n      pop\n        /* \"contracts/Tok2tok.sol\":1166:1176  msg.sender */\n      caller\n        /* \"contracts/Tok2tok.sol\":1153:1185  UserWithdraw(msg.sender, amount) */\n      0xffffffffffffffffffffffffffffffffffffffff\n      and\n      0x98824d89d47225910d3e61aa38b640d29d58b43e2dc47b4d986a588c88e0a2a8\n        /* \"contracts/Tok2tok.sol\":1178:1184  amount */\n      dup3\n        /* \"contracts/Tok2tok.sol\":1153:1185  UserWithdraw(msg.sender, amount) */\n      mload(0x40)\n      tag_99\n      swap2\n      swap1\n      tag_21\n      jump\t// in\n    tag_99:\n      mload(0x40)\n      dup1\n      swap2\n      sub\n      swap1\n      log2\n        /* \"contracts/Tok2tok.sol\":979:1192  {... */\n      pop\n        /* \"contracts/Tok2tok.sol\":947:1192  function withdraw_all () public {... */\n      jump\t// out\n        /* \"contracts/Tok2tok.sol\":1581:1825  function admin_withdraw (address payable to, uint256 amount) public {... */\n    tag_65:\n        /* \"contracts/Tok2tok.sol\":1681:1686  owner */\n      0x05\n      0x00\n      swap1\n      sload\n      swap1\n      0x0100\n      exp\n      swap1\n      div\n      0xffffffffffffffffffffffffffffffffffffffff\n      and\n        /* \"contracts/Tok2tok.sol\":1667:1686  msg.sender == owner */\n      0xffffffffffffffffffffffffffffffffffffffff\n      and\n        /* \"contracts/Tok2tok.sol\":1667:1677  msg.sender */\n      caller\n        /* \"contracts/Tok2tok.sol\":1667:1686  msg.sender == owner */\n      0xffffffffffffffffffffffffffffffffffffffff\n      and\n      eq\n        /* \"contracts/Tok2tok.sol\":1659:1687  require(msg.sender == owner) */\n      tag_101\n      jumpi\n      0x00\n      dup1\n      revert\n    tag_101:\n        /* \"contracts/Tok2tok.sol\":1728:1748  total_admin_withdraw */\n      sload(0x04)\n        /* \"contracts/Tok2tok.sol\":1715:1725  total_bill */\n      sload(0x03)\n        /* \"contracts/Tok2tok.sol\":1715:1748  total_bill - total_admin_withdraw */\n      tag_102\n      swap2\n      swap1\n      tag_86\n      jump\t// in\n    tag_102:\n        /* \"contracts/Tok2tok.sol\":1705:1711  amount */\n      dup2\n        /* \"contracts/Tok2tok.sol\":1705:1748  amount <= total_bill - total_admin_withdraw */\n      gt\n      iszero\n        /* \"contracts/Tok2tok.sol\":1697:1749  require(amount <= total_bill - total_admin_withdraw) */\n      tag_103\n      jumpi\n      0x00\n      dup1\n      revert\n    tag_103:\n        /* \"contracts/Tok2tok.sol\":1783:1789  amount */\n      dup1\n        /* \"contracts/Tok2tok.sol\":1759:1779  total_admin_withdraw */\n      0x04\n      0x00\n        /* \"contracts/Tok2tok.sol\":1759:1789  total_admin_withdraw += amount */\n      dup3\n      dup3\n      sload\n      tag_104\n      swap2\n      swap1\n      tag_74\n      jump\t// in\n    tag_104:\n      swap3\n      pop\n      pop\n      dup2\n      swap1\n      sstore\n      pop\n        /* \"contracts/Tok2tok.sol\":1799:1801  to */\n      dup2\n        /* \"contracts/Tok2tok.sol\":1799:1810  to.transfer */\n      0xffffffffffffffffffffffffffffffffffffffff\n      and\n        /* \"contracts/Tok2tok.sol\":1799:1818  to.transfer(amount) */\n      0x08fc\n        /* \"contracts/Tok2tok.sol\":1811:1817  amount */\n      dup3\n        /* \"contracts/Tok2tok.sol\":1799:1818  to.transfer(amount) */\n      swap1\n      dup2\n      iszero\n      mul\n      swap1\n      mload(0x40)\n      0x00\n      mload(0x40)\n      dup1\n      dup4\n      sub\n      dup2\n      dup6\n      dup9\n      dup9\n      call\n      swap4\n      pop\n      pop\n      pop\n      pop\n      iszero\n      dup1\n      iszero\n      tag_106\n      jumpi\n      returndatasize\n      0x00\n      dup1\n      returndatacopy\n      revert(0x00, returndatasize)\n    tag_106:\n      pop\n        /* \"contracts/Tok2tok.sol\":1581:1825  function admin_withdraw (address payable to, uint256 amount) public {... */\n      pop\n      pop\n      jump\t// out\n        /* \"contracts/Tok2tok.sol\":233:268  uint256 public total_admin_withdraw */\n    tag_68:\n      sload(0x04)\n      dup2\n      jump\t// out\n        /* \"#utility.yul\":7:84   */\n    tag_107:\n        /* \"#utility.yul\":44:51   */\n      0x00\n        /* \"#utility.yul\":73:78   */\n      dup2\n        /* \"#utility.yul\":62:78   */\n      swap1\n      pop\n        /* \"#utility.yul\":7:84   */\n      swap2\n      swap1\n      pop\n      jump\t// out\n        /* \"#utility.yul\":90:208   */\n    tag_108:\n        /* \"#utility.yul\":177:201   */\n      tag_124\n        /* \"#utility.yul\":195:200   */\n      dup2\n        /* \"#utility.yul\":177:201   */\n      tag_107\n      jump\t// in\n    tag_124:\n        /* \"#utility.yul\":172:175   */\n      dup3\n        /* \"#utility.yul\":165:202   */\n      mstore\n        /* \"#utility.yul\":90:208   */\n      pop\n      pop\n      jump\t// out\n        /* \"#utility.yul\":214:436   */\n    tag_21:\n        /* \"#utility.yul\":307:311   */\n      0x00\n        /* \"#utility.yul\":345:347   */\n      0x20\n        /* \"#utility.yul\":334:343   */\n      dup3\n        /* \"#utility.yul\":330:348   */\n      add\n        /* \"#utility.yul\":322:348   */\n      swap1\n      pop\n        /* \"#utility.yul\":358:429   */\n      tag_126\n        /* \"#utility.yul\":426:427   */\n      0x00\n        /* \"#utility.yul\":415:424   */\n      dup4\n        /* \"#utility.yul\":411:428   */\n      add\n        /* \"#utility.yul\":402:408   */\n      dup5\n        /* \"#utility.yul\":358:429   */\n      tag_108\n      jump\t// in\n    tag_126:\n        /* \"#utility.yul\":214:436   */\n      swap3\n      swap2\n      pop\n      pop\n      jump\t// out\n        /* \"#utility.yul\":442:568   */\n    tag_109:\n        /* \"#utility.yul\":479:486   */\n      0x00\n        /* \"#utility.yul\":519:561   */\n      0xffffffffffffffffffffffffffffffffffffffff\n        /* \"#utility.yul\":512:517   */\n      dup3\n        /* \"#utility.yul\":508:562   */\n      and\n        /* \"#utility.yul\":497:562   */\n      swap1\n      pop\n        /* \"#utility.yul\":442:568   */\n      swap2\n      swap1\n      pop\n      jump\t// out\n        /* \"#utility.yul\":574:670   */\n    tag_110:\n        /* \"#utility.yul\":611:618   */\n      0x00\n        /* \"#utility.yul\":640:664   */\n      tag_129\n        /* \"#utility.yul\":658:663   */\n      dup3\n        /* \"#utility.yul\":640:664   */\n      tag_109\n      jump\t// in\n    tag_129:\n        /* \"#utility.yul\":629:664   */\n      swap1\n      pop\n        /* \"#utility.yul\":574:670   */\n      swap2\n      swap1\n      pop\n      jump\t// out\n        /* \"#utility.yul\":676:794   */\n    tag_111:\n        /* \"#utility.yul\":763:787   */\n      tag_131\n        /* \"#utility.yul\":781:786   */\n      dup2\n        /* \"#utility.yul\":763:787   */\n      tag_110\n      jump\t// in\n    tag_131:\n        /* \"#utility.yul\":758:761   */\n      dup3\n        /* \"#utility.yul\":751:788   */\n      mstore\n        /* \"#utility.yul\":676:794   */\n      pop\n      pop\n      jump\t// out\n        /* \"#utility.yul\":800:1022   */\n    tag_30:\n        /* \"#utility.yul\":893:897   */\n      0x00\n        /* \"#utility.yul\":931:933   */\n      0x20\n        /* \"#utility.yul\":920:929   */\n      dup3\n        /* \"#utility.yul\":916:934   */\n      add\n        /* \"#utility.yul\":908:934   */\n      swap1\n      pop\n        /* \"#utility.yul\":944:1015   */\n      tag_133\n        /* \"#utility.yul\":1012:1013   */\n      0x00\n        /* \"#utility.yul\":1001:1010   */\n      dup4\n        /* \"#utility.yul\":997:1014   */\n      add\n        /* \"#utility.yul\":988:994   */\n      dup5\n        /* \"#utility.yul\":944:1015   */\n      tag_111\n      jump\t// in\n    tag_133:\n        /* \"#utility.yul\":800:1022   */\n      swap3\n      swap2\n      pop\n      pop\n      jump\t// out\n        /* \"#utility.yul\":1109:1226   */\n    tag_113:\n        /* \"#utility.yul\":1218:1219   */\n      0x00\n        /* \"#utility.yul\":1215:1216   */\n      dup1\n        /* \"#utility.yul\":1208:1220   */\n      revert\n        /* \"#utility.yul\":1355:1477   */\n    tag_115:\n        /* \"#utility.yul\":1428:1452   */\n      tag_138\n        /* \"#utility.yul\":1446:1451   */\n      dup2\n        /* \"#utility.yul\":1428:1452   */\n      tag_107\n      jump\t// in\n    tag_138:\n        /* \"#utility.yul\":1421:1426   */\n      dup2\n        /* \"#utility.yul\":1418:1453   */\n      eq\n        /* \"#utility.yul\":1408:1471   */\n      tag_139\n      jumpi\n        /* \"#utility.yul\":1467:1468   */\n      0x00\n        /* \"#utility.yul\":1464:1465   */\n      dup1\n        /* \"#utility.yul\":1457:1469   */\n      revert\n        /* \"#utility.yul\":1408:1471   */\n    tag_139:\n        /* \"#utility.yul\":1355:1477   */\n      pop\n      jump\t// out\n        /* \"#utility.yul\":1483:1622   */\n    tag_116:\n        /* \"#utility.yul\":1529:1534   */\n      0x00\n        /* \"#utility.yul\":1567:1573   */\n      dup2\n        /* \"#utility.yul\":1554:1574   */\n      calldataload\n        /* \"#utility.yul\":1545:1574   */\n      swap1\n      pop\n        /* \"#utility.yul\":1583:1616   */\n      tag_141\n        /* \"#utility.yul\":1610:1615   */\n      dup2\n        /* \"#utility.yul\":1583:1616   */\n      tag_115\n      jump\t// in\n    tag_141:\n        /* \"#utility.yul\":1483:1622   */\n      swap3\n      swap2\n      pop\n      pop\n      jump\t// out\n        /* \"#utility.yul\":1628:1957   */\n    tag_40:\n        /* \"#utility.yul\":1687:1693   */\n      0x00\n        /* \"#utility.yul\":1736:1738   */\n      0x20\n        /* \"#utility.yul\":1724:1733   */\n      dup3\n        /* \"#utility.yul\":1715:1722   */\n      dup5\n        /* \"#utility.yul\":1711:1734   */\n      sub\n        /* \"#utility.yul\":1707:1739   */\n      slt\n        /* \"#utility.yul\":1704:1823   */\n      iszero\n      tag_143\n      jumpi\n        /* \"#utility.yul\":1742:1821   */\n      tag_144\n      tag_113\n      jump\t// in\n    tag_144:\n        /* \"#utility.yul\":1704:1823   */\n    tag_143:\n        /* \"#utility.yul\":1862:1863   */\n      0x00\n        /* \"#utility.yul\":1887:1940   */\n      tag_145\n        /* \"#utility.yul\":1932:1939   */\n      dup5\n        /* \"#utility.yul\":1923:1929   */\n      dup3\n        /* \"#utility.yul\":1912:1921   */\n      dup6\n        /* \"#utility.yul\":1908:1930   */\n      add\n        /* \"#utility.yul\":1887:1940   */\n      tag_116\n      jump\t// in\n    tag_145:\n        /* \"#utility.yul\":1877:1940   */\n      swap2\n      pop\n        /* \"#utility.yul\":1833:1950   */\n      pop\n        /* \"#utility.yul\":1628:1957   */\n      swap3\n      swap2\n      pop\n      pop\n      jump\t// out\n        /* \"#utility.yul\":1963:2067   */\n    tag_117:\n        /* \"#utility.yul\":2008:2015   */\n      0x00\n        /* \"#utility.yul\":2037:2061   */\n      tag_147\n        /* \"#utility.yul\":2055:2060   */\n      dup3\n        /* \"#utility.yul\":2037:2061   */\n      tag_109\n      jump\t// in\n    tag_147:\n        /* \"#utility.yul\":2026:2061   */\n      swap1\n      pop\n        /* \"#utility.yul\":1963:2067   */\n      swap2\n      swap1\n      pop\n      jump\t// out\n        /* \"#utility.yul\":2073:2211   */\n    tag_118:\n        /* \"#utility.yul\":2154:2186   */\n      tag_149\n        /* \"#utility.yul\":2180:2185   */\n      dup2\n        /* \"#utility.yul\":2154:2186   */\n      tag_117\n      jump\t// in\n    tag_149:\n        /* \"#utility.yul\":2147:2152   */\n      dup2\n        /* \"#utility.yul\":2144:2187   */\n      eq\n        /* \"#utility.yul\":2134:2205   */\n      tag_150\n      jumpi\n        /* \"#utility.yul\":2201:2202   */\n      0x00\n        /* \"#utility.yul\":2198:2199   */\n      dup1\n        /* \"#utility.yul\":2191:2203   */\n      revert\n        /* \"#utility.yul\":2134:2205   */\n    tag_150:\n        /* \"#utility.yul\":2073:2211   */\n      pop\n      jump\t// out\n        /* \"#utility.yul\":2217:2372   */\n    tag_119:\n        /* \"#utility.yul\":2271:2276   */\n      0x00\n        /* \"#utility.yul\":2309:2315   */\n      dup2\n        /* \"#utility.yul\":2296:2316   */\n      calldataload\n        /* \"#utility.yul\":2287:2316   */\n      swap1\n      pop\n        /* \"#utility.yul\":2325:2366   */\n      tag_152\n        /* \"#utility.yul\":2360:2365   */\n      dup2\n        /* \"#utility.yul\":2325:2366   */\n      tag_118\n      jump\t// in\n    tag_152:\n        /* \"#utility.yul\":2217:2372   */\n      swap3\n      swap2\n      pop\n      pop\n      jump\t// out\n        /* \"#utility.yul\":2378:2868   */\n    tag_64:\n        /* \"#utility.yul\":2454:2460   */\n      0x00\n        /* \"#utility.yul\":2462:2468   */\n      dup1\n        /* \"#utility.yul\":2511:2513   */\n      0x40\n        /* \"#utility.yul\":2499:2508   */\n      dup4\n        /* \"#utility.yul\":2490:2497   */\n      dup6\n        /* \"#utility.yul\":2486:2509   */\n      sub\n        /* \"#utility.yul\":2482:2514   */\n      slt\n        /* \"#utility.yul\":2479:2598   */\n      iszero\n      tag_154\n      jumpi\n        /* \"#utility.yul\":2517:2596   */\n      tag_155\n      tag_113\n      jump\t// in\n    tag_155:\n        /* \"#utility.yul\":2479:2598   */\n    tag_154:\n        /* \"#utility.yul\":2637:2638   */\n      0x00\n        /* \"#utility.yul\":2662:2723   */\n      tag_156\n        /* \"#utility.yul\":2715:2722   */\n      dup6\n        /* \"#utility.yul\":2706:2712   */\n      dup3\n        /* \"#utility.yul\":2695:2704   */\n      dup7\n        /* \"#utility.yul\":2691:2713   */\n      add\n        /* \"#utility.yul\":2662:2723   */\n      tag_119\n      jump\t// in\n    tag_156:\n        /* \"#utility.yul\":2652:2723   */\n      swap3\n      pop\n        /* \"#utility.yul\":2608:2733   */\n      pop\n        /* \"#utility.yul\":2772:2774   */\n      0x20\n        /* \"#utility.yul\":2798:2851   */\n      tag_157\n        /* \"#utility.yul\":2843:2850   */\n      dup6\n        /* \"#utility.yul\":2834:2840   */\n      dup3\n        /* \"#utility.yul\":2823:2832   */\n      dup7\n        /* \"#utility.yul\":2819:2841   */\n      add\n        /* \"#utility.yul\":2798:2851   */\n      tag_116\n      jump\t// in\n    tag_157:\n        /* \"#utility.yul\":2788:2851   */\n      swap2\n      pop\n        /* \"#utility.yul\":2743:2861   */\n      pop\n        /* \"#utility.yul\":2378:2868   */\n      swap3\n      pop\n      swap3\n      swap1\n      pop\n      jump\t// out\n        /* \"#utility.yul\":2874:3054   */\n    tag_120:\n        /* \"#utility.yul\":2922:2999   */\n      0x4e487b7100000000000000000000000000000000000000000000000000000000\n        /* \"#utility.yul\":2919:2920   */\n      0x00\n        /* \"#utility.yul\":2912:3000   */\n      mstore\n        /* \"#utility.yul\":3019:3023   */\n      0x11\n        /* \"#utility.yul\":3016:3017   */\n      0x04\n        /* \"#utility.yul\":3009:3024   */\n      mstore\n        /* \"#utility.yul\":3043:3047   */\n      0x24\n        /* \"#utility.yul\":3040:3041   */\n      0x00\n        /* \"#utility.yul\":3033:3048   */\n      revert\n        /* \"#utility.yul\":3060:3251   */\n    tag_74:\n        /* \"#utility.yul\":3100:3103   */\n      0x00\n        /* \"#utility.yul\":3119:3139   */\n      tag_160\n        /* \"#utility.yul\":3137:3138   */\n      dup3\n        /* \"#utility.yul\":3119:3139   */\n      tag_107\n      jump\t// in\n    tag_160:\n        /* \"#utility.yul\":3114:3139   */\n      swap2\n      pop\n        /* \"#utility.yul\":3153:3173   */\n      tag_161\n        /* \"#utility.yul\":3171:3172   */\n      dup4\n        /* \"#utility.yul\":3153:3173   */\n      tag_107\n      jump\t// in\n    tag_161:\n        /* \"#utility.yul\":3148:3173   */\n      swap3\n      pop\n        /* \"#utility.yul\":3196:3197   */\n      dup3\n        /* \"#utility.yul\":3193:3194   */\n      dup3\n        /* \"#utility.yul\":3189:3198   */\n      add\n        /* \"#utility.yul\":3182:3198   */\n      swap1\n      pop\n        /* \"#utility.yul\":3217:3220   */\n      dup1\n        /* \"#utility.yul\":3214:3215   */\n      dup3\n        /* \"#utility.yul\":3211:3221   */\n      gt\n        /* \"#utility.yul\":3208:3244   */\n      iszero\n      tag_162\n      jumpi\n        /* \"#utility.yul\":3224:3242   */\n      tag_163\n      tag_120\n      jump\t// in\n    tag_163:\n        /* \"#utility.yul\":3208:3244   */\n    tag_162:\n        /* \"#utility.yul\":3060:3251   */\n      swap3\n      swap2\n      pop\n      pop\n      jump\t// out\n        /* \"#utility.yul\":3257:3451   */\n    tag_86:\n        /* \"#utility.yul\":3297:3301   */\n      0x00\n        /* \"#utility.yul\":3317:3337   */\n      tag_165\n        /* \"#utility.yul\":3335:3336   */\n      dup3\n        /* \"#utility.yul\":3317:3337   */\n      tag_107\n      jump\t// in\n    tag_165:\n        /* \"#utility.yul\":3312:3337   */\n      swap2\n      pop\n        /* \"#utility.yul\":3351:3371   */\n      tag_166\n        /* \"#utility.yul\":3369:3370   */\n      dup4\n        /* \"#utility.yul\":3351:3371   */\n      tag_107\n      jump\t// in\n    tag_166:\n        /* \"#utility.yul\":3346:3371   */\n      swap3\n      pop\n        /* \"#utility.yul\":3395:3396   */\n      dup3\n        /* \"#utility.yul\":3392:3393   */\n      dup3\n        /* \"#utility.yul\":3388:3397   */\n      sub\n        /* \"#utility.yul\":3380:3397   */\n      swap1\n      pop\n        /* \"#utility.yul\":3419:3420   */\n      dup2\n        /* \"#utility.yul\":3413:3417   */\n      dup2\n        /* \"#utility.yul\":3410:3421   */\n      gt\n        /* \"#utility.yul\":3407:3444   */\n      iszero\n      tag_167\n      jumpi\n        /* \"#utility.yul\":3424:3442   */\n      tag_168\n      tag_120\n      jump\t// in\n    tag_168:\n        /* \"#utility.yul\":3407:3444   */\n    tag_167:\n        /* \"#utility.yul\":3257:3451   */\n      swap3\n      swap2\n      pop\n      pop\n      jump\t// out\n\n    auxdata: 0xa2646970667358221220c89342812da0ffe915cbbfbeef1ffb9598cfa9702cb0d37151e90f345c32fb1f64736f6c634300081a0033\n}\n",
				"bytecode": {
					"linkReferences": {},
					"object": "6080604052348015600e575f80fd5b503360055f6101000a81548173ffffffffffffffffffffffffffffffffffffffff021916908373ffffffffffffffffffffffffffffffffffffffff160217905550610a9e8061005c5f395ff3fe6080604052600436106100c1575f3560e01c8063a0e57a311161007e578063d3da43b311610058578063d3da43b31461021b578063dd473d2b14610245578063fa863d301461025b578063fecde13214610283576100c1565b8063a0e57a311461019f578063a984d411146101c9578063c3f79c9f146101f1576100c1565b8063057440d3146100c55780632ace5a2e146100ef578063384f58eb14610119578063637d89d4146101435780639a8318f41461014d5780639ff8ba9814610177575b5f80fd5b3480156100d0575f80fd5b506100d96102ad565b6040516100e69190610892565b60405180910390f35b3480156100fa575f80fd5b506101036102b4565b6040516101109190610892565b60405180910390f35b348015610124575f80fd5b5061012d6102ba565b60405161013a91906108ea565b60405180910390f35b61014b6102e2565b005b348015610158575f80fd5b5061016161039c565b60405161016e9190610892565b60405180910390f35b348015610182575f80fd5b5061019d60048036038101906101989190610931565b6103a2565b005b3480156101aa575f80fd5b506101b36104cd565b6040516101c09190610892565b60405180910390f35b3480156101d4575f80fd5b506101ef60048036038101906101ea9190610931565b6104e3565b005b3480156101fc575f80fd5b5061020561062a565b6040516102129190610892565b60405180910390f35b348015610226575f80fd5b5061022f610630565b60405161023c9190610892565b60405180910390f35b348015610250575f80fd5b50610259610673565b005b348015610266575f80fd5b50610281600480360381019061027c9190610997565b6107a1565b005b34801561028e575f80fd5b50610297610874565b6040516102a49190610892565b60405180910390f35b5f47905090565b60015481565b5f60055f9054906101000a900473ffffffffffffffffffffffffffffffffffffffff16905090565b345f803373ffffffffffffffffffffffffffffffffffffffff1673ffffffffffffffffffffffffffffffffffffffff1681526020019081526020015f205f82825461032d9190610a02565b925050819055503460015f8282546103459190610a02565b925050819055503373ffffffffffffffffffffffffffffffffffffffff167f35db3d768e685509e031bae369804ca7dc6656af739e079f1d3312cadc7b19d8346040516103929190610892565b60405180910390a2565b60025481565b5f6103ab610630565b9050818110156103b9578091505b60055f9054906101000a900473ffffffffffffffffffffffffffffffffffffffff1673ffffffffffffffffffffffffffffffffffffffff163373ffffffffffffffffffffffffffffffffffffffff1614610411575f80fd5b8160035f8282546104229190610a02565b92505081905550815f803373ffffffffffffffffffffffffffffffffffffffff1673ffffffffffffffffffffffffffffffffffffffff1681526020019081526020015f205f8282546104749190610a02565b925050819055503373ffffffffffffffffffffffffffffffffffffffff167fc792f24e3f61f64fe1c3a705f0a25fdfe9a49c9c784d24c01d8ef2e17625a208836040516104c19190610892565b60405180910390a25050565b5f6004546003546104de9190610a35565b905090565b805f803373ffffffffffffffffffffffffffffffffffffffff1673ffffffffffffffffffffffffffffffffffffffff1681526020019081526020015f2054101561052b575f80fd5b8060025f82825461053c9190610a02565b92505081905550805f803373ffffffffffffffffffffffffffffffffffffffff1673ffffffffffffffffffffffffffffffffffffffff1681526020019081526020015f205f82825461058e9190610a35565b925050819055503373ffffffffffffffffffffffffffffffffffffffff166108fc8290811502906040515f60405180830381858888f193505050501580156105d8573d5f803e3d5ffd5b503373ffffffffffffffffffffffffffffffffffffffff167f98824d89d47225910d3e61aa38b640d29d58b43e2dc47b4d986a588c88e0a2a88260405161061f9190610892565b60405180910390a250565b60035481565b5f805f3373ffffffffffffffffffffffffffffffffffffffff1673ffffffffffffffffffffffffffffffffffffffff1681526020019081526020015f2054905090565b5f805f3373ffffffffffffffffffffffffffffffffffffffff1673ffffffffffffffffffffffffffffffffffffffff1681526020019081526020015f205490508060025f8282546106c49190610a02565b925050819055505f805f3373ffffffffffffffffffffffffffffffffffffffff1673ffffffffffffffffffffffffffffffffffffffff1681526020019081526020015f20819055503373ffffffffffffffffffffffffffffffffffffffff166108fc8290811502906040515f60405180830381858888f1935050505015801561074f573d5f803e3d5ffd5b503373ffffffffffffffffffffffffffffffffffffffff167f98824d89d47225910d3e61aa38b640d29d58b43e2dc47b4d986a588c88e0a2a8826040516107969190610892565b60405180910390a250565b60055f9054906101000a900473ffffffffffffffffffffffffffffffffffffffff1673ffffffffffffffffffffffffffffffffffffffff163373ffffffffffffffffffffffffffffffffffffffff16146107f9575f80fd5b6004546003546108099190610a35565b811115610814575f80fd5b8060045f8282546108259190610a02565b925050819055508173ffffffffffffffffffffffffffffffffffffffff166108fc8290811502906040515f60405180830381858888f1935050505015801561086f573d5f803e3d5ffd5b505050565b60045481565b5f819050919050565b61088c8161087a565b82525050565b5f6020820190506108a55f830184610883565b92915050565b5f73ffffffffffffffffffffffffffffffffffffffff82169050919050565b5f6108d4826108ab565b9050919050565b6108e4816108ca565b82525050565b5f6020820190506108fd5f8301846108db565b92915050565b5f80fd5b6109108161087a565b811461091a575f80fd5b50565b5f8135905061092b81610907565b92915050565b5f6020828403121561094657610945610903565b5b5f6109538482850161091d565b91505092915050565b5f610966826108ab565b9050919050565b6109768161095c565b8114610980575f80fd5b50565b5f813590506109918161096d565b92915050565b5f80604083850312156109ad576109ac610903565b5b5f6109ba85828601610983565b92505060206109cb8582860161091d565b9150509250929050565b7f4e487b71000000000000000000000000000000000000000000000000000000005f52601160045260245ffd5b5f610a0c8261087a565b9150610a178361087a565b9250828201905080821115610a2f57610a2e6109d5565b5b92915050565b5f610a3f8261087a565b9150610a4a8361087a565b9250828203905081811115610a6257610a616109d5565b5b9291505056fea2646970667358221220c89342812da0ffe915cbbfbeef1ffb9598cfa9702cb0d37151e90f345c32fb1f64736f6c634300081a0033",
					"opcodes": "PUSH1 0x80 PUSH1 0x40 MSTORE CALLVALUE DUP1 ISZERO PUSH1 0xE JUMPI PUSH0 DUP1 REVERT JUMPDEST POP CALLER PUSH1 0x5 PUSH0 PUSH2 0x100 EXP DUP2 SLOAD DUP2 PUSH20 0xFFFFFFFFFFFFFFFFFFFFFFFFFFFFFFFFFFFFFFFF MUL NOT AND SWAP1 DUP4 PUSH20 0xFFFFFFFFFFFFFFFFFFFFFFFFFFFFFFFFFFFFFFFF AND MUL OR SWAP1 SSTORE POP PUSH2 0xA9E DUP1 PUSH2 0x5C PUSH0 CODECOPY PUSH0 RETURN INVALID PUSH1 0x80 PUSH1 0x40 MSTORE PUSH1 0x4 CALLDATASIZE LT PUSH2 0xC1 JUMPI PUSH0 CALLDATALOAD PUSH1 0xE0 SHR DUP1 PUSH4 0xA0E57A31 GT PUSH2 0x7E JUMPI DUP1 PUSH4 0xD3DA43B3 GT PUSH2 0x58 JUMPI DUP1 PUSH4 0xD3DA43B3 EQ PUSH2 0x21B JUMPI DUP1 PUSH4 0xDD473D2B EQ PUSH2 0x245 JUMPI DUP1 PUSH4 0xFA863D30 EQ PUSH2 0x25B JUMPI DUP1 PUSH4 0xFECDE132 EQ PUSH2 0x283 JUMPI PUSH2 0xC1 JUMP JUMPDEST DUP1 PUSH4 0xA0E57A31 EQ PUSH2 0x19F JUMPI DUP1 PUSH4 0xA984D411 EQ PUSH2 0x1C9 JUMPI DUP1 PUSH4 0xC3F79C9F EQ PUSH2 0x1F1 JUMPI PUSH2 0xC1 JUMP JUMPDEST DUP1 PUSH4 0x57440D3 EQ PUSH2 0xC5 JUMPI DUP1 PUSH4 0x2ACE5A2E EQ PUSH2 0xEF JUMPI DUP1 PUSH4 0x384F58EB EQ PUSH2 0x119 JUMPI DUP1 PUSH4 0x637D89D4 EQ PUSH2 0x143 JUMPI DUP1 PUSH4 0x9A8318F4 EQ PUSH2 0x14D JUMPI DUP1 PUSH4 0x9FF8BA98 EQ PUSH2 0x177 JUMPI JUMPDEST PUSH0 DUP1 REVERT JUMPDEST CALLVALUE DUP1 ISZERO PUSH2 0xD0 JUMPI PUSH0 DUP1 REVERT JUMPDEST POP PUSH2 0xD9 PUSH2 0x2AD JUMP JUMPDEST PUSH1 0x40 MLOAD PUSH2 0xE6 SWAP2 SWAP1 PUSH2 0x892 JUMP JUMPDEST PUSH1 0x40 MLOAD DUP1 SWAP2 SUB SWAP1 RETURN JUMPDEST CALLVALUE DUP1 ISZERO PUSH2 0xFA JUMPI PUSH0 DUP1 REVERT JUMPDEST POP PUSH2 0x103 PUSH2 0x2B4 JUMP JUMPDEST PUSH1 0x40 MLOAD PUSH2 0x110 SWAP2 SWAP1 PUSH2 0x892 JUMP JUMPDEST PUSH1 0x40 MLOAD DUP1 SWAP2 SUB SWAP1 RETURN JUMPDEST CALLVALUE DUP1 ISZERO PUSH2 0x124 JUMPI PUSH0 DUP1 REVERT JUMPDEST POP PUSH2 0x12D PUSH2 0x2BA JUMP JUMPDEST PUSH1 0x40 MLOAD PUSH2 0x13A SWAP2 SWAP1 PUSH2 0x8EA JUMP JUMPDEST PUSH1 0x40 MLOAD DUP1 SWAP2 SUB SWAP1 RETURN JUMPDEST PUSH2 0x14B PUSH2 0x2E2 JUMP JUMPDEST STOP JUMPDEST CALLVALUE DUP1 ISZERO PUSH2 0x158 JUMPI PUSH0 DUP1 REVERT JUMPDEST POP PUSH2 0x161 PUSH2 0x39C JUMP JUMPDEST PUSH1 0x40 MLOAD PUSH2 0x16E SWAP2 SWAP1 PUSH2 0x892 JUMP JUMPDEST PUSH1 0x40 MLOAD DUP1 SWAP2 SUB SWAP1 RETURN JUMPDEST CALLVALUE DUP1 ISZERO PUSH2 0x182 JUMPI PUSH0 DUP1 REVERT JUMPDEST POP PUSH2 0x19D PUSH1 0x4 DUP1 CALLDATASIZE SUB DUP2 ADD SWAP1 PUSH2 0x198 SWAP2 SWAP1 PUSH2 0x931 JUMP JUMPDEST PUSH2 0x3A2 JUMP JUMPDEST STOP JUMPDEST CALLVALUE DUP1 ISZERO PUSH2 0x1AA JUMPI PUSH0 DUP1 REVERT JUMPDEST POP PUSH2 0x1B3 PUSH2 0x4CD JUMP JUMPDEST PUSH1 0x40 MLOAD PUSH2 0x1C0 SWAP2 SWAP1 PUSH2 0x892 JUMP JUMPDEST PUSH1 0x40 MLOAD DUP1 SWAP2 SUB SWAP1 RETURN JUMPDEST CALLVALUE DUP1 ISZERO PUSH2 0x1D4 JUMPI PUSH0 DUP1 REVERT JUMPDEST POP PUSH2 0x1EF PUSH1 0x4 DUP1 CALLDATASIZE SUB DUP2 ADD SWAP1 PUSH2 0x1EA SWAP2 SWAP1 PUSH2 0x931 JUMP JUMPDEST PUSH2 0x4E3 JUMP JUMPDEST STOP JUMPDEST CALLVALUE DUP1 ISZERO PUSH2 0x1FC JUMPI PUSH0 DUP1 REVERT JUMPDEST POP PUSH2 0x205 PUSH2 0x62A JUMP JUMPDEST PUSH1 0x40 MLOAD PUSH2 0x212 SWAP2 SWAP1 PUSH2 0x892 JUMP JUMPDEST PUSH1 0x40 MLOAD DUP1 SWAP2 SUB SWAP1 RETURN JUMPDEST CALLVALUE DUP1 ISZERO PUSH2 0x226 JUMPI PUSH0 DUP1 REVERT JUMPDEST POP PUSH2 0x22F PUSH2 0x630 JUMP JUMPDEST PUSH1 0x40 MLOAD PUSH2 0x23C SWAP2 SWAP1 PUSH2 0x892 JUMP JUMPDEST PUSH1 0x40 MLOAD DUP1 SWAP2 SUB SWAP1 RETURN JUMPDEST CALLVALUE DUP1 ISZERO PUSH2 0x250 JUMPI PUSH0 DUP1 REVERT JUMPDEST POP PUSH2 0x259 PUSH2 0x673 JUMP JUMPDEST STOP JUMPDEST CALLVALUE DUP1 ISZERO PUSH2 0x266 JUMPI PUSH0 DUP1 REVERT JUMPDEST POP PUSH2 0x281 PUSH1 0x4 DUP1 CALLDATASIZE SUB DUP2 ADD SWAP1 PUSH2 0x27C SWAP2 SWAP1 PUSH2 0x997 JUMP JUMPDEST PUSH2 0x7A1 JUMP JUMPDEST STOP JUMPDEST CALLVALUE DUP1 ISZERO PUSH2 0x28E JUMPI PUSH0 DUP1 REVERT JUMPDEST POP PUSH2 0x297 PUSH2 0x874 JUMP JUMPDEST PUSH1 0x40 MLOAD PUSH2 0x2A4 SWAP2 SWAP1 PUSH2 0x892 JUMP JUMPDEST PUSH1 0x40 MLOAD DUP1 SWAP2 SUB SWAP1 RETURN JUMPDEST PUSH0 SELFBALANCE SWAP1 POP SWAP1 JUMP JUMPDEST PUSH1 0x1 SLOAD DUP2 JUMP JUMPDEST PUSH0 PUSH1 0x5 PUSH0 SWAP1 SLOAD SWAP1 PUSH2 0x100 EXP SWAP1 DIV PUSH20 0xFFFFFFFFFFFFFFFFFFFFFFFFFFFFFFFFFFFFFFFF AND SWAP1 POP SWAP1 JUMP JUMPDEST CALLVALUE PUSH0 DUP1 CALLER PUSH20 0xFFFFFFFFFFFFFFFFFFFFFFFFFFFFFFFFFFFFFFFF AND PUSH20 0xFFFFFFFFFFFFFFFFFFFFFFFFFFFFFFFFFFFFFFFF AND DUP2 MSTORE PUSH1 0x20 ADD SWAP1 DUP2 MSTORE PUSH1 0x20 ADD PUSH0 KECCAK256 PUSH0 DUP3 DUP3 SLOAD PUSH2 0x32D SWAP2 SWAP1 PUSH2 0xA02 JUMP JUMPDEST SWAP3 POP POP DUP2 SWAP1 SSTORE POP CALLVALUE PUSH1 0x1 PUSH0 DUP3 DUP3 SLOAD PUSH2 0x345 SWAP2 SWAP1 PUSH2 0xA02 JUMP JUMPDEST SWAP3 POP POP DUP2 SWAP1 SSTORE POP CALLER PUSH20 0xFFFFFFFFFFFFFFFFFFFFFFFFFFFFFFFFFFFFFFFF AND PUSH32 0x35DB3D768E685509E031BAE369804CA7DC6656AF739E079F1D3312CADC7B19D8 CALLVALUE PUSH1 0x40 MLOAD PUSH2 0x392 SWAP2 SWAP1 PUSH2 0x892 JUMP JUMPDEST PUSH1 0x40 MLOAD DUP1 SWAP2 SUB SWAP1 LOG2 JUMP JUMPDEST PUSH1 0x2 SLOAD DUP2 JUMP JUMPDEST PUSH0 PUSH2 0x3AB PUSH2 0x630 JUMP JUMPDEST SWAP1 POP DUP2 DUP2 LT ISZERO PUSH2 0x3B9 JUMPI DUP1 SWAP2 POP JUMPDEST PUSH1 0x5 PUSH0 SWAP1 SLOAD SWAP1 PUSH2 0x100 EXP SWAP1 DIV PUSH20 0xFFFFFFFFFFFFFFFFFFFFFFFFFFFFFFFFFFFFFFFF AND PUSH20 0xFFFFFFFFFFFFFFFFFFFFFFFFFFFFFFFFFFFFFFFF AND CALLER PUSH20 0xFFFFFFFFFFFFFFFFFFFFFFFFFFFFFFFFFFFFFFFF AND EQ PUSH2 0x411 JUMPI PUSH0 DUP1 REVERT JUMPDEST DUP2 PUSH1 0x3 PUSH0 DUP3 DUP3 SLOAD PUSH2 0x422 SWAP2 SWAP1 PUSH2 0xA02 JUMP JUMPDEST SWAP3 POP POP DUP2 SWAP1 SSTORE POP DUP2 PUSH0 DUP1 CALLER PUSH20 0xFFFFFFFFFFFFFFFFFFFFFFFFFFFFFFFFFFFFFFFF AND PUSH20 0xFFFFFFFFFFFFFFFFFFFFFFFFFFFFFFFFFFFFFFFF AND DUP2 MSTORE PUSH1 0x20 ADD SWAP1 DUP2 MSTORE PUSH1 0x20 ADD PUSH0 KECCAK256 PUSH0 DUP3 DUP3 SLOAD PUSH2 0x474 SWAP2 SWAP1 PUSH2 0xA02 JUMP JUMPDEST SWAP3 POP POP DUP2 SWAP1 SSTORE POP CALLER PUSH20 0xFFFFFFFFFFFFFFFFFFFFFFFFFFFFFFFFFFFFFFFF AND PUSH32 0xC792F24E3F61F64FE1C3A705F0A25FDFE9A49C9C784D24C01D8EF2E17625A208 DUP4 PUSH1 0x40 MLOAD PUSH2 0x4C1 SWAP2 SWAP1 PUSH2 0x892 JUMP JUMPDEST PUSH1 0x40 MLOAD DUP1 SWAP2 SUB SWAP1 LOG2 POP POP JUMP JUMPDEST PUSH0 PUSH1 0x4 SLOAD PUSH1 0x3 SLOAD PUSH2 0x4DE SWAP2 SWAP1 PUSH2 0xA35 JUMP JUMPDEST SWAP1 POP SWAP1 JUMP JUMPDEST DUP1 PUSH0 DUP1 CALLER PUSH20 0xFFFFFFFFFFFFFFFFFFFFFFFFFFFFFFFFFFFFFFFF AND PUSH20 0xFFFFFFFFFFFFFFFFFFFFFFFFFFFFFFFFFFFFFFFF AND DUP2 MSTORE PUSH1 0x20 ADD SWAP1 DUP2 MSTORE PUSH1 0x20 ADD PUSH0 KECCAK256 SLOAD LT ISZERO PUSH2 0x52B JUMPI PUSH0 DUP1 REVERT JUMPDEST DUP1 PUSH1 0x2 PUSH0 DUP3 DUP3 SLOAD PUSH2 0x53C SWAP2 SWAP1 PUSH2 0xA02 JUMP JUMPDEST SWAP3 POP POP DUP2 SWAP1 SSTORE POP DUP1 PUSH0 DUP1 CALLER PUSH20 0xFFFFFFFFFFFFFFFFFFFFFFFFFFFFFFFFFFFFFFFF AND PUSH20 0xFFFFFFFFFFFFFFFFFFFFFFFFFFFFFFFFFFFFFFFF AND DUP2 MSTORE PUSH1 0x20 ADD SWAP1 DUP2 MSTORE PUSH1 0x20 ADD PUSH0 KECCAK256 PUSH0 DUP3 DUP3 SLOAD PUSH2 0x58E SWAP2 SWAP1 PUSH2 0xA35 JUMP JUMPDEST SWAP3 POP POP DUP2 SWAP1 SSTORE POP CALLER PUSH20 0xFFFFFFFFFFFFFFFFFFFFFFFFFFFFFFFFFFFFFFFF AND PUSH2 0x8FC DUP3 SWAP1 DUP2 ISZERO MUL SWAP1 PUSH1 0x40 MLOAD PUSH0 PUSH1 0x40 MLOAD DUP1 DUP4 SUB DUP2 DUP6 DUP9 DUP9 CALL SWAP4 POP POP POP POP ISZERO DUP1 ISZERO PUSH2 0x5D8 JUMPI RETURNDATASIZE PUSH0 DUP1 RETURNDATACOPY RETURNDATASIZE PUSH0 REVERT JUMPDEST POP CALLER PUSH20 0xFFFFFFFFFFFFFFFFFFFFFFFFFFFFFFFFFFFFFFFF AND PUSH32 0x98824D89D47225910D3E61AA38B640D29D58B43E2DC47B4D986A588C88E0A2A8 DUP3 PUSH1 0x40 MLOAD PUSH2 0x61F SWAP2 SWAP1 PUSH2 0x892 JUMP JUMPDEST PUSH1 0x40 MLOAD DUP1 SWAP2 SUB SWAP1 LOG2 POP JUMP JUMPDEST PUSH1 0x3 SLOAD DUP2 JUMP JUMPDEST PUSH0 DUP1 PUSH0 CALLER PUSH20 0xFFFFFFFFFFFFFFFFFFFFFFFFFFFFFFFFFFFFFFFF AND PUSH20 0xFFFFFFFFFFFFFFFFFFFFFFFFFFFFFFFFFFFFFFFF AND DUP2 MSTORE PUSH1 0x20 ADD SWAP1 DUP2 MSTORE PUSH1 0x20 ADD PUSH0 KECCAK256 SLOAD SWAP1 POP SWAP1 JUMP JUMPDEST PUSH0 DUP1 PUSH0 CALLER PUSH20 0xFFFFFFFFFFFFFFFFFFFFFFFFFFFFFFFFFFFFFFFF AND PUSH20 0xFFFFFFFFFFFFFFFFFFFFFFFFFFFFFFFFFFFFFFFF AND DUP2 MSTORE PUSH1 0x20 ADD SWAP1 DUP2 MSTORE PUSH1 0x20 ADD PUSH0 KECCAK256 SLOAD SWAP1 POP DUP1 PUSH1 0x2 PUSH0 DUP3 DUP3 SLOAD PUSH2 0x6C4 SWAP2 SWAP1 PUSH2 0xA02 JUMP JUMPDEST SWAP3 POP POP DUP2 SWAP1 SSTORE POP PUSH0 DUP1 PUSH0 CALLER PUSH20 0xFFFFFFFFFFFFFFFFFFFFFFFFFFFFFFFFFFFFFFFF AND PUSH20 0xFFFFFFFFFFFFFFFFFFFFFFFFFFFFFFFFFFFFFFFF AND DUP2 MSTORE PUSH1 0x20 ADD SWAP1 DUP2 MSTORE PUSH1 0x20 ADD PUSH0 KECCAK256 DUP2 SWAP1 SSTORE POP CALLER PUSH20 0xFFFFFFFFFFFFFFFFFFFFFFFFFFFFFFFFFFFFFFFF AND PUSH2 0x8FC DUP3 SWAP1 DUP2 ISZERO MUL SWAP1 PUSH1 0x40 MLOAD PUSH0 PUSH1 0x40 MLOAD DUP1 DUP4 SUB DUP2 DUP6 DUP9 DUP9 CALL SWAP4 POP POP POP POP ISZERO DUP1 ISZERO PUSH2 0x74F JUMPI RETURNDATASIZE PUSH0 DUP1 RETURNDATACOPY RETURNDATASIZE PUSH0 REVERT JUMPDEST POP CALLER PUSH20 0xFFFFFFFFFFFFFFFFFFFFFFFFFFFFFFFFFFFFFFFF AND PUSH32 0x98824D89D47225910D3E61AA38B640D29D58B43E2DC47B4D986A588C88E0A2A8 DUP3 PUSH1 0x40 MLOAD PUSH2 0x796 SWAP2 SWAP1 PUSH2 0x892 JUMP JUMPDEST PUSH1 0x40 MLOAD DUP1 SWAP2 SUB SWAP1 LOG2 POP JUMP JUMPDEST PUSH1 0x5 PUSH0 SWAP1 SLOAD SWAP1 PUSH2 0x100 EXP SWAP1 DIV PUSH20 0xFFFFFFFFFFFFFFFFFFFFFFFFFFFFFFFFFFFFFFFF AND PUSH20 0xFFFFFFFFFFFFFFFFFFFFFFFFFFFFFFFFFFFFFFFF AND CALLER PUSH20 0xFFFFFFFFFFFFFFFFFFFFFFFFFFFFFFFFFFFFFFFF AND EQ PUSH2 0x7F9 JUMPI PUSH0 DUP1 REVERT JUMPDEST PUSH1 0x4 SLOAD PUSH1 0x3 SLOAD PUSH2 0x809 SWAP2 SWAP1 PUSH2 0xA35 JUMP JUMPDEST DUP2 GT ISZERO PUSH2 0x814 JUMPI PUSH0 DUP1 REVERT JUMPDEST DUP1 PUSH1 0x4 PUSH0 DUP3 DUP3 SLOAD PUSH2 0x825 SWAP2 SWAP1 PUSH2 0xA02 JUMP JUMPDEST SWAP3 POP POP DUP2 SWAP1 SSTORE POP DUP2 PUSH20 0xFFFFFFFFFFFFFFFFFFFFFFFFFFFFFFFFFFFFFFFF AND PUSH2 0x8FC DUP3 SWAP1 DUP2 ISZERO MUL SWAP1 PUSH1 0x40 MLOAD PUSH0 PUSH1 0x40 MLOAD DUP1 DUP4 SUB DUP2 DUP6 DUP9 DUP9 CALL SWAP4 POP POP POP POP ISZERO DUP1 ISZERO PUSH2 0x86F JUMPI RETURNDATASIZE PUSH0 DUP1 RETURNDATACOPY RETURNDATASIZE PUSH0 REVERT JUMPDEST POP POP POP JUMP JUMPDEST PUSH1 0x4 SLOAD DUP2 JUMP JUMPDEST PUSH0 DUP2 SWAP1 POP SWAP2 SWAP1 POP JUMP JUMPDEST PUSH2 0x88C DUP2 PUSH2 0x87A JUMP JUMPDEST DUP3 MSTORE POP POP JUMP JUMPDEST PUSH0 PUSH1 0x20 DUP3 ADD SWAP1 POP PUSH2 0x8A5 PUSH0 DUP4 ADD DUP5 PUSH2 0x883 JUMP JUMPDEST SWAP3 SWAP2 POP POP JUMP JUMPDEST PUSH0 PUSH20 0xFFFFFFFFFFFFFFFFFFFFFFFFFFFFFFFFFFFFFFFF DUP3 AND SWAP1 POP SWAP2 SWAP1 POP JUMP JUMPDEST PUSH0 PUSH2 0x8D4 DUP3 PUSH2 0x8AB JUMP JUMPDEST SWAP1 POP SWAP2 SWAP1 POP JUMP JUMPDEST PUSH2 0x8E4 DUP2 PUSH2 0x8CA JUMP JUMPDEST DUP3 MSTORE POP POP JUMP JUMPDEST PUSH0 PUSH1 0x20 DUP3 ADD SWAP1 POP PUSH2 0x8FD PUSH0 DUP4 ADD DUP5 PUSH2 0x8DB JUMP JUMPDEST SWAP3 SWAP2 POP POP JUMP JUMPDEST PUSH0 DUP1 REVERT JUMPDEST PUSH2 0x910 DUP2 PUSH2 0x87A JUMP JUMPDEST DUP2 EQ PUSH2 0x91A JUMPI PUSH0 DUP1 REVERT JUMPDEST POP JUMP JUMPDEST PUSH0 DUP2 CALLDATALOAD SWAP1 POP PUSH2 0x92B DUP2 PUSH2 0x907 JUMP JUMPDEST SWAP3 SWAP2 POP POP JUMP JUMPDEST PUSH0 PUSH1 0x20 DUP3 DUP5 SUB SLT ISZERO PUSH2 0x946 JUMPI PUSH2 0x945 PUSH2 0x903 JUMP JUMPDEST JUMPDEST PUSH0 PUSH2 0x953 DUP5 DUP3 DUP6 ADD PUSH2 0x91D JUMP JUMPDEST SWAP2 POP POP SWAP3 SWAP2 POP POP JUMP JUMPDEST PUSH0 PUSH2 0x966 DUP3 PUSH2 0x8AB JUMP JUMPDEST SWAP1 POP SWAP2 SWAP1 POP JUMP JUMPDEST PUSH2 0x976 DUP2 PUSH2 0x95C JUMP JUMPDEST DUP2 EQ PUSH2 0x980 JUMPI PUSH0 DUP1 REVERT JUMPDEST POP JUMP JUMPDEST PUSH0 DUP2 CALLDATALOAD SWAP1 POP PUSH2 0x991 DUP2 PUSH2 0x96D JUMP JUMPDEST SWAP3 SWAP2 POP POP JUMP JUMPDEST PUSH0 DUP1 PUSH1 0x40 DUP4 DUP6 SUB SLT ISZERO PUSH2 0x9AD JUMPI PUSH2 0x9AC PUSH2 0x903 JUMP JUMPDEST JUMPDEST PUSH0 PUSH2 0x9BA DUP6 DUP3 DUP7 ADD PUSH2 0x983 JUMP JUMPDEST SWAP3 POP POP PUSH1 0x20 PUSH2 0x9CB DUP6 DUP3 DUP7 ADD PUSH2 0x91D JUMP JUMPDEST SWAP2 POP POP SWAP3 POP SWAP3 SWAP1 POP JUMP JUMPDEST PUSH32 0x4E487B7100000000000000000000000000000000000000000000000000000000 PUSH0 MSTORE PUSH1 0x11 PUSH1 0x4 MSTORE PUSH1 0x24 PUSH0 REVERT JUMPDEST PUSH0 PUSH2 0xA0C DUP3 PUSH2 0x87A JUMP JUMPDEST SWAP2 POP PUSH2 0xA17 DUP4 PUSH2 0x87A JUMP JUMPDEST SWAP3 POP DUP3 DUP3 ADD SWAP1 POP DUP1 DUP3 GT ISZERO PUSH2 0xA2F JUMPI PUSH2 0xA2E PUSH2 0x9D5 JUMP JUMPDEST JUMPDEST SWAP3 SWAP2 POP POP JUMP JUMPDEST PUSH0 PUSH2 0xA3F DUP3 PUSH2 0x87A JUMP JUMPDEST SWAP2 POP PUSH2 0xA4A DUP4 PUSH2 0x87A JUMP JUMPDEST SWAP3 POP DUP3 DUP3 SUB SWAP1 POP DUP2 DUP2 GT ISZERO PUSH2 0xA62 JUMPI PUSH2 0xA61 PUSH2 0x9D5 JUMP JUMPDEST JUMPDEST SWAP3 SWAP2 POP POP JUMP INVALID LOG2 PUSH5 0x6970667358 0x22 SLT KECCAK256 0xC8 SWAP4 TIMESTAMP DUP2 0x2D LOG0 SELFDESTRUCT 0xE9 ISZERO 0xCB 0xBF 0xBE 0xEF 0x1F 0xFB SWAP6 SWAP9 0xCF 0xA9 PUSH17 0x2CB0D37151E90F345C32FB1F64736F6C63 NUMBER STOP ADDMOD BYTE STOP CALLER "
				},
				"gasEstimates": {
					"creation": {
						"codeDepositCost": "543600",
						"executionCost": "24838",
						"totalCost": "568438"
					},
					"external": {
						"admin_balance()": "infinite",
						"admin_withdraw(address,uint256)": "infinite",
						"bill_user(uint256)": "infinite",
						"contract_balance()": "335",
						"contract_owner()": "2560",
						"total_admin_withdraw()": "2513",
						"total_bill()": "2492",
						"total_deposit()": "2448",
						"total_withdraw()": "2514",
						"user_balance()": "2541",
						"user_deposit()": "infinite",
						"user_withdraw(uint256)": "infinite",
						"withdraw_all()": "infinite"
					}
				},
				"methodIdentifiers": {
					"admin_balance()": "a0e57a31",
					"admin_withdraw(address,uint256)": "fa863d30",
					"bill_user(uint256)": "9ff8ba98",
					"contract_balance()": "057440d3",
					"contract_owner()": "384f58eb",
					"total_admin_withdraw()": "fecde132",
					"total_bill()": "c3f79c9f",
					"total_deposit()": "2ace5a2e",
					"total_withdraw()": "9a8318f4",
					"user_balance()": "d3da43b3",
					"user_deposit()": "637d89d4",
					"user_withdraw(uint256)": "a984d411",
					"withdraw_all()": "dd473d2b"
				}
			},
			"storageLayout": {
				"storage": [
					{
						"astId": 5,
						"contract": "contracts/Tok2tok.sol:Tok2tok",
						"label": "deposit",
						"offset": 0,
						"slot": "0",
						"type": "t_mapping(t_address,t_uint256)"
					},
					{
						"astId": 7,
						"contract": "contracts/Tok2tok.sol:Tok2tok",
						"label": "total_deposit",
						"offset": 0,
						"slot": "1",
						"type": "t_uint256"
					},
					{
						"astId": 9,
						"contract": "contracts/Tok2tok.sol:Tok2tok",
						"label": "total_withdraw",
						"offset": 0,
						"slot": "2",
						"type": "t_uint256"
					},
					{
						"astId": 11,
						"contract": "contracts/Tok2tok.sol:Tok2tok",
						"label": "total_bill",
						"offset": 0,
						"slot": "3",
						"type": "t_uint256"
					},
					{
						"astId": 13,
						"contract": "contracts/Tok2tok.sol:Tok2tok",
						"label": "total_admin_withdraw",
						"offset": 0,
						"slot": "4",
						"type": "t_uint256"
					},
					{
						"astId": 15,
						"contract": "contracts/Tok2tok.sol:Tok2tok",
						"label": "owner",
						"offset": 0,
						"slot": "5",
						"type": "t_address_payable"
					}
				],
				"types": {
					"t_address": {
						"encoding": "inplace",
						"label": "address",
						"numberOfBytes": "20"
					},
					"t_address_payable": {
						"encoding": "inplace",
						"label": "address payable",
						"numberOfBytes": "20"
					},
					"t_mapping(t_address,t_uint256)": {
						"encoding": "mapping",
						"key": "t_address",
						"label": "mapping(address => uint256)",
						"numberOfBytes": "32",
						"value": "t_uint256"
					},
					"t_uint256": {
						"encoding": "inplace",
						"label": "uint256",
						"numberOfBytes": "32"
					}
				}
			},
			"userdoc": {
				"kind": "user",
				"methods": {},
				"version": 1
			}
		}
	}
}