{
	"contracts/Tok2tok.sol": {
		"Tok2tok": {
			"abi": [
				{
					"inputs": [
						{
							"internalType": "address",
							"name": "_token",
							"type": "address"
						}
					],
					"stateMutability": "nonpayable",
					"type": "constructor"
				},
				{
					"anonymous": false,
					"inputs": [
						{
							"indexed": true,
							"internalType": "address",
							"name": "user",
							"type": "address"
						},
						{
							"indexed": false,
							"internalType": "uint256",
							"name": "amount",
							"type": "uint256"
						}
					],
					"name": "BillUser",
					"type": "event"
				},
				{
					"anonymous": false,
					"inputs": [
						{
							"indexed": true,
							"internalType": "address",
							"name": "user",
							"type": "address"
						},
						{
							"indexed": false,
							"internalType": "uint256",
							"name": "amount",
							"type": "uint256"
						}
					],
					"name": "UserDepositUSDC",
					"type": "event"
				},
				{
					"anonymous": false,
					"inputs": [
						{
							"indexed": true,
							"internalType": "address",
							"name": "user",
							"type": "address"
						}
					],
					"name": "UserLock",
					"type": "event"
				},
				{
					"anonymous": false,
					"inputs": [
						{
							"indexed": true,
							"internalType": "address",
							"name": "user",
							"type": "address"
						}
					],
					"name": "UserLockCancel",
					"type": "event"
				},
				{
					"anonymous": false,
					"inputs": [
						{
							"indexed": true,
							"internalType": "address",
							"name": "user",
							"type": "address"
						},
						{
							"indexed": false,
							"internalType": "uint256",
							"name": "amount",
							"type": "uint256"
						}
					],
					"name": "UserWithdrawUSDC",
					"type": "event"
				},
				{
					"inputs": [],
					"name": "admin_balance",
					"outputs": [
						{
							"internalType": "uint256",
							"name": "",
							"type": "uint256"
						}
					],
					"stateMutability": "view",
					"type": "function"
				},
				{
					"inputs": [
						{
							"internalType": "address payable",
							"name": "to",
							"type": "address"
						},
						{
							"internalType": "uint256",
							"name": "amount",
							"type": "uint256"
						}
					],
					"name": "admin_withdraw",
					"outputs": [],
					"stateMutability": "nonpayable",
					"type": "function"
				},
				{
					"inputs": [
						{
							"internalType": "address payable",
							"name": "to",
							"type": "address"
						},
						{
							"internalType": "uint256",
							"name": "amount",
							"type": "uint256"
						}
					],
					"name": "admin_withdraw_usdc",
					"outputs": [],
					"stateMutability": "nonpayable",
					"type": "function"
				},
				{
					"inputs": [
						{
							"internalType": "uint256",
							"name": "amount",
							"type": "uint256"
						}
					],
					"name": "bill_user",
					"outputs": [],
					"stateMutability": "nonpayable",
					"type": "function"
				},
				{
					"inputs": [],
					"name": "contract_balance",
					"outputs": [
						{
							"internalType": "uint256",
							"name": "",
							"type": "uint256"
						}
					],
					"stateMutability": "view",
					"type": "function"
				},
				{
					"inputs": [],
					"name": "contract_owner",
					"outputs": [
						{
							"internalType": "address",
							"name": "",
							"type": "address"
						}
					],
					"stateMutability": "view",
					"type": "function"
				},
				{
					"inputs": [],
					"name": "token",
					"outputs": [
						{
							"internalType": "address",
							"name": "",
							"type": "address"
						}
					],
					"stateMutability": "view",
					"type": "function"
				},
				{
					"inputs": [],
					"name": "total_admin_withdraw",
					"outputs": [
						{
							"internalType": "uint256",
							"name": "",
							"type": "uint256"
						}
					],
					"stateMutability": "view",
					"type": "function"
				},
				{
					"inputs": [],
					"name": "total_bill",
					"outputs": [
						{
							"internalType": "uint256",
							"name": "",
							"type": "uint256"
						}
					],
					"stateMutability": "view",
					"type": "function"
				},
				{
					"inputs": [],
					"name": "total_deposit",
					"outputs": [
						{
							"internalType": "uint256",
							"name": "",
							"type": "uint256"
						}
					],
					"stateMutability": "view",
					"type": "function"
				},
				{
					"inputs": [],
					"name": "total_withdraw",
					"outputs": [
						{
							"internalType": "uint256",
							"name": "",
							"type": "uint256"
						}
					],
					"stateMutability": "view",
					"type": "function"
				},
				{
					"inputs": [],
					"name": "user_balance",
					"outputs": [
						{
							"internalType": "uint256",
							"name": "",
							"type": "uint256"
						}
					],
					"stateMutability": "view",
					"type": "function"
				},
				{
					"inputs": [
						{
							"internalType": "uint256",
							"name": "_amount",
							"type": "uint256"
						}
					],
					"name": "user_deposit_usdc",
					"outputs": [],
					"stateMutability": "nonpayable",
					"type": "function"
				},
				{
					"inputs": [],
					"name": "user_has_token",
					"outputs": [
						{
							"internalType": "bool",
							"name": "",
							"type": "bool"
						}
					],
					"stateMutability": "view",
					"type": "function"
				},
				{
					"inputs": [],
					"name": "user_lock",
					"outputs": [],
					"stateMutability": "nonpayable",
					"type": "function"
				},
				{
					"inputs": [],
					"name": "user_lock_cancel",
					"outputs": [],
					"stateMutability": "nonpayable",
					"type": "function"
				},
				{
					"inputs": [
						{
							"internalType": "uint256",
							"name": "amount",
							"type": "uint256"
						}
					],
					"name": "user_withdraw",
					"outputs": [],
					"stateMutability": "nonpayable",
					"type": "function"
				},
				{
					"inputs": [],
					"name": "withdraw_all",
					"outputs": [],
					"stateMutability": "nonpayable",
					"type": "function"
				}
			],
			"devdoc": {
				"kind": "dev",
				"methods": {},
				"version": 1
			},
			"evm": {
				"assembly": "    /* \"contracts/Tok2tok.sol\":128:3657  contract Tok2tok {... */\n  mstore(0x40, 0x80)\n    /* \"contracts/Tok2tok.sol\":426:523  constructor (address _token) {... */\n  callvalue\n  dup1\n  iszero\n  tag_1\n  jumpi\n  0x00\n  dup1\n  revert\ntag_1:\n  pop\n  mload(0x40)\n  sub(codesize, bytecodeSize)\n  dup1\n  bytecodeSize\n  dup4\n  codecopy\n  dup2\n  dup2\n  add\n  0x40\n  mstore\n  dup2\n  add\n  swap1\n  tag_2\n  swap2\n  swap1\n  tag_3\n  jump\t// in\ntag_2:\n    /* \"contracts/Tok2tok.sol\":473:479  _token */\n  dup1\n    /* \"contracts/Tok2tok.sol\":465:470  token */\n  0x06\n  0x00\n    /* \"contracts/Tok2tok.sol\":465:479  token = _token */\n  0x0100\n  exp\n  dup2\n  sload\n  dup2\n  0xffffffffffffffffffffffffffffffffffffffff\n  mul\n  not\n  and\n  swap1\n  dup4\n  0xffffffffffffffffffffffffffffffffffffffff\n  and\n  mul\n  or\n  swap1\n  sstore\n  pop\n    /* \"contracts/Tok2tok.sol\":505:515  msg.sender */\n  caller\n    /* \"contracts/Tok2tok.sol\":489:494  owner */\n  0x07\n  0x00\n    /* \"contracts/Tok2tok.sol\":489:516  owner = payable(msg.sender) */\n  0x0100\n  exp\n  dup2\n  sload\n  dup2\n  0xffffffffffffffffffffffffffffffffffffffff\n  mul\n  not\n  and\n  swap1\n  dup4\n  0xffffffffffffffffffffffffffffffffffffffff\n  and\n  mul\n  or\n  swap1\n  sstore\n  pop\n    /* \"contracts/Tok2tok.sol\":426:523  constructor (address _token) {... */\n  pop\n    /* \"contracts/Tok2tok.sol\":128:3657  contract Tok2tok {... */\n  jump(tag_6)\n    /* \"#utility.yul\":88:205   */\ntag_8:\n    /* \"#utility.yul\":197:198   */\n  0x00\n    /* \"#utility.yul\":194:195   */\n  dup1\n    /* \"#utility.yul\":187:199   */\n  revert\n    /* \"#utility.yul\":334:460   */\ntag_10:\n    /* \"#utility.yul\":371:378   */\n  0x00\n    /* \"#utility.yul\":411:453   */\n  0xffffffffffffffffffffffffffffffffffffffff\n    /* \"#utility.yul\":404:409   */\n  dup3\n    /* \"#utility.yul\":400:454   */\n  and\n    /* \"#utility.yul\":389:454   */\n  swap1\n  pop\n    /* \"#utility.yul\":334:460   */\n  swap2\n  swap1\n  pop\n  jump\t// out\n    /* \"#utility.yul\":466:562   */\ntag_11:\n    /* \"#utility.yul\":503:510   */\n  0x00\n    /* \"#utility.yul\":532:556   */\n  tag_20\n    /* \"#utility.yul\":550:555   */\n  dup3\n    /* \"#utility.yul\":532:556   */\n  tag_10\n  jump\t// in\ntag_20:\n    /* \"#utility.yul\":521:556   */\n  swap1\n  pop\n    /* \"#utility.yul\":466:562   */\n  swap2\n  swap1\n  pop\n  jump\t// out\n    /* \"#utility.yul\":568:690   */\ntag_12:\n    /* \"#utility.yul\":641:665   */\n  tag_22\n    /* \"#utility.yul\":659:664   */\n  dup2\n    /* \"#utility.yul\":641:665   */\n  tag_11\n  jump\t// in\ntag_22:\n    /* \"#utility.yul\":634:639   */\n  dup2\n    /* \"#utility.yul\":631:666   */\n  eq\n    /* \"#utility.yul\":621:684   */\n  tag_23\n  jumpi\n    /* \"#utility.yul\":680:681   */\n  0x00\n    /* \"#utility.yul\":677:678   */\n  dup1\n    /* \"#utility.yul\":670:682   */\n  revert\n    /* \"#utility.yul\":621:684   */\ntag_23:\n    /* \"#utility.yul\":568:690   */\n  pop\n  jump\t// out\n    /* \"#utility.yul\":696:839   */\ntag_13:\n    /* \"#utility.yul\":753:758   */\n  0x00\n    /* \"#utility.yul\":784:790   */\n  dup2\n    /* \"#utility.yul\":778:791   */\n  mload\n    /* \"#utility.yul\":769:791   */\n  swap1\n  pop\n    /* \"#utility.yul\":800:833   */\n  tag_25\n    /* \"#utility.yul\":827:832   */\n  dup2\n    /* \"#utility.yul\":800:833   */\n  tag_12\n  jump\t// in\ntag_25:\n    /* \"#utility.yul\":696:839   */\n  swap3\n  swap2\n  pop\n  pop\n  jump\t// out\n    /* \"#utility.yul\":845:1196   */\ntag_3:\n    /* \"#utility.yul\":915:921   */\n  0x00\n    /* \"#utility.yul\":964:966   */\n  0x20\n    /* \"#utility.yul\":952:961   */\n  dup3\n    /* \"#utility.yul\":943:950   */\n  dup5\n    /* \"#utility.yul\":939:962   */\n  sub\n    /* \"#utility.yul\":935:967   */\n  slt\n    /* \"#utility.yul\":932:1051   */\n  iszero\n  tag_27\n  jumpi\n    /* \"#utility.yul\":970:1049   */\n  tag_28\n  tag_8\n  jump\t// in\ntag_28:\n    /* \"#utility.yul\":932:1051   */\ntag_27:\n    /* \"#utility.yul\":1090:1091   */\n  0x00\n    /* \"#utility.yul\":1115:1179   */\n  tag_29\n    /* \"#utility.yul\":1171:1178   */\n  dup5\n    /* \"#utility.yul\":1162:1168   */\n  dup3\n    /* \"#utility.yul\":1151:1160   */\n  dup6\n    /* \"#utility.yul\":1147:1169   */\n  add\n    /* \"#utility.yul\":1115:1179   */\n  tag_13\n  jump\t// in\ntag_29:\n    /* \"#utility.yul\":1105:1179   */\n  swap2\n  pop\n    /* \"#utility.yul\":1061:1189   */\n  pop\n    /* \"#utility.yul\":845:1196   */\n  swap3\n  swap2\n  pop\n  pop\n  jump\t// out\n    /* \"contracts/Tok2tok.sol\":128:3657  contract Tok2tok {... */\ntag_6:\n  dataSize(sub_0)\n  dup1\n  dataOffset(sub_0)\n  0x00\n  codecopy\n  0x00\n  return\nstop\n\nsub_0: assembly {\n        /* \"contracts/Tok2tok.sol\":128:3657  contract Tok2tok {... */\n      mstore(0x40, 0x80)\n      callvalue\n      dup1\n      iszero\n      tag_1\n      jumpi\n      0x00\n      dup1\n      revert\n    tag_1:\n      pop\n      jumpi(tag_2, lt(calldatasize, 0x04))\n      shr(0xe0, calldataload(0x00))\n      dup1\n      0xc3f79c9f\n      gt\n      tag_21\n      jumpi\n      dup1\n      0xf245ee7d\n      gt\n      tag_22\n      jumpi\n      dup1\n      0xf245ee7d\n      eq\n      tag_16\n      jumpi\n      dup1\n      0xfa863d30\n      eq\n      tag_17\n      jumpi\n      dup1\n      0xfc0c546a\n      eq\n      tag_18\n      jumpi\n      dup1\n      0xfecde132\n      eq\n      tag_19\n      jumpi\n      dup1\n      0xff781046\n      eq\n      tag_20\n      jumpi\n      jump(tag_2)\n    tag_22:\n      dup1\n      0xc3f79c9f\n      eq\n      tag_12\n      jumpi\n      dup1\n      0xd3da43b3\n      eq\n      tag_13\n      jumpi\n      dup1\n      0xdd473d2b\n      eq\n      tag_14\n      jumpi\n      dup1\n      0xe5fa5472\n      eq\n      tag_15\n      jumpi\n      jump(tag_2)\n    tag_21:\n      dup1\n      0x6f7bda33\n      gt\n      tag_23\n      jumpi\n      dup1\n      0x6f7bda33\n      eq\n      tag_7\n      jumpi\n      dup1\n      0x9a8318f4\n      eq\n      tag_8\n      jumpi\n      dup1\n      0x9ff8ba98\n      eq\n      tag_9\n      jumpi\n      dup1\n      0xa0e57a31\n      eq\n      tag_10\n      jumpi\n      dup1\n      0xa984d411\n      eq\n      tag_11\n      jumpi\n      jump(tag_2)\n    tag_23:\n      dup1\n      0x057440d3\n      eq\n      tag_3\n      jumpi\n      dup1\n      0x2ace5a2e\n      eq\n      tag_4\n      jumpi\n      dup1\n      0x384f58eb\n      eq\n      tag_5\n      jumpi\n      dup1\n      0x3fec9699\n      eq\n      tag_6\n      jumpi\n    tag_2:\n      0x00\n      dup1\n      revert\n        /* \"contracts/Tok2tok.sol\":3245:3366  function contract_balance () public view returns (uint256) {... */\n    tag_3:\n      tag_24\n      tag_25\n      jump\t// in\n    tag_24:\n      mload(0x40)\n      tag_26\n      swap2\n      swap1\n      tag_27\n      jump\t// in\n    tag_26:\n      mload(0x40)\n      dup1\n      swap2\n      sub\n      swap1\n      return\n        /* \"contracts/Tok2tok.sol\":229:257  uint256 public total_deposit */\n    tag_4:\n      tag_28\n      tag_29\n      jump\t// in\n    tag_28:\n      mload(0x40)\n      tag_30\n      swap2\n      swap1\n      tag_27\n      jump\t// in\n    tag_30:\n      mload(0x40)\n      dup1\n      swap2\n      sub\n      swap1\n      return\n        /* \"contracts/Tok2tok.sol\":3372:3458  function contract_owner () public view returns (address) {... */\n    tag_5:\n      tag_31\n      tag_32\n      jump\t// in\n    tag_31:\n      mload(0x40)\n      tag_33\n      swap2\n      swap1\n      tag_34\n      jump\t// in\n    tag_33:\n      mload(0x40)\n      dup1\n      swap2\n      sub\n      swap1\n      return\n        /* \"contracts/Tok2tok.sol\":1078:1192  function user_lock_cancel () public {... */\n    tag_6:\n      tag_35\n      tag_36\n      jump\t// in\n    tag_35:\n      stop\n        /* \"contracts/Tok2tok.sol\":2605:2828  function admin_withdraw_usdc(address payable to, uint256 amount) public {... */\n    tag_7:\n      tag_37\n      0x04\n      dup1\n      calldatasize\n      sub\n      dup2\n      add\n      swap1\n      tag_38\n      swap2\n      swap1\n      tag_39\n      jump\t// in\n    tag_38:\n      tag_40\n      jump\t// in\n    tag_37:\n      stop\n        /* \"contracts/Tok2tok.sol\":263:292  uint256 public total_withdraw */\n    tag_8:\n      tag_41\n      tag_42\n      jump\t// in\n    tag_41:\n      mload(0x40)\n      tag_43\n      swap2\n      swap1\n      tag_27\n      jump\t// in\n    tag_43:\n      mload(0x40)\n      dup1\n      swap2\n      sub\n      swap1\n      return\n        /* \"contracts/Tok2tok.sol\":2285:2599  function bill_user (uint256 amount) public {... */\n    tag_9:\n      tag_44\n      0x04\n      dup1\n      calldatasize\n      sub\n      dup2\n      add\n      swap1\n      tag_45\n      swap2\n      swap1\n      tag_46\n      jump\t// in\n    tag_45:\n      tag_47\n      jump\t// in\n    tag_44:\n      stop\n        /* \"contracts/Tok2tok.sol\":3022:3135  function admin_balance () public view returns (uint256) {... */\n    tag_10:\n      tag_48\n      tag_49\n      jump\t// in\n    tag_48:\n      mload(0x40)\n      tag_50\n      swap2\n      swap1\n      tag_27\n      jump\t// in\n    tag_50:\n      mload(0x40)\n      dup1\n      swap2\n      sub\n      swap1\n      return\n        /* \"contracts/Tok2tok.sol\":1265:1776  function user_withdraw (uint256 amount) public {... */\n    tag_11:\n      tag_51\n      0x04\n      dup1\n      calldatasize\n      sub\n      dup2\n      add\n      swap1\n      tag_52\n      swap2\n      swap1\n      tag_46\n      jump\t// in\n    tag_52:\n      tag_53\n      jump\t// in\n    tag_51:\n      stop\n        /* \"contracts/Tok2tok.sol\":298:323  uint256 public total_bill */\n    tag_12:\n      tag_54\n      tag_55\n      jump\t// in\n    tag_54:\n      mload(0x40)\n      tag_56\n      swap2\n      swap1\n      tag_27\n      jump\t// in\n    tag_56:\n      mload(0x40)\n      dup1\n      swap2\n      sub\n      swap1\n      return\n        /* \"contracts/Tok2tok.sol\":3141:3239  function user_balance () public view returns (uint256) {... */\n    tag_13:\n      tag_57\n      tag_58\n      jump\t// in\n    tag_57:\n      mload(0x40)\n      tag_59\n      swap2\n      swap1\n      tag_27\n      jump\t// in\n    tag_59:\n      mload(0x40)\n      dup1\n      swap2\n      sub\n      swap1\n      return\n        /* \"contracts/Tok2tok.sol\":1782:2216  function withdraw_all () public {... */\n    tag_14:\n      tag_60\n      tag_61\n      jump\t// in\n    tag_60:\n      stop\n        /* \"contracts/Tok2tok.sol\":3464:3654  function user_has_token () public view returns (bool) {... */\n    tag_15:\n      tag_62\n      tag_63\n      jump\t// in\n    tag_62:\n      mload(0x40)\n      tag_64\n      swap2\n      swap1\n      tag_65\n      jump\t// in\n    tag_64:\n      mload(0x40)\n      dup1\n      swap2\n      sub\n      swap1\n      return\n        /* \"contracts/Tok2tok.sol\":595:860  function user_deposit_usdc (uint256 _amount) public {... */\n    tag_16:\n      tag_66\n      0x04\n      dup1\n      calldatasize\n      sub\n      dup2\n      add\n      swap1\n      tag_67\n      swap2\n      swap1\n      tag_46\n      jump\t// in\n    tag_67:\n      tag_68\n      jump\t// in\n    tag_66:\n      stop\n        /* \"contracts/Tok2tok.sol\":2834:3016  function admin_withdraw (address payable to, uint256 amount) public {... */\n    tag_17:\n      tag_69\n      0x04\n      dup1\n      calldatasize\n      sub\n      dup2\n      add\n      swap1\n      tag_70\n      swap2\n      swap1\n      tag_39\n      jump\t// in\n    tag_70:\n      tag_71\n      jump\t// in\n    tag_69:\n      stop\n        /* \"contracts/Tok2tok.sol\":370:390  address public token */\n    tag_18:\n      tag_72\n      tag_73\n      jump\t// in\n    tag_72:\n      mload(0x40)\n      tag_74\n      swap2\n      swap1\n      tag_34\n      jump\t// in\n    tag_74:\n      mload(0x40)\n      dup1\n      swap2\n      sub\n      swap1\n      return\n        /* \"contracts/Tok2tok.sol\":329:364  uint256 public total_admin_withdraw */\n    tag_19:\n      tag_75\n      tag_76\n      jump\t// in\n    tag_75:\n      mload(0x40)\n      tag_77\n      swap2\n      swap1\n      tag_27\n      jump\t// in\n    tag_77:\n      mload(0x40)\n      dup1\n      swap2\n      sub\n      swap1\n      return\n        /* \"contracts/Tok2tok.sol\":957:1072  function user_lock () public {... */\n    tag_20:\n      tag_78\n      tag_79\n      jump\t// in\n    tag_78:\n      stop\n        /* \"contracts/Tok2tok.sol\":3245:3366  function contract_balance () public view returns (uint256) {... */\n    tag_25:\n        /* \"contracts/Tok2tok.sol\":3295:3302  uint256 */\n      0x00\n        /* \"contracts/Tok2tok.sol\":3328:3333  token */\n      0x06\n      0x00\n      swap1\n      sload\n      swap1\n      0x0100\n      exp\n      swap1\n      div\n      0xffffffffffffffffffffffffffffffffffffffff\n      and\n        /* \"contracts/Tok2tok.sol\":3321:3344  IERC20(token).balanceOf */\n      0xffffffffffffffffffffffffffffffffffffffff\n      and\n      0x70a08231\n        /* \"contracts/Tok2tok.sol\":3353:3357  this */\n      address\n        /* \"contracts/Tok2tok.sol\":3321:3359  IERC20(token).balanceOf(address(this)) */\n      mload(0x40)\n      dup3\n      0xffffffff\n      and\n      0xe0\n      shl\n      dup2\n      mstore\n      0x04\n      add\n      tag_81\n      swap2\n      swap1\n      tag_34\n      jump\t// in\n    tag_81:\n      0x20\n      mload(0x40)\n      dup1\n      dup4\n      sub\n      dup2\n      dup7\n      gas\n      staticcall\n      iszero\n      dup1\n      iszero\n      tag_83\n      jumpi\n      returndatasize\n      0x00\n      dup1\n      returndatacopy\n      revert(0x00, returndatasize)\n    tag_83:\n      pop\n      pop\n      pop\n      pop\n      mload(0x40)\n      returndatasize\n      not(0x1f)\n      0x1f\n      dup3\n      add\n      and\n      dup3\n      add\n      dup1\n      0x40\n      mstore\n      pop\n      dup2\n      add\n      swap1\n      tag_84\n      swap2\n      swap1\n      tag_85\n      jump\t// in\n    tag_84:\n        /* \"contracts/Tok2tok.sol\":3314:3359  return IERC20(token).balanceOf(address(this)) */\n      swap1\n      pop\n        /* \"contracts/Tok2tok.sol\":3245:3366  function contract_balance () public view returns (uint256) {... */\n      swap1\n      jump\t// out\n        /* \"contracts/Tok2tok.sol\":229:257  uint256 public total_deposit */\n    tag_29:\n      sload(0x02)\n      dup2\n      jump\t// out\n        /* \"contracts/Tok2tok.sol\":3372:3458  function contract_owner () public view returns (address) {... */\n    tag_32:\n        /* \"contracts/Tok2tok.sol\":3420:3427  address */\n      0x00\n        /* \"contracts/Tok2tok.sol\":3446:3451  owner */\n      0x07\n      0x00\n      swap1\n      sload\n      swap1\n      0x0100\n      exp\n      swap1\n      div\n      0xffffffffffffffffffffffffffffffffffffffff\n      and\n        /* \"contracts/Tok2tok.sol\":3439:3451  return owner */\n      swap1\n      pop\n        /* \"contracts/Tok2tok.sol\":3372:3458  function contract_owner () public view returns (address) {... */\n      swap1\n      jump\t// out\n        /* \"contracts/Tok2tok.sol\":1078:1192  function user_lock_cancel () public {... */\n    tag_36:\n        /* \"contracts/Tok2tok.sol\":1143:1144  0 */\n      0x00\n        /* \"contracts/Tok2tok.sol\":1124:1128  lock */\n      0x01\n        /* \"contracts/Tok2tok.sol\":1124:1140  lock[msg.sender] */\n      0x00\n        /* \"contracts/Tok2tok.sol\":1129:1139  msg.sender */\n      caller\n        /* \"contracts/Tok2tok.sol\":1124:1140  lock[msg.sender] */\n      0xffffffffffffffffffffffffffffffffffffffff\n      and\n      0xffffffffffffffffffffffffffffffffffffffff\n      and\n      dup2\n      mstore\n      0x20\n      add\n      swap1\n      dup2\n      mstore\n      0x20\n      add\n      0x00\n      keccak256\n        /* \"contracts/Tok2tok.sol\":1124:1144  lock[msg.sender] = 0 */\n      dup2\n      swap1\n      sstore\n      pop\n        /* \"contracts/Tok2tok.sol\":1174:1184  msg.sender */\n      caller\n        /* \"contracts/Tok2tok.sol\":1159:1185  UserLockCancel(msg.sender) */\n      0xffffffffffffffffffffffffffffffffffffffff\n      and\n      0x9cb6db6786f389731093894570fd263c746cf1019d0d02ab9c4c35ad747f0e2c\n      mload(0x40)\n      mload(0x40)\n      dup1\n      swap2\n      sub\n      swap1\n      log2\n        /* \"contracts/Tok2tok.sol\":1078:1192  function user_lock_cancel () public {... */\n      jump\t// out\n        /* \"contracts/Tok2tok.sol\":2605:2828  function admin_withdraw_usdc(address payable to, uint256 amount) public {... */\n    tag_40:\n        /* \"contracts/Tok2tok.sol\":2709:2714  owner */\n      0x07\n      0x00\n      swap1\n      sload\n      swap1\n      0x0100\n      exp\n      swap1\n      div\n      0xffffffffffffffffffffffffffffffffffffffff\n      and\n        /* \"contracts/Tok2tok.sol\":2695:2714  msg.sender == owner */\n      0xffffffffffffffffffffffffffffffffffffffff\n      and\n        /* \"contracts/Tok2tok.sol\":2695:2705  msg.sender */\n      caller\n        /* \"contracts/Tok2tok.sol\":2695:2714  msg.sender == owner */\n      0xffffffffffffffffffffffffffffffffffffffff\n      and\n      eq\n        /* \"contracts/Tok2tok.sol\":2687:2715  require(msg.sender == owner) */\n      tag_89\n      jumpi\n      0x00\n      dup1\n      revert\n    tag_89:\n        /* \"contracts/Tok2tok.sol\":2756:2776  total_admin_withdraw */\n      sload(0x05)\n        /* \"contracts/Tok2tok.sol\":2743:2753  total_bill */\n      sload(0x04)\n        /* \"contracts/Tok2tok.sol\":2743:2776  total_bill - total_admin_withdraw */\n      tag_90\n      swap2\n      swap1\n      tag_91\n      jump\t// in\n    tag_90:\n        /* \"contracts/Tok2tok.sol\":2733:2739  amount */\n      dup2\n        /* \"contracts/Tok2tok.sol\":2733:2776  amount <= total_bill - total_admin_withdraw */\n      gt\n      iszero\n        /* \"contracts/Tok2tok.sol\":2725:2777  require(amount <= total_bill - total_admin_withdraw) */\n      tag_92\n      jumpi\n      0x00\n      dup1\n      revert\n    tag_92:\n        /* \"contracts/Tok2tok.sol\":2794:2799  token */\n      0x06\n      0x00\n      swap1\n      sload\n      swap1\n      0x0100\n      exp\n      swap1\n      div\n      0xffffffffffffffffffffffffffffffffffffffff\n      and\n        /* \"contracts/Tok2tok.sol\":2787:2809  IERC20(token).transfer */\n      0xffffffffffffffffffffffffffffffffffffffff\n      and\n      0xa9059cbb\n        /* \"contracts/Tok2tok.sol\":2810:2812  to */\n      dup4\n        /* \"contracts/Tok2tok.sol\":2814:2820  amount */\n      dup4\n        /* \"contracts/Tok2tok.sol\":2787:2821  IERC20(token).transfer(to, amount) */\n      mload(0x40)\n      dup4\n      0xffffffff\n      and\n      0xe0\n      shl\n      dup2\n      mstore\n      0x04\n      add\n      tag_93\n      swap3\n      swap2\n      swap1\n      tag_94\n      jump\t// in\n    tag_93:\n      0x20\n      mload(0x40)\n      dup1\n      dup4\n      sub\n      dup2\n      0x00\n      dup8\n      gas\n      call\n      iszero\n      dup1\n      iszero\n      tag_96\n      jumpi\n      returndatasize\n      0x00\n      dup1\n      returndatacopy\n      revert(0x00, returndatasize)\n    tag_96:\n      pop\n      pop\n      pop\n      pop\n      mload(0x40)\n      returndatasize\n      not(0x1f)\n      0x1f\n      dup3\n      add\n      and\n      dup3\n      add\n      dup1\n      0x40\n      mstore\n      pop\n      dup2\n      add\n      swap1\n      tag_97\n      swap2\n      swap1\n      tag_98\n      jump\t// in\n    tag_97:\n      pop\n        /* \"contracts/Tok2tok.sol\":2605:2828  function admin_withdraw_usdc(address payable to, uint256 amount) public {... */\n      pop\n      pop\n      jump\t// out\n        /* \"contracts/Tok2tok.sol\":263:292  uint256 public total_withdraw */\n    tag_42:\n      sload(0x03)\n      dup2\n      jump\t// out\n        /* \"contracts/Tok2tok.sol\":2285:2599  function bill_user (uint256 amount) public {... */\n    tag_47:\n        /* \"contracts/Tok2tok.sol\":2338:2353  uint256 balance */\n      0x00\n        /* \"contracts/Tok2tok.sol\":2356:2370  user_balance() */\n      tag_100\n        /* \"contracts/Tok2tok.sol\":2356:2368  user_balance */\n      tag_58\n        /* \"contracts/Tok2tok.sol\":2356:2370  user_balance() */\n      jump\t// in\n    tag_100:\n        /* \"contracts/Tok2tok.sol\":2338:2370  uint256 balance = user_balance() */\n      swap1\n      pop\n        /* \"contracts/Tok2tok.sol\":2394:2400  amount */\n      dup2\n        /* \"contracts/Tok2tok.sol\":2384:2391  balance */\n      dup2\n        /* \"contracts/Tok2tok.sol\":2384:2400  balance < amount */\n      lt\n        /* \"contracts/Tok2tok.sol\":2380:2443  if (balance < amount) {... */\n      iszero\n      tag_101\n      jumpi\n        /* \"contracts/Tok2tok.sol\":2425:2432  balance */\n      dup1\n        /* \"contracts/Tok2tok.sol\":2416:2432  amount = balance */\n      swap2\n      pop\n        /* \"contracts/Tok2tok.sol\":2380:2443  if (balance < amount) {... */\n    tag_101:\n        /* \"contracts/Tok2tok.sol\":2474:2479  owner */\n      0x07\n      0x00\n      swap1\n      sload\n      swap1\n      0x0100\n      exp\n      swap1\n      div\n      0xffffffffffffffffffffffffffffffffffffffff\n      and\n        /* \"contracts/Tok2tok.sol\":2460:2479  msg.sender == owner */\n      0xffffffffffffffffffffffffffffffffffffffff\n      and\n        /* \"contracts/Tok2tok.sol\":2460:2470  msg.sender */\n      caller\n        /* \"contracts/Tok2tok.sol\":2460:2479  msg.sender == owner */\n      0xffffffffffffffffffffffffffffffffffffffff\n      and\n      eq\n        /* \"contracts/Tok2tok.sol\":2452:2480  require(msg.sender == owner) */\n      tag_102\n      jumpi\n      0x00\n      dup1\n      revert\n    tag_102:\n        /* \"contracts/Tok2tok.sol\":2504:2510  amount */\n      dup2\n        /* \"contracts/Tok2tok.sol\":2490:2500  total_bill */\n      0x04\n      0x00\n        /* \"contracts/Tok2tok.sol\":2490:2510  total_bill += amount */\n      dup3\n      dup3\n      sload\n      tag_103\n      swap2\n      swap1\n      tag_104\n      jump\t// in\n    tag_103:\n      swap3\n      pop\n      pop\n      dup2\n      swap1\n      sstore\n      pop\n        /* \"contracts/Tok2tok.sol\":2543:2549  amount */\n      dup2\n        /* \"contracts/Tok2tok.sol\":2520:2527  deposit */\n      0x00\n        /* \"contracts/Tok2tok.sol\":2520:2539  deposit[msg.sender] */\n      dup1\n        /* \"contracts/Tok2tok.sol\":2528:2538  msg.sender */\n      caller\n        /* \"contracts/Tok2tok.sol\":2520:2539  deposit[msg.sender] */\n      0xffffffffffffffffffffffffffffffffffffffff\n      and\n      0xffffffffffffffffffffffffffffffffffffffff\n      and\n      dup2\n      mstore\n      0x20\n      add\n      swap1\n      dup2\n      mstore\n      0x20\n      add\n      0x00\n      keccak256\n      0x00\n        /* \"contracts/Tok2tok.sol\":2520:2549  deposit[msg.sender] -= amount */\n      dup3\n      dup3\n      sload\n      tag_105\n      swap2\n      swap1\n      tag_91\n      jump\t// in\n    tag_105:\n      swap3\n      pop\n      pop\n      dup2\n      swap1\n      sstore\n      pop\n        /* \"contracts/Tok2tok.sol\":2573:2583  msg.sender */\n      caller\n        /* \"contracts/Tok2tok.sol\":2564:2592  BillUser(msg.sender, amount) */\n      0xffffffffffffffffffffffffffffffffffffffff\n      and\n      0xc792f24e3f61f64fe1c3a705f0a25fdfe9a49c9c784d24c01d8ef2e17625a208\n        /* \"contracts/Tok2tok.sol\":2585:2591  amount */\n      dup4\n        /* \"contracts/Tok2tok.sol\":2564:2592  BillUser(msg.sender, amount) */\n      mload(0x40)\n      tag_106\n      swap2\n      swap1\n      tag_27\n      jump\t// in\n    tag_106:\n      mload(0x40)\n      dup1\n      swap2\n      sub\n      swap1\n      log2\n        /* \"contracts/Tok2tok.sol\":2328:2599  {... */\n      pop\n        /* \"contracts/Tok2tok.sol\":2285:2599  function bill_user (uint256 amount) public {... */\n      pop\n      jump\t// out\n        /* \"contracts/Tok2tok.sol\":3022:3135  function admin_balance () public view returns (uint256) {... */\n    tag_49:\n        /* \"contracts/Tok2tok.sol\":3069:3076  uint256 */\n      0x00\n        /* \"contracts/Tok2tok.sol\":3108:3128  total_admin_withdraw */\n      sload(0x05)\n        /* \"contracts/Tok2tok.sol\":3095:3105  total_bill */\n      sload(0x04)\n        /* \"contracts/Tok2tok.sol\":3095:3128  total_bill - total_admin_withdraw */\n      tag_108\n      swap2\n      swap1\n      tag_91\n      jump\t// in\n    tag_108:\n        /* \"contracts/Tok2tok.sol\":3088:3128  return total_bill - total_admin_withdraw */\n      swap1\n      pop\n        /* \"contracts/Tok2tok.sol\":3022:3135  function admin_balance () public view returns (uint256) {... */\n      swap1\n      jump\t// out\n        /* \"contracts/Tok2tok.sol\":1265:1776  function user_withdraw (uint256 amount) public {... */\n    tag_53:\n        /* \"contracts/Tok2tok.sol\":1353:1359  amount */\n      dup1\n        /* \"contracts/Tok2tok.sol\":1330:1337  deposit */\n      0x00\n        /* \"contracts/Tok2tok.sol\":1330:1349  deposit[msg.sender] */\n      dup1\n        /* \"contracts/Tok2tok.sol\":1338:1348  msg.sender */\n      caller\n        /* \"contracts/Tok2tok.sol\":1330:1349  deposit[msg.sender] */\n      0xffffffffffffffffffffffffffffffffffffffff\n      and\n      0xffffffffffffffffffffffffffffffffffffffff\n      and\n      dup2\n      mstore\n      0x20\n      add\n      swap1\n      dup2\n      mstore\n      0x20\n      add\n      0x00\n      keccak256\n      sload\n        /* \"contracts/Tok2tok.sol\":1330:1359  deposit[msg.sender] >= amount */\n      lt\n      iszero\n        /* \"contracts/Tok2tok.sol\":1322:1384  require(deposit[msg.sender] >= amount, \"Insufficient balance\") */\n      tag_110\n      jumpi\n      mload(0x40)\n      0x08c379a000000000000000000000000000000000000000000000000000000000\n      dup2\n      mstore\n      0x04\n      add\n      tag_111\n      swap1\n      tag_112\n      jump\t// in\n    tag_111:\n      mload(0x40)\n      dup1\n      swap2\n      sub\n      swap1\n      revert\n    tag_110:\n        /* \"contracts/Tok2tok.sol\":1439:1448  1 minutes */\n      0x3c\n        /* \"contracts/Tok2tok.sol\":1420:1424  lock */\n      0x01\n        /* \"contracts/Tok2tok.sol\":1420:1436  lock[msg.sender] */\n      0x00\n        /* \"contracts/Tok2tok.sol\":1425:1435  msg.sender */\n      caller\n        /* \"contracts/Tok2tok.sol\":1420:1436  lock[msg.sender] */\n      0xffffffffffffffffffffffffffffffffffffffff\n      and\n      0xffffffffffffffffffffffffffffffffffffffff\n      and\n      dup2\n      mstore\n      0x20\n      add\n      swap1\n      dup2\n      mstore\n      0x20\n      add\n      0x00\n      keccak256\n      sload\n        /* \"contracts/Tok2tok.sol\":1402:1417  block.timestamp */\n      timestamp\n        /* \"contracts/Tok2tok.sol\":1402:1436  block.timestamp - lock[msg.sender] */\n      tag_113\n      swap2\n      swap1\n      tag_91\n      jump\t// in\n    tag_113:\n        /* \"contracts/Tok2tok.sol\":1402:1448  block.timestamp - lock[msg.sender] > 1 minutes */\n      gt\n        /* \"contracts/Tok2tok.sol\":1394:1470  require(block.timestamp - lock[msg.sender] > 1 minutes, \"Withdrawal locked\") */\n      tag_114\n      jumpi\n      mload(0x40)\n      0x08c379a000000000000000000000000000000000000000000000000000000000\n      dup2\n      mstore\n      0x04\n      add\n      tag_115\n      swap1\n      tag_116\n      jump\t// in\n    tag_115:\n      mload(0x40)\n      dup1\n      swap2\n      sub\n      swap1\n      revert\n    tag_114:\n        /* \"contracts/Tok2tok.sol\":1525:1532  1 hours */\n      0x0e10\n        /* \"contracts/Tok2tok.sol\":1506:1510  lock */\n      0x01\n        /* \"contracts/Tok2tok.sol\":1506:1522  lock[msg.sender] */\n      0x00\n        /* \"contracts/Tok2tok.sol\":1511:1521  msg.sender */\n      caller\n        /* \"contracts/Tok2tok.sol\":1506:1522  lock[msg.sender] */\n      0xffffffffffffffffffffffffffffffffffffffff\n      and\n      0xffffffffffffffffffffffffffffffffffffffff\n      and\n      dup2\n      mstore\n      0x20\n      add\n      swap1\n      dup2\n      mstore\n      0x20\n      add\n      0x00\n      keccak256\n      sload\n        /* \"contracts/Tok2tok.sol\":1488:1503  block.timestamp */\n      timestamp\n        /* \"contracts/Tok2tok.sol\":1488:1522  block.timestamp - lock[msg.sender] */\n      tag_117\n      swap2\n      swap1\n      tag_91\n      jump\t// in\n    tag_117:\n        /* \"contracts/Tok2tok.sol\":1488:1532  block.timestamp - lock[msg.sender] < 1 hours */\n      lt\n        /* \"contracts/Tok2tok.sol\":1480:1554  require(block.timestamp - lock[msg.sender] < 1 hours, \"Withdrawal locked\") */\n      tag_118\n      jumpi\n      mload(0x40)\n      0x08c379a000000000000000000000000000000000000000000000000000000000\n      dup2\n      mstore\n      0x04\n      add\n      tag_119\n      swap1\n      tag_116\n      jump\t// in\n    tag_119:\n      mload(0x40)\n      dup1\n      swap2\n      sub\n      swap1\n      revert\n    tag_118:\n        /* \"contracts/Tok2tok.sol\":1592:1593  0 */\n      0x00\n        /* \"contracts/Tok2tok.sol\":1573:1577  lock */\n      0x01\n        /* \"contracts/Tok2tok.sol\":1573:1589  lock[msg.sender] */\n      0x00\n        /* \"contracts/Tok2tok.sol\":1578:1588  msg.sender */\n      caller\n        /* \"contracts/Tok2tok.sol\":1573:1589  lock[msg.sender] */\n      0xffffffffffffffffffffffffffffffffffffffff\n      and\n      0xffffffffffffffffffffffffffffffffffffffff\n      and\n      dup2\n      mstore\n      0x20\n      add\n      swap1\n      dup2\n      mstore\n      0x20\n      add\n      0x00\n      keccak256\n        /* \"contracts/Tok2tok.sol\":1573:1593  lock[msg.sender] = 0 */\n      dup2\n      swap1\n      sstore\n      pop\n        /* \"contracts/Tok2tok.sol\":1621:1627  amount */\n      dup1\n        /* \"contracts/Tok2tok.sol\":1603:1617  total_withdraw */\n      0x03\n      0x00\n        /* \"contracts/Tok2tok.sol\":1603:1627  total_withdraw += amount */\n      dup3\n      dup3\n      sload\n      tag_120\n      swap2\n      swap1\n      tag_104\n      jump\t// in\n    tag_120:\n      swap3\n      pop\n      pop\n      dup2\n      swap1\n      sstore\n      pop\n        /* \"contracts/Tok2tok.sol\":1660:1666  amount */\n      dup1\n        /* \"contracts/Tok2tok.sol\":1637:1644  deposit */\n      0x00\n        /* \"contracts/Tok2tok.sol\":1637:1656  deposit[msg.sender] */\n      dup1\n        /* \"contracts/Tok2tok.sol\":1645:1655  msg.sender */\n      caller\n        /* \"contracts/Tok2tok.sol\":1637:1656  deposit[msg.sender] */\n      0xffffffffffffffffffffffffffffffffffffffff\n      and\n      0xffffffffffffffffffffffffffffffffffffffff\n      and\n      dup2\n      mstore\n      0x20\n      add\n      swap1\n      dup2\n      mstore\n      0x20\n      add\n      0x00\n      keccak256\n      0x00\n        /* \"contracts/Tok2tok.sol\":1637:1666  deposit[msg.sender] -= amount */\n      dup3\n      dup3\n      sload\n      tag_121\n      swap2\n      swap1\n      tag_91\n      jump\t// in\n    tag_121:\n      swap3\n      pop\n      pop\n      dup2\n      swap1\n      sstore\n      pop\n        /* \"contracts/Tok2tok.sol\":1683:1688  token */\n      0x06\n      0x00\n      swap1\n      sload\n      swap1\n      0x0100\n      exp\n      swap1\n      div\n      0xffffffffffffffffffffffffffffffffffffffff\n      and\n        /* \"contracts/Tok2tok.sol\":1676:1698  IERC20(token).transfer */\n      0xffffffffffffffffffffffffffffffffffffffff\n      and\n      0xa9059cbb\n        /* \"contracts/Tok2tok.sol\":1699:1709  msg.sender */\n      caller\n        /* \"contracts/Tok2tok.sol\":1711:1717  amount */\n      dup4\n        /* \"contracts/Tok2tok.sol\":1676:1718  IERC20(token).transfer(msg.sender, amount) */\n      mload(0x40)\n      dup4\n      0xffffffff\n      and\n      0xe0\n      shl\n      dup2\n      mstore\n      0x04\n      add\n      tag_122\n      swap3\n      swap2\n      swap1\n      tag_123\n      jump\t// in\n    tag_122:\n      0x20\n      mload(0x40)\n      dup1\n      dup4\n      sub\n      dup2\n      0x00\n      dup8\n      gas\n      call\n      iszero\n      dup1\n      iszero\n      tag_125\n      jumpi\n      returndatasize\n      0x00\n      dup1\n      returndatacopy\n      revert(0x00, returndatasize)\n    tag_125:\n      pop\n      pop\n      pop\n      pop\n      mload(0x40)\n      returndatasize\n      not(0x1f)\n      0x1f\n      dup3\n      add\n      and\n      dup3\n      add\n      dup1\n      0x40\n      mstore\n      pop\n      dup2\n      add\n      swap1\n      tag_126\n      swap2\n      swap1\n      tag_98\n      jump\t// in\n    tag_126:\n      pop\n        /* \"contracts/Tok2tok.sol\":1750:1760  msg.sender */\n      caller\n        /* \"contracts/Tok2tok.sol\":1733:1769  UserWithdrawUSDC(msg.sender, amount) */\n      0xffffffffffffffffffffffffffffffffffffffff\n      and\n      0x78f466825e45f385f5cc465e2d005d0efea6b925c38224d784b9d0fb79aa34eb\n        /* \"contracts/Tok2tok.sol\":1762:1768  amount */\n      dup3\n        /* \"contracts/Tok2tok.sol\":1733:1769  UserWithdrawUSDC(msg.sender, amount) */\n      mload(0x40)\n      tag_127\n      swap2\n      swap1\n      tag_27\n      jump\t// in\n    tag_127:\n      mload(0x40)\n      dup1\n      swap2\n      sub\n      swap1\n      log2\n        /* \"contracts/Tok2tok.sol\":1265:1776  function user_withdraw (uint256 amount) public {... */\n      pop\n      jump\t// out\n        /* \"contracts/Tok2tok.sol\":298:323  uint256 public total_bill */\n    tag_55:\n      sload(0x04)\n      dup2\n      jump\t// out\n        /* \"contracts/Tok2tok.sol\":3141:3239  function user_balance () public view returns (uint256) {... */\n    tag_58:\n        /* \"contracts/Tok2tok.sol\":3187:3194  uint256 */\n      0x00\n        /* \"contracts/Tok2tok.sol\":3213:3220  deposit */\n      dup1\n        /* \"contracts/Tok2tok.sol\":3213:3232  deposit[msg.sender] */\n      0x00\n        /* \"contracts/Tok2tok.sol\":3221:3231  msg.sender */\n      caller\n        /* \"contracts/Tok2tok.sol\":3213:3232  deposit[msg.sender] */\n      0xffffffffffffffffffffffffffffffffffffffff\n      and\n      0xffffffffffffffffffffffffffffffffffffffff\n      and\n      dup2\n      mstore\n      0x20\n      add\n      swap1\n      dup2\n      mstore\n      0x20\n      add\n      0x00\n      keccak256\n      sload\n        /* \"contracts/Tok2tok.sol\":3206:3232  return deposit[msg.sender] */\n      swap1\n      pop\n        /* \"contracts/Tok2tok.sol\":3141:3239  function user_balance () public view returns (uint256) {... */\n      swap1\n      jump\t// out\n        /* \"contracts/Tok2tok.sol\":1782:2216  function withdraw_all () public {... */\n    tag_61:\n        /* \"contracts/Tok2tok.sol\":1869:1878  1 minutes */\n      0x3c\n        /* \"contracts/Tok2tok.sol\":1850:1854  lock */\n      0x01\n        /* \"contracts/Tok2tok.sol\":1850:1866  lock[msg.sender] */\n      0x00\n        /* \"contracts/Tok2tok.sol\":1855:1865  msg.sender */\n      caller\n        /* \"contracts/Tok2tok.sol\":1850:1866  lock[msg.sender] */\n      0xffffffffffffffffffffffffffffffffffffffff\n      and\n      0xffffffffffffffffffffffffffffffffffffffff\n      and\n      dup2\n      mstore\n      0x20\n      add\n      swap1\n      dup2\n      mstore\n      0x20\n      add\n      0x00\n      keccak256\n      sload\n        /* \"contracts/Tok2tok.sol\":1832:1847  block.timestamp */\n      timestamp\n        /* \"contracts/Tok2tok.sol\":1832:1866  block.timestamp - lock[msg.sender] */\n      tag_130\n      swap2\n      swap1\n      tag_91\n      jump\t// in\n    tag_130:\n        /* \"contracts/Tok2tok.sol\":1832:1878  block.timestamp - lock[msg.sender] > 1 minutes */\n      gt\n        /* \"contracts/Tok2tok.sol\":1824:1900  require(block.timestamp - lock[msg.sender] > 1 minutes, \"Withdrawal locked\") */\n      tag_131\n      jumpi\n      mload(0x40)\n      0x08c379a000000000000000000000000000000000000000000000000000000000\n      dup2\n      mstore\n      0x04\n      add\n      tag_132\n      swap1\n      tag_116\n      jump\t// in\n    tag_132:\n      mload(0x40)\n      dup1\n      swap2\n      sub\n      swap1\n      revert\n    tag_131:\n        /* \"contracts/Tok2tok.sol\":1955:1962  1 hours */\n      0x0e10\n        /* \"contracts/Tok2tok.sol\":1936:1940  lock */\n      0x01\n        /* \"contracts/Tok2tok.sol\":1936:1952  lock[msg.sender] */\n      0x00\n        /* \"contracts/Tok2tok.sol\":1941:1951  msg.sender */\n      caller\n        /* \"contracts/Tok2tok.sol\":1936:1952  lock[msg.sender] */\n      0xffffffffffffffffffffffffffffffffffffffff\n      and\n      0xffffffffffffffffffffffffffffffffffffffff\n      and\n      dup2\n      mstore\n      0x20\n      add\n      swap1\n      dup2\n      mstore\n      0x20\n      add\n      0x00\n      keccak256\n      sload\n        /* \"contracts/Tok2tok.sol\":1918:1933  block.timestamp */\n      timestamp\n        /* \"contracts/Tok2tok.sol\":1918:1952  block.timestamp - lock[msg.sender] */\n      tag_133\n      swap2\n      swap1\n      tag_91\n      jump\t// in\n    tag_133:\n        /* \"contracts/Tok2tok.sol\":1918:1962  block.timestamp - lock[msg.sender] < 1 hours */\n      lt\n        /* \"contracts/Tok2tok.sol\":1910:1984  require(block.timestamp - lock[msg.sender] < 1 hours, \"Withdrawal locked\") */\n      tag_134\n      jumpi\n      mload(0x40)\n      0x08c379a000000000000000000000000000000000000000000000000000000000\n      dup2\n      mstore\n      0x04\n      add\n      tag_135\n      swap1\n      tag_116\n      jump\t// in\n    tag_135:\n      mload(0x40)\n      dup1\n      swap2\n      sub\n      swap1\n      revert\n    tag_134:\n        /* \"contracts/Tok2tok.sol\":2003:2017  uint256 amount */\n      0x00\n        /* \"contracts/Tok2tok.sol\":2020:2027  deposit */\n      dup1\n        /* \"contracts/Tok2tok.sol\":2020:2039  deposit[msg.sender] */\n      0x00\n        /* \"contracts/Tok2tok.sol\":2028:2038  msg.sender */\n      caller\n        /* \"contracts/Tok2tok.sol\":2020:2039  deposit[msg.sender] */\n      0xffffffffffffffffffffffffffffffffffffffff\n      and\n      0xffffffffffffffffffffffffffffffffffffffff\n      and\n      dup2\n      mstore\n      0x20\n      add\n      swap1\n      dup2\n      mstore\n      0x20\n      add\n      0x00\n      keccak256\n      sload\n        /* \"contracts/Tok2tok.sol\":2003:2039  uint256 amount = deposit[msg.sender] */\n      swap1\n      pop\n        /* \"contracts/Tok2tok.sol\":2067:2073  amount */\n      dup1\n        /* \"contracts/Tok2tok.sol\":2049:2063  total_withdraw */\n      0x03\n      0x00\n        /* \"contracts/Tok2tok.sol\":2049:2073  total_withdraw += amount */\n      dup3\n      dup3\n      sload\n      tag_136\n      swap2\n      swap1\n      tag_104\n      jump\t// in\n    tag_136:\n      swap3\n      pop\n      pop\n      dup2\n      swap1\n      sstore\n      pop\n        /* \"contracts/Tok2tok.sol\":2105:2106  0 */\n      0x00\n        /* \"contracts/Tok2tok.sol\":2083:2090  deposit */\n      dup1\n        /* \"contracts/Tok2tok.sol\":2083:2102  deposit[msg.sender] */\n      0x00\n        /* \"contracts/Tok2tok.sol\":2091:2101  msg.sender */\n      caller\n        /* \"contracts/Tok2tok.sol\":2083:2102  deposit[msg.sender] */\n      0xffffffffffffffffffffffffffffffffffffffff\n      and\n      0xffffffffffffffffffffffffffffffffffffffff\n      and\n      dup2\n      mstore\n      0x20\n      add\n      swap1\n      dup2\n      mstore\n      0x20\n      add\n      0x00\n      keccak256\n        /* \"contracts/Tok2tok.sol\":2083:2106  deposit[msg.sender] = 0 */\n      dup2\n      swap1\n      sstore\n      pop\n        /* \"contracts/Tok2tok.sol\":2123:2128  token */\n      0x06\n      0x00\n      swap1\n      sload\n      swap1\n      0x0100\n      exp\n      swap1\n      div\n      0xffffffffffffffffffffffffffffffffffffffff\n      and\n        /* \"contracts/Tok2tok.sol\":2116:2138  IERC20(token).transfer */\n      0xffffffffffffffffffffffffffffffffffffffff\n      and\n      0xa9059cbb\n        /* \"contracts/Tok2tok.sol\":2139:2149  msg.sender */\n      caller\n        /* \"contracts/Tok2tok.sol\":2151:2157  amount */\n      dup4\n        /* \"contracts/Tok2tok.sol\":2116:2158  IERC20(token).transfer(msg.sender, amount) */\n      mload(0x40)\n      dup4\n      0xffffffff\n      and\n      0xe0\n      shl\n      dup2\n      mstore\n      0x04\n      add\n      tag_137\n      swap3\n      swap2\n      swap1\n      tag_123\n      jump\t// in\n    tag_137:\n      0x20\n      mload(0x40)\n      dup1\n      dup4\n      sub\n      dup2\n      0x00\n      dup8\n      gas\n      call\n      iszero\n      dup1\n      iszero\n      tag_139\n      jumpi\n      returndatasize\n      0x00\n      dup1\n      returndatacopy\n      revert(0x00, returndatasize)\n    tag_139:\n      pop\n      pop\n      pop\n      pop\n      mload(0x40)\n      returndatasize\n      not(0x1f)\n      0x1f\n      dup3\n      add\n      and\n      dup3\n      add\n      dup1\n      0x40\n      mstore\n      pop\n      dup2\n      add\n      swap1\n      tag_140\n      swap2\n      swap1\n      tag_98\n      jump\t// in\n    tag_140:\n      pop\n        /* \"contracts/Tok2tok.sol\":2190:2200  msg.sender */\n      caller\n        /* \"contracts/Tok2tok.sol\":2173:2209  UserWithdrawUSDC(msg.sender, amount) */\n      0xffffffffffffffffffffffffffffffffffffffff\n      and\n      0x78f466825e45f385f5cc465e2d005d0efea6b925c38224d784b9d0fb79aa34eb\n        /* \"contracts/Tok2tok.sol\":2202:2208  amount */\n      dup3\n        /* \"contracts/Tok2tok.sol\":2173:2209  UserWithdrawUSDC(msg.sender, amount) */\n      mload(0x40)\n      tag_141\n      swap2\n      swap1\n      tag_27\n      jump\t// in\n    tag_141:\n      mload(0x40)\n      dup1\n      swap2\n      sub\n      swap1\n      log2\n        /* \"contracts/Tok2tok.sol\":1814:2216  {... */\n      pop\n        /* \"contracts/Tok2tok.sol\":1782:2216  function withdraw_all () public {... */\n      jump\t// out\n        /* \"contracts/Tok2tok.sol\":3464:3654  function user_has_token () public view returns (bool) {... */\n    tag_63:\n        /* \"contracts/Tok2tok.sol\":3512:3516  bool */\n      0x00\n        /* \"contracts/Tok2tok.sol\":3557:3558  0 */\n      dup1\n        /* \"contracts/Tok2tok.sol\":3537:3541  lock */\n      0x01\n        /* \"contracts/Tok2tok.sol\":3537:3553  lock[msg.sender] */\n      0x00\n        /* \"contracts/Tok2tok.sol\":3542:3552  msg.sender */\n      caller\n        /* \"contracts/Tok2tok.sol\":3537:3553  lock[msg.sender] */\n      0xffffffffffffffffffffffffffffffffffffffff\n      and\n      0xffffffffffffffffffffffffffffffffffffffff\n      and\n      dup2\n      mstore\n      0x20\n      add\n      swap1\n      dup2\n      mstore\n      0x20\n      add\n      0x00\n      keccak256\n      sload\n        /* \"contracts/Tok2tok.sol\":3537:3558  lock[msg.sender] == 0 */\n      eq\n        /* \"contracts/Tok2tok.sol\":3537:3606  lock[msg.sender] == 0 || block.timestamp - lock[msg.sender] > 1 hours */\n      dup1\n      tag_143\n      jumpi\n      pop\n        /* \"contracts/Tok2tok.sol\":3599:3606  1 hours */\n      0x0e10\n        /* \"contracts/Tok2tok.sol\":3580:3584  lock */\n      0x01\n        /* \"contracts/Tok2tok.sol\":3580:3596  lock[msg.sender] */\n      0x00\n        /* \"contracts/Tok2tok.sol\":3585:3595  msg.sender */\n      caller\n        /* \"contracts/Tok2tok.sol\":3580:3596  lock[msg.sender] */\n      0xffffffffffffffffffffffffffffffffffffffff\n      and\n      0xffffffffffffffffffffffffffffffffffffffff\n      and\n      dup2\n      mstore\n      0x20\n      add\n      swap1\n      dup2\n      mstore\n      0x20\n      add\n      0x00\n      keccak256\n      sload\n        /* \"contracts/Tok2tok.sol\":3562:3577  block.timestamp */\n      timestamp\n        /* \"contracts/Tok2tok.sol\":3562:3596  block.timestamp - lock[msg.sender] */\n      tag_144\n      swap2\n      swap1\n      tag_91\n      jump\t// in\n    tag_144:\n        /* \"contracts/Tok2tok.sol\":3562:3606  block.timestamp - lock[msg.sender] > 1 hours */\n      gt\n        /* \"contracts/Tok2tok.sol\":3537:3606  lock[msg.sender] == 0 || block.timestamp - lock[msg.sender] > 1 hours */\n    tag_143:\n        /* \"contracts/Tok2tok.sol\":3528:3607  require (lock[msg.sender] == 0 || block.timestamp - lock[msg.sender] > 1 hours) */\n      tag_145\n      jumpi\n      0x00\n      dup1\n      revert\n    tag_145:\n        /* \"contracts/Tok2tok.sol\":3646:3647  0 */\n      0x00\n        /* \"contracts/Tok2tok.sol\":3624:3631  deposit */\n      dup1\n        /* \"contracts/Tok2tok.sol\":3624:3643  deposit[msg.sender] */\n      0x00\n        /* \"contracts/Tok2tok.sol\":3632:3642  msg.sender */\n      caller\n        /* \"contracts/Tok2tok.sol\":3624:3643  deposit[msg.sender] */\n      0xffffffffffffffffffffffffffffffffffffffff\n      and\n      0xffffffffffffffffffffffffffffffffffffffff\n      and\n      dup2\n      mstore\n      0x20\n      add\n      swap1\n      dup2\n      mstore\n      0x20\n      add\n      0x00\n      keccak256\n      sload\n        /* \"contracts/Tok2tok.sol\":3624:3647  deposit[msg.sender] > 0 */\n      gt\n        /* \"contracts/Tok2tok.sol\":3617:3647  return deposit[msg.sender] > 0 */\n      swap1\n      pop\n        /* \"contracts/Tok2tok.sol\":3464:3654  function user_has_token () public view returns (bool) {... */\n      swap1\n      jump\t// out\n        /* \"contracts/Tok2tok.sol\":595:860  function user_deposit_usdc (uint256 _amount) public {... */\n    tag_68:\n        /* \"contracts/Tok2tok.sol\":664:669  token */\n      0x06\n      0x00\n      swap1\n      sload\n      swap1\n      0x0100\n      exp\n      swap1\n      div\n      0xffffffffffffffffffffffffffffffffffffffff\n      and\n        /* \"contracts/Tok2tok.sol\":657:683  IERC20(token).transferFrom */\n      0xffffffffffffffffffffffffffffffffffffffff\n      and\n      0x23b872dd\n        /* \"contracts/Tok2tok.sol\":684:694  msg.sender */\n      caller\n        /* \"contracts/Tok2tok.sol\":704:708  this */\n      address\n        /* \"contracts/Tok2tok.sol\":711:718  _amount */\n      dup5\n        /* \"contracts/Tok2tok.sol\":657:719  IERC20(token).transferFrom(msg.sender, address(this), _amount) */\n      mload(0x40)\n      dup5\n      0xffffffff\n      and\n      0xe0\n      shl\n      dup2\n      mstore\n      0x04\n      add\n      tag_147\n      swap4\n      swap3\n      swap2\n      swap1\n      tag_148\n      jump\t// in\n    tag_147:\n      0x20\n      mload(0x40)\n      dup1\n      dup4\n      sub\n      dup2\n      0x00\n      dup8\n      gas\n      call\n      iszero\n      dup1\n      iszero\n      tag_150\n      jumpi\n      returndatasize\n      0x00\n      dup1\n      returndatacopy\n      revert(0x00, returndatasize)\n    tag_150:\n      pop\n      pop\n      pop\n      pop\n      mload(0x40)\n      returndatasize\n      not(0x1f)\n      0x1f\n      dup3\n      add\n      and\n      dup3\n      add\n      dup1\n      0x40\n      mstore\n      pop\n      dup2\n      add\n      swap1\n      tag_151\n      swap2\n      swap1\n      tag_98\n      jump\t// in\n    tag_151:\n      pop\n        /* \"contracts/Tok2tok.sol\":752:759  _amount */\n      dup1\n        /* \"contracts/Tok2tok.sol\":729:736  deposit */\n      0x00\n        /* \"contracts/Tok2tok.sol\":729:748  deposit[msg.sender] */\n      dup1\n        /* \"contracts/Tok2tok.sol\":737:747  msg.sender */\n      caller\n        /* \"contracts/Tok2tok.sol\":729:748  deposit[msg.sender] */\n      0xffffffffffffffffffffffffffffffffffffffff\n      and\n      0xffffffffffffffffffffffffffffffffffffffff\n      and\n      dup2\n      mstore\n      0x20\n      add\n      swap1\n      dup2\n      mstore\n      0x20\n      add\n      0x00\n      keccak256\n      0x00\n        /* \"contracts/Tok2tok.sol\":729:759  deposit[msg.sender] += _amount */\n      dup3\n      dup3\n      sload\n      tag_152\n      swap2\n      swap1\n      tag_104\n      jump\t// in\n    tag_152:\n      swap3\n      pop\n      pop\n      dup2\n      swap1\n      sstore\n      pop\n        /* \"contracts/Tok2tok.sol\":786:793  _amount */\n      dup1\n        /* \"contracts/Tok2tok.sol\":769:782  total_deposit */\n      0x02\n      0x00\n        /* \"contracts/Tok2tok.sol\":769:793  total_deposit += _amount */\n      dup3\n      dup3\n      sload\n      tag_153\n      swap2\n      swap1\n      tag_104\n      jump\t// in\n    tag_153:\n      swap3\n      pop\n      pop\n      dup2\n      swap1\n      sstore\n      pop\n        /* \"contracts/Tok2tok.sol\":833:843  msg.sender */\n      caller\n        /* \"contracts/Tok2tok.sol\":817:853  UserDepositUSDC(msg.sender, _amount) */\n      0xffffffffffffffffffffffffffffffffffffffff\n      and\n      0x1369cccda59aad62a6d6fdfb2f5367cf8d111b3a1f10f319b436b146d9b241ad\n        /* \"contracts/Tok2tok.sol\":845:852  _amount */\n      dup3\n        /* \"contracts/Tok2tok.sol\":817:853  UserDepositUSDC(msg.sender, _amount) */\n      mload(0x40)\n      tag_154\n      swap2\n      swap1\n      tag_27\n      jump\t// in\n    tag_154:\n      mload(0x40)\n      dup1\n      swap2\n      sub\n      swap1\n      log2\n        /* \"contracts/Tok2tok.sol\":595:860  function user_deposit_usdc (uint256 _amount) public {... */\n      pop\n      jump\t// out\n        /* \"contracts/Tok2tok.sol\":2834:3016  function admin_withdraw (address payable to, uint256 amount) public {... */\n    tag_71:\n        /* \"contracts/Tok2tok.sol\":2934:2939  owner */\n      0x07\n      0x00\n      swap1\n      sload\n      swap1\n      0x0100\n      exp\n      swap1\n      div\n      0xffffffffffffffffffffffffffffffffffffffff\n      and\n        /* \"contracts/Tok2tok.sol\":2920:2939  msg.sender == owner */\n      0xffffffffffffffffffffffffffffffffffffffff\n      and\n        /* \"contracts/Tok2tok.sol\":2920:2930  msg.sender */\n      caller\n        /* \"contracts/Tok2tok.sol\":2920:2939  msg.sender == owner */\n      0xffffffffffffffffffffffffffffffffffffffff\n      and\n      eq\n        /* \"contracts/Tok2tok.sol\":2912:2940  require(msg.sender == owner) */\n      tag_156\n      jumpi\n      0x00\n      dup1\n      revert\n    tag_156:\n        /* \"contracts/Tok2tok.sol\":2974:2980  amount */\n      dup1\n        /* \"contracts/Tok2tok.sol\":2950:2970  total_admin_withdraw */\n      0x05\n      0x00\n        /* \"contracts/Tok2tok.sol\":2950:2980  total_admin_withdraw += amount */\n      dup3\n      dup3\n      sload\n      tag_157\n      swap2\n      swap1\n      tag_104\n      jump\t// in\n    tag_157:\n      swap3\n      pop\n      pop\n      dup2\n      swap1\n      sstore\n      pop\n        /* \"contracts/Tok2tok.sol\":2990:2992  to */\n      dup2\n        /* \"contracts/Tok2tok.sol\":2990:3001  to.transfer */\n      0xffffffffffffffffffffffffffffffffffffffff\n      and\n        /* \"contracts/Tok2tok.sol\":2990:3009  to.transfer(amount) */\n      0x08fc\n        /* \"contracts/Tok2tok.sol\":3002:3008  amount */\n      dup3\n        /* \"contracts/Tok2tok.sol\":2990:3009  to.transfer(amount) */\n      swap1\n      dup2\n      iszero\n      mul\n      swap1\n      mload(0x40)\n      0x00\n      mload(0x40)\n      dup1\n      dup4\n      sub\n      dup2\n      dup6\n      dup9\n      dup9\n      call\n      swap4\n      pop\n      pop\n      pop\n      pop\n      iszero\n      dup1\n      iszero\n      tag_159\n      jumpi\n      returndatasize\n      0x00\n      dup1\n      returndatacopy\n      revert(0x00, returndatasize)\n    tag_159:\n      pop\n        /* \"contracts/Tok2tok.sol\":2834:3016  function admin_withdraw (address payable to, uint256 amount) public {... */\n      pop\n      pop\n      jump\t// out\n        /* \"contracts/Tok2tok.sol\":370:390  address public token */\n    tag_73:\n      0x06\n      0x00\n      swap1\n      sload\n      swap1\n      0x0100\n      exp\n      swap1\n      div\n      0xffffffffffffffffffffffffffffffffffffffff\n      and\n      dup2\n      jump\t// out\n        /* \"contracts/Tok2tok.sol\":329:364  uint256 public total_admin_withdraw */\n    tag_76:\n      sload(0x05)\n      dup2\n      jump\t// out\n        /* \"contracts/Tok2tok.sol\":957:1072  function user_lock () public {... */\n    tag_79:\n        /* \"contracts/Tok2tok.sol\":1015:1030  block.timestamp */\n      timestamp\n        /* \"contracts/Tok2tok.sol\":996:1000  lock */\n      0x01\n        /* \"contracts/Tok2tok.sol\":996:1012  lock[msg.sender] */\n      0x00\n        /* \"contracts/Tok2tok.sol\":1001:1011  msg.sender */\n      caller\n        /* \"contracts/Tok2tok.sol\":996:1012  lock[msg.sender] */\n      0xffffffffffffffffffffffffffffffffffffffff\n      and\n      0xffffffffffffffffffffffffffffffffffffffff\n      and\n      dup2\n      mstore\n      0x20\n      add\n      swap1\n      dup2\n      mstore\n      0x20\n      add\n      0x00\n      keccak256\n        /* \"contracts/Tok2tok.sol\":996:1030  lock[msg.sender] = block.timestamp */\n      dup2\n      swap1\n      sstore\n      pop\n        /* \"contracts/Tok2tok.sol\":1054:1064  msg.sender */\n      caller\n        /* \"contracts/Tok2tok.sol\":1045:1065  UserLock(msg.sender) */\n      0xffffffffffffffffffffffffffffffffffffffff\n      and\n      0x8f15c54fe559a7f3d1a2948caff34f60960ef5106f3c57bbbbace6279522c66d\n      mload(0x40)\n      mload(0x40)\n      dup1\n      swap2\n      sub\n      swap1\n      log2\n        /* \"contracts/Tok2tok.sol\":957:1072  function user_lock () public {... */\n      jump\t// out\n        /* \"#utility.yul\":7:84   */\n    tag_161:\n        /* \"#utility.yul\":44:51   */\n      0x00\n        /* \"#utility.yul\":73:78   */\n      dup2\n        /* \"#utility.yul\":62:78   */\n      swap1\n      pop\n        /* \"#utility.yul\":7:84   */\n      swap2\n      swap1\n      pop\n      jump\t// out\n        /* \"#utility.yul\":90:208   */\n    tag_162:\n        /* \"#utility.yul\":177:201   */\n      tag_193\n        /* \"#utility.yul\":195:200   */\n      dup2\n        /* \"#utility.yul\":177:201   */\n      tag_161\n      jump\t// in\n    tag_193:\n        /* \"#utility.yul\":172:175   */\n      dup3\n        /* \"#utility.yul\":165:202   */\n      mstore\n        /* \"#utility.yul\":90:208   */\n      pop\n      pop\n      jump\t// out\n        /* \"#utility.yul\":214:436   */\n    tag_27:\n        /* \"#utility.yul\":307:311   */\n      0x00\n        /* \"#utility.yul\":345:347   */\n      0x20\n        /* \"#utility.yul\":334:343   */\n      dup3\n        /* \"#utility.yul\":330:348   */\n      add\n        /* \"#utility.yul\":322:348   */\n      swap1\n      pop\n        /* \"#utility.yul\":358:429   */\n      tag_195\n        /* \"#utility.yul\":426:427   */\n      0x00\n        /* \"#utility.yul\":415:424   */\n      dup4\n        /* \"#utility.yul\":411:428   */\n      add\n        /* \"#utility.yul\":402:408   */\n      dup5\n        /* \"#utility.yul\":358:429   */\n      tag_162\n      jump\t// in\n    tag_195:\n        /* \"#utility.yul\":214:436   */\n      swap3\n      swap2\n      pop\n      pop\n      jump\t// out\n        /* \"#utility.yul\":442:568   */\n    tag_163:\n        /* \"#utility.yul\":479:486   */\n      0x00\n        /* \"#utility.yul\":519:561   */\n      0xffffffffffffffffffffffffffffffffffffffff\n        /* \"#utility.yul\":512:517   */\n      dup3\n        /* \"#utility.yul\":508:562   */\n      and\n        /* \"#utility.yul\":497:562   */\n      swap1\n      pop\n        /* \"#utility.yul\":442:568   */\n      swap2\n      swap1\n      pop\n      jump\t// out\n        /* \"#utility.yul\":574:670   */\n    tag_164:\n        /* \"#utility.yul\":611:618   */\n      0x00\n        /* \"#utility.yul\":640:664   */\n      tag_198\n        /* \"#utility.yul\":658:663   */\n      dup3\n        /* \"#utility.yul\":640:664   */\n      tag_163\n      jump\t// in\n    tag_198:\n        /* \"#utility.yul\":629:664   */\n      swap1\n      pop\n        /* \"#utility.yul\":574:670   */\n      swap2\n      swap1\n      pop\n      jump\t// out\n        /* \"#utility.yul\":676:794   */\n    tag_165:\n        /* \"#utility.yul\":763:787   */\n      tag_200\n        /* \"#utility.yul\":781:786   */\n      dup2\n        /* \"#utility.yul\":763:787   */\n      tag_164\n      jump\t// in\n    tag_200:\n        /* \"#utility.yul\":758:761   */\n      dup3\n        /* \"#utility.yul\":751:788   */\n      mstore\n        /* \"#utility.yul\":676:794   */\n      pop\n      pop\n      jump\t// out\n        /* \"#utility.yul\":800:1022   */\n    tag_34:\n        /* \"#utility.yul\":893:897   */\n      0x00\n        /* \"#utility.yul\":931:933   */\n      0x20\n        /* \"#utility.yul\":920:929   */\n      dup3\n        /* \"#utility.yul\":916:934   */\n      add\n        /* \"#utility.yul\":908:934   */\n      swap1\n      pop\n        /* \"#utility.yul\":944:1015   */\n      tag_202\n        /* \"#utility.yul\":1012:1013   */\n      0x00\n        /* \"#utility.yul\":1001:1010   */\n      dup4\n        /* \"#utility.yul\":997:1014   */\n      add\n        /* \"#utility.yul\":988:994   */\n      dup5\n        /* \"#utility.yul\":944:1015   */\n      tag_165\n      jump\t// in\n    tag_202:\n        /* \"#utility.yul\":800:1022   */\n      swap3\n      swap2\n      pop\n      pop\n      jump\t// out\n        /* \"#utility.yul\":1109:1226   */\n    tag_167:\n        /* \"#utility.yul\":1218:1219   */\n      0x00\n        /* \"#utility.yul\":1215:1216   */\n      dup1\n        /* \"#utility.yul\":1208:1220   */\n      revert\n        /* \"#utility.yul\":1355:1459   */\n    tag_169:\n        /* \"#utility.yul\":1400:1407   */\n      0x00\n        /* \"#utility.yul\":1429:1453   */\n      tag_207\n        /* \"#utility.yul\":1447:1452   */\n      dup3\n        /* \"#utility.yul\":1429:1453   */\n      tag_163\n      jump\t// in\n    tag_207:\n        /* \"#utility.yul\":1418:1453   */\n      swap1\n      pop\n        /* \"#utility.yul\":1355:1459   */\n      swap2\n      swap1\n      pop\n      jump\t// out\n        /* \"#utility.yul\":1465:1603   */\n    tag_170:\n        /* \"#utility.yul\":1546:1578   */\n      tag_209\n        /* \"#utility.yul\":1572:1577   */\n      dup2\n        /* \"#utility.yul\":1546:1578   */\n      tag_169\n      jump\t// in\n    tag_209:\n        /* \"#utility.yul\":1539:1544   */\n      dup2\n        /* \"#utility.yul\":1536:1579   */\n      eq\n        /* \"#utility.yul\":1526:1597   */\n      tag_210\n      jumpi\n        /* \"#utility.yul\":1593:1594   */\n      0x00\n        /* \"#utility.yul\":1590:1591   */\n      dup1\n        /* \"#utility.yul\":1583:1595   */\n      revert\n        /* \"#utility.yul\":1526:1597   */\n    tag_210:\n        /* \"#utility.yul\":1465:1603   */\n      pop\n      jump\t// out\n        /* \"#utility.yul\":1609:1764   */\n    tag_171:\n        /* \"#utility.yul\":1663:1668   */\n      0x00\n        /* \"#utility.yul\":1701:1707   */\n      dup2\n        /* \"#utility.yul\":1688:1708   */\n      calldataload\n        /* \"#utility.yul\":1679:1708   */\n      swap1\n      pop\n        /* \"#utility.yul\":1717:1758   */\n      tag_212\n        /* \"#utility.yul\":1752:1757   */\n      dup2\n        /* \"#utility.yul\":1717:1758   */\n      tag_170\n      jump\t// in\n    tag_212:\n        /* \"#utility.yul\":1609:1764   */\n      swap3\n      swap2\n      pop\n      pop\n      jump\t// out\n        /* \"#utility.yul\":1770:1892   */\n    tag_172:\n        /* \"#utility.yul\":1843:1867   */\n      tag_214\n        /* \"#utility.yul\":1861:1866   */\n      dup2\n        /* \"#utility.yul\":1843:1867   */\n      tag_161\n      jump\t// in\n    tag_214:\n        /* \"#utility.yul\":1836:1841   */\n      dup2\n        /* \"#utility.yul\":1833:1868   */\n      eq\n        /* \"#utility.yul\":1823:1886   */\n      tag_215\n      jumpi\n        /* \"#utility.yul\":1882:1883   */\n      0x00\n        /* \"#utility.yul\":1879:1880   */\n      dup1\n        /* \"#utility.yul\":1872:1884   */\n      revert\n        /* \"#utility.yul\":1823:1886   */\n    tag_215:\n        /* \"#utility.yul\":1770:1892   */\n      pop\n      jump\t// out\n        /* \"#utility.yul\":1898:2037   */\n    tag_173:\n        /* \"#utility.yul\":1944:1949   */\n      0x00\n        /* \"#utility.yul\":1982:1988   */\n      dup2\n        /* \"#utility.yul\":1969:1989   */\n      calldataload\n        /* \"#utility.yul\":1960:1989   */\n      swap1\n      pop\n        /* \"#utility.yul\":1998:2031   */\n      tag_217\n        /* \"#utility.yul\":2025:2030   */\n      dup2\n        /* \"#utility.yul\":1998:2031   */\n      tag_172\n      jump\t// in\n    tag_217:\n        /* \"#utility.yul\":1898:2037   */\n      swap3\n      swap2\n      pop\n      pop\n      jump\t// out\n        /* \"#utility.yul\":2043:2533   */\n    tag_39:\n        /* \"#utility.yul\":2119:2125   */\n      0x00\n        /* \"#utility.yul\":2127:2133   */\n      dup1\n        /* \"#utility.yul\":2176:2178   */\n      0x40\n        /* \"#utility.yul\":2164:2173   */\n      dup4\n        /* \"#utility.yul\":2155:2162   */\n      dup6\n        /* \"#utility.yul\":2151:2174   */\n      sub\n        /* \"#utility.yul\":2147:2179   */\n      slt\n        /* \"#utility.yul\":2144:2263   */\n      iszero\n      tag_219\n      jumpi\n        /* \"#utility.yul\":2182:2261   */\n      tag_220\n      tag_167\n      jump\t// in\n    tag_220:\n        /* \"#utility.yul\":2144:2263   */\n    tag_219:\n        /* \"#utility.yul\":2302:2303   */\n      0x00\n        /* \"#utility.yul\":2327:2388   */\n      tag_221\n        /* \"#utility.yul\":2380:2387   */\n      dup6\n        /* \"#utility.yul\":2371:2377   */\n      dup3\n        /* \"#utility.yul\":2360:2369   */\n      dup7\n        /* \"#utility.yul\":2356:2378   */\n      add\n        /* \"#utility.yul\":2327:2388   */\n      tag_171\n      jump\t// in\n    tag_221:\n        /* \"#utility.yul\":2317:2388   */\n      swap3\n      pop\n        /* \"#utility.yul\":2273:2398   */\n      pop\n        /* \"#utility.yul\":2437:2439   */\n      0x20\n        /* \"#utility.yul\":2463:2516   */\n      tag_222\n        /* \"#utility.yul\":2508:2515   */\n      dup6\n        /* \"#utility.yul\":2499:2505   */\n      dup3\n        /* \"#utility.yul\":2488:2497   */\n      dup7\n        /* \"#utility.yul\":2484:2506   */\n      add\n        /* \"#utility.yul\":2463:2516   */\n      tag_173\n      jump\t// in\n    tag_222:\n        /* \"#utility.yul\":2453:2516   */\n      swap2\n      pop\n        /* \"#utility.yul\":2408:2526   */\n      pop\n        /* \"#utility.yul\":2043:2533   */\n      swap3\n      pop\n      swap3\n      swap1\n      pop\n      jump\t// out\n        /* \"#utility.yul\":2539:2868   */\n    tag_46:\n        /* \"#utility.yul\":2598:2604   */\n      0x00\n        /* \"#utility.yul\":2647:2649   */\n      0x20\n        /* \"#utility.yul\":2635:2644   */\n      dup3\n        /* \"#utility.yul\":2626:2633   */\n      dup5\n        /* \"#utility.yul\":2622:2645   */\n      sub\n        /* \"#utility.yul\":2618:2650   */\n      slt\n        /* \"#utility.yul\":2615:2734   */\n      iszero\n      tag_224\n      jumpi\n        /* \"#utility.yul\":2653:2732   */\n      tag_225\n      tag_167\n      jump\t// in\n    tag_225:\n        /* \"#utility.yul\":2615:2734   */\n    tag_224:\n        /* \"#utility.yul\":2773:2774   */\n      0x00\n        /* \"#utility.yul\":2798:2851   */\n      tag_226\n        /* \"#utility.yul\":2843:2850   */\n      dup5\n        /* \"#utility.yul\":2834:2840   */\n      dup3\n        /* \"#utility.yul\":2823:2832   */\n      dup6\n        /* \"#utility.yul\":2819:2841   */\n      add\n        /* \"#utility.yul\":2798:2851   */\n      tag_173\n      jump\t// in\n    tag_226:\n        /* \"#utility.yul\":2788:2851   */\n      swap2\n      pop\n        /* \"#utility.yul\":2744:2861   */\n      pop\n        /* \"#utility.yul\":2539:2868   */\n      swap3\n      swap2\n      pop\n      pop\n      jump\t// out\n        /* \"#utility.yul\":2874:2964   */\n    tag_174:\n        /* \"#utility.yul\":2908:2915   */\n      0x00\n        /* \"#utility.yul\":2951:2956   */\n      dup2\n        /* \"#utility.yul\":2944:2957   */\n      iszero\n        /* \"#utility.yul\":2937:2958   */\n      iszero\n        /* \"#utility.yul\":2926:2958   */\n      swap1\n      pop\n        /* \"#utility.yul\":2874:2964   */\n      swap2\n      swap1\n      pop\n      jump\t// out\n        /* \"#utility.yul\":2970:3079   */\n    tag_175:\n        /* \"#utility.yul\":3051:3072   */\n      tag_229\n        /* \"#utility.yul\":3066:3071   */\n      dup2\n        /* \"#utility.yul\":3051:3072   */\n      tag_174\n      jump\t// in\n    tag_229:\n        /* \"#utility.yul\":3046:3049   */\n      dup3\n        /* \"#utility.yul\":3039:3073   */\n      mstore\n        /* \"#utility.yul\":2970:3079   */\n      pop\n      pop\n      jump\t// out\n        /* \"#utility.yul\":3085:3295   */\n    tag_65:\n        /* \"#utility.yul\":3172:3176   */\n      0x00\n        /* \"#utility.yul\":3210:3212   */\n      0x20\n        /* \"#utility.yul\":3199:3208   */\n      dup3\n        /* \"#utility.yul\":3195:3213   */\n      add\n        /* \"#utility.yul\":3187:3213   */\n      swap1\n      pop\n        /* \"#utility.yul\":3223:3288   */\n      tag_231\n        /* \"#utility.yul\":3285:3286   */\n      0x00\n        /* \"#utility.yul\":3274:3283   */\n      dup4\n        /* \"#utility.yul\":3270:3287   */\n      add\n        /* \"#utility.yul\":3261:3267   */\n      dup5\n        /* \"#utility.yul\":3223:3288   */\n      tag_175\n      jump\t// in\n    tag_231:\n        /* \"#utility.yul\":3085:3295   */\n      swap3\n      swap2\n      pop\n      pop\n      jump\t// out\n        /* \"#utility.yul\":3301:3444   */\n    tag_176:\n        /* \"#utility.yul\":3358:3363   */\n      0x00\n        /* \"#utility.yul\":3389:3395   */\n      dup2\n        /* \"#utility.yul\":3383:3396   */\n      mload\n        /* \"#utility.yul\":3374:3396   */\n      swap1\n      pop\n        /* \"#utility.yul\":3405:3438   */\n      tag_233\n        /* \"#utility.yul\":3432:3437   */\n      dup2\n        /* \"#utility.yul\":3405:3438   */\n      tag_172\n      jump\t// in\n    tag_233:\n        /* \"#utility.yul\":3301:3444   */\n      swap3\n      swap2\n      pop\n      pop\n      jump\t// out\n        /* \"#utility.yul\":3450:3801   */\n    tag_85:\n        /* \"#utility.yul\":3520:3526   */\n      0x00\n        /* \"#utility.yul\":3569:3571   */\n      0x20\n        /* \"#utility.yul\":3557:3566   */\n      dup3\n        /* \"#utility.yul\":3548:3555   */\n      dup5\n        /* \"#utility.yul\":3544:3567   */\n      sub\n        /* \"#utility.yul\":3540:3572   */\n      slt\n        /* \"#utility.yul\":3537:3656   */\n      iszero\n      tag_235\n      jumpi\n        /* \"#utility.yul\":3575:3654   */\n      tag_236\n      tag_167\n      jump\t// in\n    tag_236:\n        /* \"#utility.yul\":3537:3656   */\n    tag_235:\n        /* \"#utility.yul\":3695:3696   */\n      0x00\n        /* \"#utility.yul\":3720:3784   */\n      tag_237\n        /* \"#utility.yul\":3776:3783   */\n      dup5\n        /* \"#utility.yul\":3767:3773   */\n      dup3\n        /* \"#utility.yul\":3756:3765   */\n      dup6\n        /* \"#utility.yul\":3752:3774   */\n      add\n        /* \"#utility.yul\":3720:3784   */\n      tag_176\n      jump\t// in\n    tag_237:\n        /* \"#utility.yul\":3710:3784   */\n      swap2\n      pop\n        /* \"#utility.yul\":3666:3794   */\n      pop\n        /* \"#utility.yul\":3450:3801   */\n      swap3\n      swap2\n      pop\n      pop\n      jump\t// out\n        /* \"#utility.yul\":3807:3987   */\n    tag_177:\n        /* \"#utility.yul\":3855:3932   */\n      0x4e487b7100000000000000000000000000000000000000000000000000000000\n        /* \"#utility.yul\":3852:3853   */\n      0x00\n        /* \"#utility.yul\":3845:3933   */\n      mstore\n        /* \"#utility.yul\":3952:3956   */\n      0x11\n        /* \"#utility.yul\":3949:3950   */\n      0x04\n        /* \"#utility.yul\":3942:3957   */\n      mstore\n        /* \"#utility.yul\":3976:3980   */\n      0x24\n        /* \"#utility.yul\":3973:3974   */\n      0x00\n        /* \"#utility.yul\":3966:3981   */\n      revert\n        /* \"#utility.yul\":3993:4187   */\n    tag_91:\n        /* \"#utility.yul\":4033:4037   */\n      0x00\n        /* \"#utility.yul\":4053:4073   */\n      tag_240\n        /* \"#utility.yul\":4071:4072   */\n      dup3\n        /* \"#utility.yul\":4053:4073   */\n      tag_161\n      jump\t// in\n    tag_240:\n        /* \"#utility.yul\":4048:4073   */\n      swap2\n      pop\n        /* \"#utility.yul\":4087:4107   */\n      tag_241\n        /* \"#utility.yul\":4105:4106   */\n      dup4\n        /* \"#utility.yul\":4087:4107   */\n      tag_161\n      jump\t// in\n    tag_241:\n        /* \"#utility.yul\":4082:4107   */\n      swap3\n      pop\n        /* \"#utility.yul\":4131:4132   */\n      dup3\n        /* \"#utility.yul\":4128:4129   */\n      dup3\n        /* \"#utility.yul\":4124:4133   */\n      sub\n        /* \"#utility.yul\":4116:4133   */\n      swap1\n      pop\n        /* \"#utility.yul\":4155:4156   */\n      dup2\n        /* \"#utility.yul\":4149:4153   */\n      dup2\n        /* \"#utility.yul\":4146:4157   */\n      gt\n        /* \"#utility.yul\":4143:4180   */\n      iszero\n      tag_242\n      jumpi\n        /* \"#utility.yul\":4160:4178   */\n      tag_243\n      tag_177\n      jump\t// in\n    tag_243:\n        /* \"#utility.yul\":4143:4180   */\n    tag_242:\n        /* \"#utility.yul\":3993:4187   */\n      swap3\n      swap2\n      pop\n      pop\n      jump\t// out\n        /* \"#utility.yul\":4193:4253   */\n    tag_178:\n        /* \"#utility.yul\":4221:4224   */\n      0x00\n        /* \"#utility.yul\":4242:4247   */\n      dup2\n        /* \"#utility.yul\":4235:4247   */\n      swap1\n      pop\n        /* \"#utility.yul\":4193:4253   */\n      swap2\n      swap1\n      pop\n      jump\t// out\n        /* \"#utility.yul\":4259:4401   */\n    tag_179:\n        /* \"#utility.yul\":4309:4318   */\n      0x00\n        /* \"#utility.yul\":4342:4395   */\n      tag_246\n        /* \"#utility.yul\":4360:4394   */\n      tag_247\n        /* \"#utility.yul\":4369:4393   */\n      tag_248\n        /* \"#utility.yul\":4387:4392   */\n      dup5\n        /* \"#utility.yul\":4369:4393   */\n      tag_163\n      jump\t// in\n    tag_248:\n        /* \"#utility.yul\":4360:4394   */\n      tag_178\n      jump\t// in\n    tag_247:\n        /* \"#utility.yul\":4342:4395   */\n      tag_163\n      jump\t// in\n    tag_246:\n        /* \"#utility.yul\":4329:4395   */\n      swap1\n      pop\n        /* \"#utility.yul\":4259:4401   */\n      swap2\n      swap1\n      pop\n      jump\t// out\n        /* \"#utility.yul\":4407:4533   */\n    tag_180:\n        /* \"#utility.yul\":4457:4466   */\n      0x00\n        /* \"#utility.yul\":4490:4527   */\n      tag_250\n        /* \"#utility.yul\":4521:4526   */\n      dup3\n        /* \"#utility.yul\":4490:4527   */\n      tag_179\n      jump\t// in\n    tag_250:\n        /* \"#utility.yul\":4477:4527   */\n      swap1\n      pop\n        /* \"#utility.yul\":4407:4533   */\n      swap2\n      swap1\n      pop\n      jump\t// out\n        /* \"#utility.yul\":4539:4673   */\n    tag_181:\n        /* \"#utility.yul\":4597:4606   */\n      0x00\n        /* \"#utility.yul\":4630:4667   */\n      tag_252\n        /* \"#utility.yul\":4661:4666   */\n      dup3\n        /* \"#utility.yul\":4630:4667   */\n      tag_180\n      jump\t// in\n    tag_252:\n        /* \"#utility.yul\":4617:4667   */\n      swap1\n      pop\n        /* \"#utility.yul\":4539:4673   */\n      swap2\n      swap1\n      pop\n      jump\t// out\n        /* \"#utility.yul\":4679:4826   */\n    tag_182:\n        /* \"#utility.yul\":4774:4819   */\n      tag_254\n        /* \"#utility.yul\":4813:4818   */\n      dup2\n        /* \"#utility.yul\":4774:4819   */\n      tag_181\n      jump\t// in\n    tag_254:\n        /* \"#utility.yul\":4769:4772   */\n      dup3\n        /* \"#utility.yul\":4762:4820   */\n      mstore\n        /* \"#utility.yul\":4679:4826   */\n      pop\n      pop\n      jump\t// out\n        /* \"#utility.yul\":4832:5180   */\n    tag_94:\n        /* \"#utility.yul\":4961:4965   */\n      0x00\n        /* \"#utility.yul\":4999:5001   */\n      0x40\n        /* \"#utility.yul\":4988:4997   */\n      dup3\n        /* \"#utility.yul\":4984:5002   */\n      add\n        /* \"#utility.yul\":4976:5002   */\n      swap1\n      pop\n        /* \"#utility.yul\":5012:5091   */\n      tag_256\n        /* \"#utility.yul\":5088:5089   */\n      0x00\n        /* \"#utility.yul\":5077:5086   */\n      dup4\n        /* \"#utility.yul\":5073:5090   */\n      add\n        /* \"#utility.yul\":5064:5070   */\n      dup6\n        /* \"#utility.yul\":5012:5091   */\n      tag_182\n      jump\t// in\n    tag_256:\n        /* \"#utility.yul\":5101:5173   */\n      tag_257\n        /* \"#utility.yul\":5169:5171   */\n      0x20\n        /* \"#utility.yul\":5158:5167   */\n      dup4\n        /* \"#utility.yul\":5154:5172   */\n      add\n        /* \"#utility.yul\":5145:5151   */\n      dup5\n        /* \"#utility.yul\":5101:5173   */\n      tag_162\n      jump\t// in\n    tag_257:\n        /* \"#utility.yul\":4832:5180   */\n      swap4\n      swap3\n      pop\n      pop\n      pop\n      jump\t// out\n        /* \"#utility.yul\":5186:5302   */\n    tag_183:\n        /* \"#utility.yul\":5256:5277   */\n      tag_259\n        /* \"#utility.yul\":5271:5276   */\n      dup2\n        /* \"#utility.yul\":5256:5277   */\n      tag_174\n      jump\t// in\n    tag_259:\n        /* \"#utility.yul\":5249:5254   */\n      dup2\n        /* \"#utility.yul\":5246:5278   */\n      eq\n        /* \"#utility.yul\":5236:5296   */\n      tag_260\n      jumpi\n        /* \"#utility.yul\":5292:5293   */\n      0x00\n        /* \"#utility.yul\":5289:5290   */\n      dup1\n        /* \"#utility.yul\":5282:5294   */\n      revert\n        /* \"#utility.yul\":5236:5296   */\n    tag_260:\n        /* \"#utility.yul\":5186:5302   */\n      pop\n      jump\t// out\n        /* \"#utility.yul\":5308:5445   */\n    tag_184:\n        /* \"#utility.yul\":5362:5367   */\n      0x00\n        /* \"#utility.yul\":5393:5399   */\n      dup2\n        /* \"#utility.yul\":5387:5400   */\n      mload\n        /* \"#utility.yul\":5378:5400   */\n      swap1\n      pop\n        /* \"#utility.yul\":5409:5439   */\n      tag_262\n        /* \"#utility.yul\":5433:5438   */\n      dup2\n        /* \"#utility.yul\":5409:5439   */\n      tag_183\n      jump\t// in\n    tag_262:\n        /* \"#utility.yul\":5308:5445   */\n      swap3\n      swap2\n      pop\n      pop\n      jump\t// out\n        /* \"#utility.yul\":5451:5796   */\n    tag_98:\n        /* \"#utility.yul\":5518:5524   */\n      0x00\n        /* \"#utility.yul\":5567:5569   */\n      0x20\n        /* \"#utility.yul\":5555:5564   */\n      dup3\n        /* \"#utility.yul\":5546:5553   */\n      dup5\n        /* \"#utility.yul\":5542:5565   */\n      sub\n        /* \"#utility.yul\":5538:5570   */\n      slt\n        /* \"#utility.yul\":5535:5654   */\n      iszero\n      tag_264\n      jumpi\n        /* \"#utility.yul\":5573:5652   */\n      tag_265\n      tag_167\n      jump\t// in\n    tag_265:\n        /* \"#utility.yul\":5535:5654   */\n    tag_264:\n        /* \"#utility.yul\":5693:5694   */\n      0x00\n        /* \"#utility.yul\":5718:5779   */\n      tag_266\n        /* \"#utility.yul\":5771:5778   */\n      dup5\n        /* \"#utility.yul\":5762:5768   */\n      dup3\n        /* \"#utility.yul\":5751:5760   */\n      dup6\n        /* \"#utility.yul\":5747:5769   */\n      add\n        /* \"#utility.yul\":5718:5779   */\n      tag_184\n      jump\t// in\n    tag_266:\n        /* \"#utility.yul\":5708:5779   */\n      swap2\n      pop\n        /* \"#utility.yul\":5664:5789   */\n      pop\n        /* \"#utility.yul\":5451:5796   */\n      swap3\n      swap2\n      pop\n      pop\n      jump\t// out\n        /* \"#utility.yul\":5802:5993   */\n    tag_104:\n        /* \"#utility.yul\":5842:5845   */\n      0x00\n        /* \"#utility.yul\":5861:5881   */\n      tag_268\n        /* \"#utility.yul\":5879:5880   */\n      dup3\n        /* \"#utility.yul\":5861:5881   */\n      tag_161\n      jump\t// in\n    tag_268:\n        /* \"#utility.yul\":5856:5881   */\n      swap2\n      pop\n        /* \"#utility.yul\":5895:5915   */\n      tag_269\n        /* \"#utility.yul\":5913:5914   */\n      dup4\n        /* \"#utility.yul\":5895:5915   */\n      tag_161\n      jump\t// in\n    tag_269:\n        /* \"#utility.yul\":5890:5915   */\n      swap3\n      pop\n        /* \"#utility.yul\":5938:5939   */\n      dup3\n        /* \"#utility.yul\":5935:5936   */\n      dup3\n        /* \"#utility.yul\":5931:5940   */\n      add\n        /* \"#utility.yul\":5924:5940   */\n      swap1\n      pop\n        /* \"#utility.yul\":5959:5962   */\n      dup1\n        /* \"#utility.yul\":5956:5957   */\n      dup3\n        /* \"#utility.yul\":5953:5963   */\n      gt\n        /* \"#utility.yul\":5950:5986   */\n      iszero\n      tag_270\n      jumpi\n        /* \"#utility.yul\":5966:5984   */\n      tag_271\n      tag_177\n      jump\t// in\n    tag_271:\n        /* \"#utility.yul\":5950:5986   */\n    tag_270:\n        /* \"#utility.yul\":5802:5993   */\n      swap3\n      swap2\n      pop\n      pop\n      jump\t// out\n        /* \"#utility.yul\":5999:6168   */\n    tag_185:\n        /* \"#utility.yul\":6083:6094   */\n      0x00\n        /* \"#utility.yul\":6117:6123   */\n      dup3\n        /* \"#utility.yul\":6112:6115   */\n      dup3\n        /* \"#utility.yul\":6105:6124   */\n      mstore\n        /* \"#utility.yul\":6157:6161   */\n      0x20\n        /* \"#utility.yul\":6152:6155   */\n      dup3\n        /* \"#utility.yul\":6148:6162   */\n      add\n        /* \"#utility.yul\":6133:6162   */\n      swap1\n      pop\n        /* \"#utility.yul\":5999:6168   */\n      swap3\n      swap2\n      pop\n      pop\n      jump\t// out\n        /* \"#utility.yul\":6174:6344   */\n    tag_186:\n        /* \"#utility.yul\":6314:6336   */\n      0x496e73756666696369656e742062616c616e6365000000000000000000000000\n        /* \"#utility.yul\":6310:6311   */\n      0x00\n        /* \"#utility.yul\":6302:6308   */\n      dup3\n        /* \"#utility.yul\":6298:6312   */\n      add\n        /* \"#utility.yul\":6291:6337   */\n      mstore\n        /* \"#utility.yul\":6174:6344   */\n      pop\n      jump\t// out\n        /* \"#utility.yul\":6350:6716   */\n    tag_187:\n        /* \"#utility.yul\":6492:6495   */\n      0x00\n        /* \"#utility.yul\":6513:6580   */\n      tag_275\n        /* \"#utility.yul\":6577:6579   */\n      0x14\n        /* \"#utility.yul\":6572:6575   */\n      dup4\n        /* \"#utility.yul\":6513:6580   */\n      tag_185\n      jump\t// in\n    tag_275:\n        /* \"#utility.yul\":6506:6580   */\n      swap2\n      pop\n        /* \"#utility.yul\":6589:6682   */\n      tag_276\n        /* \"#utility.yul\":6678:6681   */\n      dup3\n        /* \"#utility.yul\":6589:6682   */\n      tag_186\n      jump\t// in\n    tag_276:\n        /* \"#utility.yul\":6707:6709   */\n      0x20\n        /* \"#utility.yul\":6702:6705   */\n      dup3\n        /* \"#utility.yul\":6698:6710   */\n      add\n        /* \"#utility.yul\":6691:6710   */\n      swap1\n      pop\n        /* \"#utility.yul\":6350:6716   */\n      swap2\n      swap1\n      pop\n      jump\t// out\n        /* \"#utility.yul\":6722:7141   */\n    tag_112:\n        /* \"#utility.yul\":6888:6892   */\n      0x00\n        /* \"#utility.yul\":6926:6928   */\n      0x20\n        /* \"#utility.yul\":6915:6924   */\n      dup3\n        /* \"#utility.yul\":6911:6929   */\n      add\n        /* \"#utility.yul\":6903:6929   */\n      swap1\n      pop\n        /* \"#utility.yul\":6975:6984   */\n      dup2\n        /* \"#utility.yul\":6969:6973   */\n      dup2\n        /* \"#utility.yul\":6965:6985   */\n      sub\n        /* \"#utility.yul\":6961:6962   */\n      0x00\n        /* \"#utility.yul\":6950:6959   */\n      dup4\n        /* \"#utility.yul\":6946:6963   */\n      add\n        /* \"#utility.yul\":6939:6986   */\n      mstore\n        /* \"#utility.yul\":7003:7134   */\n      tag_278\n        /* \"#utility.yul\":7129:7133   */\n      dup2\n        /* \"#utility.yul\":7003:7134   */\n      tag_187\n      jump\t// in\n    tag_278:\n        /* \"#utility.yul\":6995:7134   */\n      swap1\n      pop\n        /* \"#utility.yul\":6722:7141   */\n      swap2\n      swap1\n      pop\n      jump\t// out\n        /* \"#utility.yul\":7147:7314   */\n    tag_188:\n        /* \"#utility.yul\":7287:7306   */\n      0x5769746864726177616c206c6f636b6564000000000000000000000000000000\n        /* \"#utility.yul\":7283:7284   */\n      0x00\n        /* \"#utility.yul\":7275:7281   */\n      dup3\n        /* \"#utility.yul\":7271:7285   */\n      add\n        /* \"#utility.yul\":7264:7307   */\n      mstore\n        /* \"#utility.yul\":7147:7314   */\n      pop\n      jump\t// out\n        /* \"#utility.yul\":7320:7686   */\n    tag_189:\n        /* \"#utility.yul\":7462:7465   */\n      0x00\n        /* \"#utility.yul\":7483:7550   */\n      tag_281\n        /* \"#utility.yul\":7547:7549   */\n      0x11\n        /* \"#utility.yul\":7542:7545   */\n      dup4\n        /* \"#utility.yul\":7483:7550   */\n      tag_185\n      jump\t// in\n    tag_281:\n        /* \"#utility.yul\":7476:7550   */\n      swap2\n      pop\n        /* \"#utility.yul\":7559:7652   */\n      tag_282\n        /* \"#utility.yul\":7648:7651   */\n      dup3\n        /* \"#utility.yul\":7559:7652   */\n      tag_188\n      jump\t// in\n    tag_282:\n        /* \"#utility.yul\":7677:7679   */\n      0x20\n        /* \"#utility.yul\":7672:7675   */\n      dup3\n        /* \"#utility.yul\":7668:7680   */\n      add\n        /* \"#utility.yul\":7661:7680   */\n      swap1\n      pop\n        /* \"#utility.yul\":7320:7686   */\n      swap2\n      swap1\n      pop\n      jump\t// out\n        /* \"#utility.yul\":7692:8111   */\n    tag_116:\n        /* \"#utility.yul\":7858:7862   */\n      0x00\n        /* \"#utility.yul\":7896:7898   */\n      0x20\n        /* \"#utility.yul\":7885:7894   */\n      dup3\n        /* \"#utility.yul\":7881:7899   */\n      add\n        /* \"#utility.yul\":7873:7899   */\n      swap1\n      pop\n        /* \"#utility.yul\":7945:7954   */\n      dup2\n        /* \"#utility.yul\":7939:7943   */\n      dup2\n        /* \"#utility.yul\":7935:7955   */\n      sub\n        /* \"#utility.yul\":7931:7932   */\n      0x00\n        /* \"#utility.yul\":7920:7929   */\n      dup4\n        /* \"#utility.yul\":7916:7933   */\n      add\n        /* \"#utility.yul\":7909:7956   */\n      mstore\n        /* \"#utility.yul\":7973:8104   */\n      tag_284\n        /* \"#utility.yul\":8099:8103   */\n      dup2\n        /* \"#utility.yul\":7973:8104   */\n      tag_189\n      jump\t// in\n    tag_284:\n        /* \"#utility.yul\":7965:8104   */\n      swap1\n      pop\n        /* \"#utility.yul\":7692:8111   */\n      swap2\n      swap1\n      pop\n      jump\t// out\n        /* \"#utility.yul\":8117:8449   */\n    tag_123:\n        /* \"#utility.yul\":8238:8242   */\n      0x00\n        /* \"#utility.yul\":8276:8278   */\n      0x40\n        /* \"#utility.yul\":8265:8274   */\n      dup3\n        /* \"#utility.yul\":8261:8279   */\n      add\n        /* \"#utility.yul\":8253:8279   */\n      swap1\n      pop\n        /* \"#utility.yul\":8289:8360   */\n      tag_286\n        /* \"#utility.yul\":8357:8358   */\n      0x00\n        /* \"#utility.yul\":8346:8355   */\n      dup4\n        /* \"#utility.yul\":8342:8359   */\n      add\n        /* \"#utility.yul\":8333:8339   */\n      dup6\n        /* \"#utility.yul\":8289:8360   */\n      tag_165\n      jump\t// in\n    tag_286:\n        /* \"#utility.yul\":8370:8442   */\n      tag_287\n        /* \"#utility.yul\":8438:8440   */\n      0x20\n        /* \"#utility.yul\":8427:8436   */\n      dup4\n        /* \"#utility.yul\":8423:8441   */\n      add\n        /* \"#utility.yul\":8414:8420   */\n      dup5\n        /* \"#utility.yul\":8370:8442   */\n      tag_162\n      jump\t// in\n    tag_287:\n        /* \"#utility.yul\":8117:8449   */\n      swap4\n      swap3\n      pop\n      pop\n      pop\n      jump\t// out\n        /* \"#utility.yul\":8455:8897   */\n    tag_148:\n        /* \"#utility.yul\":8604:8608   */\n      0x00\n        /* \"#utility.yul\":8642:8644   */\n      0x60\n        /* \"#utility.yul\":8631:8640   */\n      dup3\n        /* \"#utility.yul\":8627:8645   */\n      add\n        /* \"#utility.yul\":8619:8645   */\n      swap1\n      pop\n        /* \"#utility.yul\":8655:8726   */\n      tag_289\n        /* \"#utility.yul\":8723:8724   */\n      0x00\n        /* \"#utility.yul\":8712:8721   */\n      dup4\n        /* \"#utility.yul\":8708:8725   */\n      add\n        /* \"#utility.yul\":8699:8705   */\n      dup7\n        /* \"#utility.yul\":8655:8726   */\n      tag_165\n      jump\t// in\n    tag_289:\n        /* \"#utility.yul\":8736:8808   */\n      tag_290\n        /* \"#utility.yul\":8804:8806   */\n      0x20\n        /* \"#utility.yul\":8793:8802   */\n      dup4\n        /* \"#utility.yul\":8789:8807   */\n      add\n        /* \"#utility.yul\":8780:8786   */\n      dup6\n        /* \"#utility.yul\":8736:8808   */\n      tag_165\n      jump\t// in\n    tag_290:\n        /* \"#utility.yul\":8818:8890   */\n      tag_291\n        /* \"#utility.yul\":8886:8888   */\n      0x40\n        /* \"#utility.yul\":8875:8884   */\n      dup4\n        /* \"#utility.yul\":8871:8889   */\n      add\n        /* \"#utility.yul\":8862:8868   */\n      dup5\n        /* \"#utility.yul\":8818:8890   */\n      tag_162\n      jump\t// in\n    tag_291:\n        /* \"#utility.yul\":8455:8897   */\n      swap5\n      swap4\n      pop\n      pop\n      pop\n      pop\n      jump\t// out\n\n    auxdata: 0xa2646970667358221220216c751915690c46da1852bc575f1ebdb4f53740df94e1d760125ebb7d0d710364736f6c634300081a0033\n}\n",
				"bytecode": {
					"linkReferences": {},
					"object": "608060405234801561000f575f80fd5b5060405161164f38038061164f83398181016040528101906100319190610115565b8060065f6101000a81548173ffffffffffffffffffffffffffffffffffffffff021916908373ffffffffffffffffffffffffffffffffffffffff1602179055503360075f6101000a81548173ffffffffffffffffffffffffffffffffffffffff021916908373ffffffffffffffffffffffffffffffffffffffff16021790555050610140565b5f80fd5b5f73ffffffffffffffffffffffffffffffffffffffff82169050919050565b5f6100e4826100bb565b9050919050565b6100f4816100da565b81146100fe575f80fd5b50565b5f8151905061010f816100eb565b92915050565b5f6020828403121561012a576101296100b7565b5b5f61013784828501610101565b91505092915050565b6115028061014d5f395ff3fe608060405234801561000f575f80fd5b5060043610610114575f3560e01c8063c3f79c9f116100a0578063f245ee7d1161006f578063f245ee7d14610270578063fa863d301461028c578063fc0c546a146102a8578063fecde132146102c6578063ff781046146102e457610114565b8063c3f79c9f1461020c578063d3da43b31461022a578063dd473d2b14610248578063e5fa54721461025257610114565b80636f7bda33116100e75780636f7bda331461017c5780639a8318f4146101985780639ff8ba98146101b6578063a0e57a31146101d2578063a984d411146101f057610114565b8063057440d3146101185780632ace5a2e14610136578063384f58eb146101545780633fec969914610172575b5f80fd5b6101206102ee565b60405161012d9190611071565b60405180910390f35b61013e61038d565b60405161014b9190611071565b60405180910390f35b61015c610393565b60405161016991906110c9565b60405180910390f35b61017a6103bb565b005b6101966004803603810190610191919061114b565b610442565b005b6101a0610556565b6040516101ad9190611071565b60405180910390f35b6101d060048036038101906101cb9190611189565b61055c565b005b6101da610687565b6040516101e79190611071565b60405180910390f35b61020a60048036038101906102059190611189565b61069d565b005b6102146109cd565b6040516102219190611071565b60405180910390f35b6102326109d3565b60405161023f9190611071565b60405180910390f35b610250610a16565b005b61025a610cb4565b60405161026791906111ce565b60405180910390f35b61028a60048036038101906102859190611189565b610d95565b005b6102a660048036038101906102a1919061114b565b610eef565b005b6102b0610fa7565b6040516102bd91906110c9565b60405180910390f35b6102ce610fcc565b6040516102db9190611071565b60405180910390f35b6102ec610fd2565b005b5f60065f9054906101000a900473ffffffffffffffffffffffffffffffffffffffff1673ffffffffffffffffffffffffffffffffffffffff166370a08231306040518263ffffffff1660e01b815260040161034991906110c9565b602060405180830381865afa158015610364573d5f803e3d5ffd5b505050506040513d601f19601f8201168201806040525081019061038891906111fb565b905090565b60025481565b5f60075f9054906101000a900473ffffffffffffffffffffffffffffffffffffffff16905090565b5f60015f3373ffffffffffffffffffffffffffffffffffffffff1673ffffffffffffffffffffffffffffffffffffffff1681526020019081526020015f20819055503373ffffffffffffffffffffffffffffffffffffffff167f9cb6db6786f389731093894570fd263c746cf1019d0d02ab9c4c35ad747f0e2c60405160405180910390a2565b60075f9054906101000a900473ffffffffffffffffffffffffffffffffffffffff1673ffffffffffffffffffffffffffffffffffffffff163373ffffffffffffffffffffffffffffffffffffffff161461049a575f80fd5b6005546004546104aa9190611253565b8111156104b5575f80fd5b60065f9054906101000a900473ffffffffffffffffffffffffffffffffffffffff1673ffffffffffffffffffffffffffffffffffffffff1663a9059cbb83836040518363ffffffff1660e01b81526004016105119291906112e1565b6020604051808303815f875af115801561052d573d5f803e3d5ffd5b505050506040513d601f19601f820116820180604052508101906105519190611332565b505050565b60035481565b5f6105656109d3565b905081811015610573578091505b60075f9054906101000a900473ffffffffffffffffffffffffffffffffffffffff1673ffffffffffffffffffffffffffffffffffffffff163373ffffffffffffffffffffffffffffffffffffffff16146105cb575f80fd5b8160045f8282546105dc919061135d565b92505081905550815f803373ffffffffffffffffffffffffffffffffffffffff1673ffffffffffffffffffffffffffffffffffffffff1681526020019081526020015f205f82825461062e9190611253565b925050819055503373ffffffffffffffffffffffffffffffffffffffff167fc792f24e3f61f64fe1c3a705f0a25fdfe9a49c9c784d24c01d8ef2e17625a2088360405161067b9190611071565b60405180910390a25050565b5f6005546004546106989190611253565b905090565b805f803373ffffffffffffffffffffffffffffffffffffffff1673ffffffffffffffffffffffffffffffffffffffff1681526020019081526020015f2054101561071c576040517f08c379a0000000000000000000000000000000000000000000000000000000008152600401610713906113ea565b60405180910390fd5b603c60015f3373ffffffffffffffffffffffffffffffffffffffff1673ffffffffffffffffffffffffffffffffffffffff1681526020019081526020015f2054426107679190611253565b116107a7576040517f08c379a000000000000000000000000000000000000000000000000000000000815260040161079e90611452565b60405180910390fd5b610e1060015f3373ffffffffffffffffffffffffffffffffffffffff1673ffffffffffffffffffffffffffffffffffffffff1681526020019081526020015f2054426107f39190611253565b10610833576040517f08c379a000000000000000000000000000000000000000000000000000000000815260040161082a90611452565b60405180910390fd5b5f60015f3373ffffffffffffffffffffffffffffffffffffffff1673ffffffffffffffffffffffffffffffffffffffff1681526020019081526020015f20819055508060035f828254610886919061135d565b92505081905550805f803373ffffffffffffffffffffffffffffffffffffffff1673ffffffffffffffffffffffffffffffffffffffff1681526020019081526020015f205f8282546108d89190611253565b9250508190555060065f9054906101000a900473ffffffffffffffffffffffffffffffffffffffff1673ffffffffffffffffffffffffffffffffffffffff1663a9059cbb33836040518363ffffffff1660e01b815260040161093b929190611470565b6020604051808303815f875af1158015610957573d5f803e3d5ffd5b505050506040513d601f19601f8201168201806040525081019061097b9190611332565b503373ffffffffffffffffffffffffffffffffffffffff167f78f466825e45f385f5cc465e2d005d0efea6b925c38224d784b9d0fb79aa34eb826040516109c29190611071565b60405180910390a250565b60045481565b5f805f3373ffffffffffffffffffffffffffffffffffffffff1673ffffffffffffffffffffffffffffffffffffffff1681526020019081526020015f2054905090565b603c60015f3373ffffffffffffffffffffffffffffffffffffffff1673ffffffffffffffffffffffffffffffffffffffff1681526020019081526020015f205442610a619190611253565b11610aa1576040517f08c379a0000000000000000000000000000000000000000000000000000000008152600401610a9890611452565b60405180910390fd5b610e1060015f3373ffffffffffffffffffffffffffffffffffffffff1673ffffffffffffffffffffffffffffffffffffffff1681526020019081526020015f205442610aed9190611253565b10610b2d576040517f08c379a0000000000000000000000000000000000000000000000000000000008152600401610b2490611452565b60405180910390fd5b5f805f3373ffffffffffffffffffffffffffffffffffffffff1673ffffffffffffffffffffffffffffffffffffffff1681526020019081526020015f205490508060035f828254610b7e919061135d565b925050819055505f805f3373ffffffffffffffffffffffffffffffffffffffff1673ffffffffffffffffffffffffffffffffffffffff1681526020019081526020015f208190555060065f9054906101000a900473ffffffffffffffffffffffffffffffffffffffff1673ffffffffffffffffffffffffffffffffffffffff1663a9059cbb33836040518363ffffffff1660e01b8152600401610c22929190611470565b6020604051808303815f875af1158015610c3e573d5f803e3d5ffd5b505050506040513d601f19601f82011682018060405250810190610c629190611332565b503373ffffffffffffffffffffffffffffffffffffffff167f78f466825e45f385f5cc465e2d005d0efea6b925c38224d784b9d0fb79aa34eb82604051610ca99190611071565b60405180910390a250565b5f8060015f3373ffffffffffffffffffffffffffffffffffffffff1673ffffffffffffffffffffffffffffffffffffffff1681526020019081526020015f20541480610d495750610e1060015f3373ffffffffffffffffffffffffffffffffffffffff1673ffffffffffffffffffffffffffffffffffffffff1681526020019081526020015f205442610d479190611253565b115b610d51575f80fd5b5f805f3373ffffffffffffffffffffffffffffffffffffffff1673ffffffffffffffffffffffffffffffffffffffff1681526020019081526020015f205411905090565b60065f9054906101000a900473ffffffffffffffffffffffffffffffffffffffff1673ffffffffffffffffffffffffffffffffffffffff166323b872dd3330846040518463ffffffff1660e01b8152600401610df393929190611497565b6020604051808303815f875af1158015610e0f573d5f803e3d5ffd5b505050506040513d601f19601f82011682018060405250810190610e339190611332565b50805f803373ffffffffffffffffffffffffffffffffffffffff1673ffffffffffffffffffffffffffffffffffffffff1681526020019081526020015f205f828254610e7f919061135d565b925050819055508060025f828254610e97919061135d565b925050819055503373ffffffffffffffffffffffffffffffffffffffff167f1369cccda59aad62a6d6fdfb2f5367cf8d111b3a1f10f319b436b146d9b241ad82604051610ee49190611071565b60405180910390a250565b60075f9054906101000a900473ffffffffffffffffffffffffffffffffffffffff1673ffffffffffffffffffffffffffffffffffffffff163373ffffffffffffffffffffffffffffffffffffffff1614610f47575f80fd5b8060055f828254610f58919061135d565b925050819055508173ffffffffffffffffffffffffffffffffffffffff166108fc8290811502906040515f60405180830381858888f19350505050158015610fa2573d5f803e3d5ffd5b505050565b60065f9054906101000a900473ffffffffffffffffffffffffffffffffffffffff1681565b60055481565b4260015f3373ffffffffffffffffffffffffffffffffffffffff1673ffffffffffffffffffffffffffffffffffffffff1681526020019081526020015f20819055503373ffffffffffffffffffffffffffffffffffffffff167f8f15c54fe559a7f3d1a2948caff34f60960ef5106f3c57bbbbace6279522c66d60405160405180910390a2565b5f819050919050565b61106b81611059565b82525050565b5f6020820190506110845f830184611062565b92915050565b5f73ffffffffffffffffffffffffffffffffffffffff82169050919050565b5f6110b38261108a565b9050919050565b6110c3816110a9565b82525050565b5f6020820190506110dc5f8301846110ba565b92915050565b5f80fd5b5f6110f08261108a565b9050919050565b611100816110e6565b811461110a575f80fd5b50565b5f8135905061111b816110f7565b92915050565b61112a81611059565b8114611134575f80fd5b50565b5f8135905061114581611121565b92915050565b5f8060408385031215611161576111606110e2565b5b5f61116e8582860161110d565b925050602061117f85828601611137565b9150509250929050565b5f6020828403121561119e5761119d6110e2565b5b5f6111ab84828501611137565b91505092915050565b5f8115159050919050565b6111c8816111b4565b82525050565b5f6020820190506111e15f8301846111bf565b92915050565b5f815190506111f581611121565b92915050565b5f602082840312156112105761120f6110e2565b5b5f61121d848285016111e7565b91505092915050565b7f4e487b71000000000000000000000000000000000000000000000000000000005f52601160045260245ffd5b5f61125d82611059565b915061126883611059565b92508282039050818111156112805761127f611226565b5b92915050565b5f819050919050565b5f6112a96112a461129f8461108a565b611286565b61108a565b9050919050565b5f6112ba8261128f565b9050919050565b5f6112cb826112b0565b9050919050565b6112db816112c1565b82525050565b5f6040820190506112f45f8301856112d2565b6113016020830184611062565b9392505050565b611311816111b4565b811461131b575f80fd5b50565b5f8151905061132c81611308565b92915050565b5f60208284031215611347576113466110e2565b5b5f6113548482850161131e565b91505092915050565b5f61136782611059565b915061137283611059565b925082820190508082111561138a57611389611226565b5b92915050565b5f82825260208201905092915050565b7f496e73756666696369656e742062616c616e63650000000000000000000000005f82015250565b5f6113d4601483611390565b91506113df826113a0565b602082019050919050565b5f6020820190508181035f830152611401816113c8565b9050919050565b7f5769746864726177616c206c6f636b65640000000000000000000000000000005f82015250565b5f61143c601183611390565b915061144782611408565b602082019050919050565b5f6020820190508181035f83015261146981611430565b9050919050565b5f6040820190506114835f8301856110ba565b6114906020830184611062565b9392505050565b5f6060820190506114aa5f8301866110ba565b6114b760208301856110ba565b6114c46040830184611062565b94935050505056fea2646970667358221220216c751915690c46da1852bc575f1ebdb4f53740df94e1d760125ebb7d0d710364736f6c634300081a0033",
					"opcodes": "PUSH1 0x80 PUSH1 0x40 MSTORE CALLVALUE DUP1 ISZERO PUSH2 0xF JUMPI PUSH0 DUP1 REVERT JUMPDEST POP PUSH1 0x40 MLOAD PUSH2 0x164F CODESIZE SUB DUP1 PUSH2 0x164F DUP4 CODECOPY DUP2 DUP2 ADD PUSH1 0x40 MSTORE DUP2 ADD SWAP1 PUSH2 0x31 SWAP2 SWAP1 PUSH2 0x115 JUMP JUMPDEST DUP1 PUSH1 0x6 PUSH0 PUSH2 0x100 EXP DUP2 SLOAD DUP2 PUSH20 0xFFFFFFFFFFFFFFFFFFFFFFFFFFFFFFFFFFFFFFFF MUL NOT AND SWAP1 DUP4 PUSH20 0xFFFFFFFFFFFFFFFFFFFFFFFFFFFFFFFFFFFFFFFF AND MUL OR SWAP1 SSTORE POP CALLER PUSH1 0x7 PUSH0 PUSH2 0x100 EXP DUP2 SLOAD DUP2 PUSH20 0xFFFFFFFFFFFFFFFFFFFFFFFFFFFFFFFFFFFFFFFF MUL NOT AND SWAP1 DUP4 PUSH20 0xFFFFFFFFFFFFFFFFFFFFFFFFFFFFFFFFFFFFFFFF AND MUL OR SWAP1 SSTORE POP POP PUSH2 0x140 JUMP JUMPDEST PUSH0 DUP1 REVERT JUMPDEST PUSH0 PUSH20 0xFFFFFFFFFFFFFFFFFFFFFFFFFFFFFFFFFFFFFFFF DUP3 AND SWAP1 POP SWAP2 SWAP1 POP JUMP JUMPDEST PUSH0 PUSH2 0xE4 DUP3 PUSH2 0xBB JUMP JUMPDEST SWAP1 POP SWAP2 SWAP1 POP JUMP JUMPDEST PUSH2 0xF4 DUP2 PUSH2 0xDA JUMP JUMPDEST DUP2 EQ PUSH2 0xFE JUMPI PUSH0 DUP1 REVERT JUMPDEST POP JUMP JUMPDEST PUSH0 DUP2 MLOAD SWAP1 POP PUSH2 0x10F DUP2 PUSH2 0xEB JUMP JUMPDEST SWAP3 SWAP2 POP POP JUMP JUMPDEST PUSH0 PUSH1 0x20 DUP3 DUP5 SUB SLT ISZERO PUSH2 0x12A JUMPI PUSH2 0x129 PUSH2 0xB7 JUMP JUMPDEST JUMPDEST PUSH0 PUSH2 0x137 DUP5 DUP3 DUP6 ADD PUSH2 0x101 JUMP JUMPDEST SWAP2 POP POP SWAP3 SWAP2 POP POP JUMP JUMPDEST PUSH2 0x1502 DUP1 PUSH2 0x14D PUSH0 CODECOPY PUSH0 RETURN INVALID PUSH1 0x80 PUSH1 0x40 MSTORE CALLVALUE DUP1 ISZERO PUSH2 0xF JUMPI PUSH0 DUP1 REVERT JUMPDEST POP PUSH1 0x4 CALLDATASIZE LT PUSH2 0x114 JUMPI PUSH0 CALLDATALOAD PUSH1 0xE0 SHR DUP1 PUSH4 0xC3F79C9F GT PUSH2 0xA0 JUMPI DUP1 PUSH4 0xF245EE7D GT PUSH2 0x6F JUMPI DUP1 PUSH4 0xF245EE7D EQ PUSH2 0x270 JUMPI DUP1 PUSH4 0xFA863D30 EQ PUSH2 0x28C JUMPI DUP1 PUSH4 0xFC0C546A EQ PUSH2 0x2A8 JUMPI DUP1 PUSH4 0xFECDE132 EQ PUSH2 0x2C6 JUMPI DUP1 PUSH4 0xFF781046 EQ PUSH2 0x2E4 JUMPI PUSH2 0x114 JUMP JUMPDEST DUP1 PUSH4 0xC3F79C9F EQ PUSH2 0x20C JUMPI DUP1 PUSH4 0xD3DA43B3 EQ PUSH2 0x22A JUMPI DUP1 PUSH4 0xDD473D2B EQ PUSH2 0x248 JUMPI DUP1 PUSH4 0xE5FA5472 EQ PUSH2 0x252 JUMPI PUSH2 0x114 JUMP JUMPDEST DUP1 PUSH4 0x6F7BDA33 GT PUSH2 0xE7 JUMPI DUP1 PUSH4 0x6F7BDA33 EQ PUSH2 0x17C JUMPI DUP1 PUSH4 0x9A8318F4 EQ PUSH2 0x198 JUMPI DUP1 PUSH4 0x9FF8BA98 EQ PUSH2 0x1B6 JUMPI DUP1 PUSH4 0xA0E57A31 EQ PUSH2 0x1D2 JUMPI DUP1 PUSH4 0xA984D411 EQ PUSH2 0x1F0 JUMPI PUSH2 0x114 JUMP JUMPDEST DUP1 PUSH4 0x57440D3 EQ PUSH2 0x118 JUMPI DUP1 PUSH4 0x2ACE5A2E EQ PUSH2 0x136 JUMPI DUP1 PUSH4 0x384F58EB EQ PUSH2 0x154 JUMPI DUP1 PUSH4 0x3FEC9699 EQ PUSH2 0x172 JUMPI JUMPDEST PUSH0 DUP1 REVERT JUMPDEST PUSH2 0x120 PUSH2 0x2EE JUMP JUMPDEST PUSH1 0x40 MLOAD PUSH2 0x12D SWAP2 SWAP1 PUSH2 0x1071 JUMP JUMPDEST PUSH1 0x40 MLOAD DUP1 SWAP2 SUB SWAP1 RETURN JUMPDEST PUSH2 0x13E PUSH2 0x38D JUMP JUMPDEST PUSH1 0x40 MLOAD PUSH2 0x14B SWAP2 SWAP1 PUSH2 0x1071 JUMP JUMPDEST PUSH1 0x40 MLOAD DUP1 SWAP2 SUB SWAP1 RETURN JUMPDEST PUSH2 0x15C PUSH2 0x393 JUMP JUMPDEST PUSH1 0x40 MLOAD PUSH2 0x169 SWAP2 SWAP1 PUSH2 0x10C9 JUMP JUMPDEST PUSH1 0x40 MLOAD DUP1 SWAP2 SUB SWAP1 RETURN JUMPDEST PUSH2 0x17A PUSH2 0x3BB JUMP JUMPDEST STOP JUMPDEST PUSH2 0x196 PUSH1 0x4 DUP1 CALLDATASIZE SUB DUP2 ADD SWAP1 PUSH2 0x191 SWAP2 SWAP1 PUSH2 0x114B JUMP JUMPDEST PUSH2 0x442 JUMP JUMPDEST STOP JUMPDEST PUSH2 0x1A0 PUSH2 0x556 JUMP JUMPDEST PUSH1 0x40 MLOAD PUSH2 0x1AD SWAP2 SWAP1 PUSH2 0x1071 JUMP JUMPDEST PUSH1 0x40 MLOAD DUP1 SWAP2 SUB SWAP1 RETURN JUMPDEST PUSH2 0x1D0 PUSH1 0x4 DUP1 CALLDATASIZE SUB DUP2 ADD SWAP1 PUSH2 0x1CB SWAP2 SWAP1 PUSH2 0x1189 JUMP JUMPDEST PUSH2 0x55C JUMP JUMPDEST STOP JUMPDEST PUSH2 0x1DA PUSH2 0x687 JUMP JUMPDEST PUSH1 0x40 MLOAD PUSH2 0x1E7 SWAP2 SWAP1 PUSH2 0x1071 JUMP JUMPDEST PUSH1 0x40 MLOAD DUP1 SWAP2 SUB SWAP1 RETURN JUMPDEST PUSH2 0x20A PUSH1 0x4 DUP1 CALLDATASIZE SUB DUP2 ADD SWAP1 PUSH2 0x205 SWAP2 SWAP1 PUSH2 0x1189 JUMP JUMPDEST PUSH2 0x69D JUMP JUMPDEST STOP JUMPDEST PUSH2 0x214 PUSH2 0x9CD JUMP JUMPDEST PUSH1 0x40 MLOAD PUSH2 0x221 SWAP2 SWAP1 PUSH2 0x1071 JUMP JUMPDEST PUSH1 0x40 MLOAD DUP1 SWAP2 SUB SWAP1 RETURN JUMPDEST PUSH2 0x232 PUSH2 0x9D3 JUMP JUMPDEST PUSH1 0x40 MLOAD PUSH2 0x23F SWAP2 SWAP1 PUSH2 0x1071 JUMP JUMPDEST PUSH1 0x40 MLOAD DUP1 SWAP2 SUB SWAP1 RETURN JUMPDEST PUSH2 0x250 PUSH2 0xA16 JUMP JUMPDEST STOP JUMPDEST PUSH2 0x25A PUSH2 0xCB4 JUMP JUMPDEST PUSH1 0x40 MLOAD PUSH2 0x267 SWAP2 SWAP1 PUSH2 0x11CE JUMP JUMPDEST PUSH1 0x40 MLOAD DUP1 SWAP2 SUB SWAP1 RETURN JUMPDEST PUSH2 0x28A PUSH1 0x4 DUP1 CALLDATASIZE SUB DUP2 ADD SWAP1 PUSH2 0x285 SWAP2 SWAP1 PUSH2 0x1189 JUMP JUMPDEST PUSH2 0xD95 JUMP JUMPDEST STOP JUMPDEST PUSH2 0x2A6 PUSH1 0x4 DUP1 CALLDATASIZE SUB DUP2 ADD SWAP1 PUSH2 0x2A1 SWAP2 SWAP1 PUSH2 0x114B JUMP JUMPDEST PUSH2 0xEEF JUMP JUMPDEST STOP JUMPDEST PUSH2 0x2B0 PUSH2 0xFA7 JUMP JUMPDEST PUSH1 0x40 MLOAD PUSH2 0x2BD SWAP2 SWAP1 PUSH2 0x10C9 JUMP JUMPDEST PUSH1 0x40 MLOAD DUP1 SWAP2 SUB SWAP1 RETURN JUMPDEST PUSH2 0x2CE PUSH2 0xFCC JUMP JUMPDEST PUSH1 0x40 MLOAD PUSH2 0x2DB SWAP2 SWAP1 PUSH2 0x1071 JUMP JUMPDEST PUSH1 0x40 MLOAD DUP1 SWAP2 SUB SWAP1 RETURN JUMPDEST PUSH2 0x2EC PUSH2 0xFD2 JUMP JUMPDEST STOP JUMPDEST PUSH0 PUSH1 0x6 PUSH0 SWAP1 SLOAD SWAP1 PUSH2 0x100 EXP SWAP1 DIV PUSH20 0xFFFFFFFFFFFFFFFFFFFFFFFFFFFFFFFFFFFFFFFF AND PUSH20 0xFFFFFFFFFFFFFFFFFFFFFFFFFFFFFFFFFFFFFFFF AND PUSH4 0x70A08231 ADDRESS PUSH1 0x40 MLOAD DUP3 PUSH4 0xFFFFFFFF AND PUSH1 0xE0 SHL DUP2 MSTORE PUSH1 0x4 ADD PUSH2 0x349 SWAP2 SWAP1 PUSH2 0x10C9 JUMP JUMPDEST PUSH1 0x20 PUSH1 0x40 MLOAD DUP1 DUP4 SUB DUP2 DUP7 GAS STATICCALL ISZERO DUP1 ISZERO PUSH2 0x364 JUMPI RETURNDATASIZE PUSH0 DUP1 RETURNDATACOPY RETURNDATASIZE PUSH0 REVERT JUMPDEST POP POP POP POP PUSH1 0x40 MLOAD RETURNDATASIZE PUSH1 0x1F NOT PUSH1 0x1F DUP3 ADD AND DUP3 ADD DUP1 PUSH1 0x40 MSTORE POP DUP2 ADD SWAP1 PUSH2 0x388 SWAP2 SWAP1 PUSH2 0x11FB JUMP JUMPDEST SWAP1 POP SWAP1 JUMP JUMPDEST PUSH1 0x2 SLOAD DUP2 JUMP JUMPDEST PUSH0 PUSH1 0x7 PUSH0 SWAP1 SLOAD SWAP1 PUSH2 0x100 EXP SWAP1 DIV PUSH20 0xFFFFFFFFFFFFFFFFFFFFFFFFFFFFFFFFFFFFFFFF AND SWAP1 POP SWAP1 JUMP JUMPDEST PUSH0 PUSH1 0x1 PUSH0 CALLER PUSH20 0xFFFFFFFFFFFFFFFFFFFFFFFFFFFFFFFFFFFFFFFF AND PUSH20 0xFFFFFFFFFFFFFFFFFFFFFFFFFFFFFFFFFFFFFFFF AND DUP2 MSTORE PUSH1 0x20 ADD SWAP1 DUP2 MSTORE PUSH1 0x20 ADD PUSH0 KECCAK256 DUP2 SWAP1 SSTORE POP CALLER PUSH20 0xFFFFFFFFFFFFFFFFFFFFFFFFFFFFFFFFFFFFFFFF AND PUSH32 0x9CB6DB6786F389731093894570FD263C746CF1019D0D02AB9C4C35AD747F0E2C PUSH1 0x40 MLOAD PUSH1 0x40 MLOAD DUP1 SWAP2 SUB SWAP1 LOG2 JUMP JUMPDEST PUSH1 0x7 PUSH0 SWAP1 SLOAD SWAP1 PUSH2 0x100 EXP SWAP1 DIV PUSH20 0xFFFFFFFFFFFFFFFFFFFFFFFFFFFFFFFFFFFFFFFF AND PUSH20 0xFFFFFFFFFFFFFFFFFFFFFFFFFFFFFFFFFFFFFFFF AND CALLER PUSH20 0xFFFFFFFFFFFFFFFFFFFFFFFFFFFFFFFFFFFFFFFF AND EQ PUSH2 0x49A JUMPI PUSH0 DUP1 REVERT JUMPDEST PUSH1 0x5 SLOAD PUSH1 0x4 SLOAD PUSH2 0x4AA SWAP2 SWAP1 PUSH2 0x1253 JUMP JUMPDEST DUP2 GT ISZERO PUSH2 0x4B5 JUMPI PUSH0 DUP1 REVERT JUMPDEST PUSH1 0x6 PUSH0 SWAP1 SLOAD SWAP1 PUSH2 0x100 EXP SWAP1 DIV PUSH20 0xFFFFFFFFFFFFFFFFFFFFFFFFFFFFFFFFFFFFFFFF AND PUSH20 0xFFFFFFFFFFFFFFFFFFFFFFFFFFFFFFFFFFFFFFFF AND PUSH4 0xA9059CBB DUP4 DUP4 PUSH1 0x40 MLOAD DUP4 PUSH4 0xFFFFFFFF AND PUSH1 0xE0 SHL DUP2 MSTORE PUSH1 0x4 ADD PUSH2 0x511 SWAP3 SWAP2 SWAP1 PUSH2 0x12E1 JUMP JUMPDEST PUSH1 0x20 PUSH1 0x40 MLOAD DUP1 DUP4 SUB DUP2 PUSH0 DUP8 GAS CALL ISZERO DUP1 ISZERO PUSH2 0x52D JUMPI RETURNDATASIZE PUSH0 DUP1 RETURNDATACOPY RETURNDATASIZE PUSH0 REVERT JUMPDEST POP POP POP POP PUSH1 0x40 MLOAD RETURNDATASIZE PUSH1 0x1F NOT PUSH1 0x1F DUP3 ADD AND DUP3 ADD DUP1 PUSH1 0x40 MSTORE POP DUP2 ADD SWAP1 PUSH2 0x551 SWAP2 SWAP1 PUSH2 0x1332 JUMP JUMPDEST POP POP POP JUMP JUMPDEST PUSH1 0x3 SLOAD DUP2 JUMP JUMPDEST PUSH0 PUSH2 0x565 PUSH2 0x9D3 JUMP JUMPDEST SWAP1 POP DUP2 DUP2 LT ISZERO PUSH2 0x573 JUMPI DUP1 SWAP2 POP JUMPDEST PUSH1 0x7 PUSH0 SWAP1 SLOAD SWAP1 PUSH2 0x100 EXP SWAP1 DIV PUSH20 0xFFFFFFFFFFFFFFFFFFFFFFFFFFFFFFFFFFFFFFFF AND PUSH20 0xFFFFFFFFFFFFFFFFFFFFFFFFFFFFFFFFFFFFFFFF AND CALLER PUSH20 0xFFFFFFFFFFFFFFFFFFFFFFFFFFFFFFFFFFFFFFFF AND EQ PUSH2 0x5CB JUMPI PUSH0 DUP1 REVERT JUMPDEST DUP2 PUSH1 0x4 PUSH0 DUP3 DUP3 SLOAD PUSH2 0x5DC SWAP2 SWAP1 PUSH2 0x135D JUMP JUMPDEST SWAP3 POP POP DUP2 SWAP1 SSTORE POP DUP2 PUSH0 DUP1 CALLER PUSH20 0xFFFFFFFFFFFFFFFFFFFFFFFFFFFFFFFFFFFFFFFF AND PUSH20 0xFFFFFFFFFFFFFFFFFFFFFFFFFFFFFFFFFFFFFFFF AND DUP2 MSTORE PUSH1 0x20 ADD SWAP1 DUP2 MSTORE PUSH1 0x20 ADD PUSH0 KECCAK256 PUSH0 DUP3 DUP3 SLOAD PUSH2 0x62E SWAP2 SWAP1 PUSH2 0x1253 JUMP JUMPDEST SWAP3 POP POP DUP2 SWAP1 SSTORE POP CALLER PUSH20 0xFFFFFFFFFFFFFFFFFFFFFFFFFFFFFFFFFFFFFFFF AND PUSH32 0xC792F24E3F61F64FE1C3A705F0A25FDFE9A49C9C784D24C01D8EF2E17625A208 DUP4 PUSH1 0x40 MLOAD PUSH2 0x67B SWAP2 SWAP1 PUSH2 0x1071 JUMP JUMPDEST PUSH1 0x40 MLOAD DUP1 SWAP2 SUB SWAP1 LOG2 POP POP JUMP JUMPDEST PUSH0 PUSH1 0x5 SLOAD PUSH1 0x4 SLOAD PUSH2 0x698 SWAP2 SWAP1 PUSH2 0x1253 JUMP JUMPDEST SWAP1 POP SWAP1 JUMP JUMPDEST DUP1 PUSH0 DUP1 CALLER PUSH20 0xFFFFFFFFFFFFFFFFFFFFFFFFFFFFFFFFFFFFFFFF AND PUSH20 0xFFFFFFFFFFFFFFFFFFFFFFFFFFFFFFFFFFFFFFFF AND DUP2 MSTORE PUSH1 0x20 ADD SWAP1 DUP2 MSTORE PUSH1 0x20 ADD PUSH0 KECCAK256 SLOAD LT ISZERO PUSH2 0x71C JUMPI PUSH1 0x40 MLOAD PUSH32 0x8C379A000000000000000000000000000000000000000000000000000000000 DUP2 MSTORE PUSH1 0x4 ADD PUSH2 0x713 SWAP1 PUSH2 0x13EA JUMP JUMPDEST PUSH1 0x40 MLOAD DUP1 SWAP2 SUB SWAP1 REVERT JUMPDEST PUSH1 0x3C PUSH1 0x1 PUSH0 CALLER PUSH20 0xFFFFFFFFFFFFFFFFFFFFFFFFFFFFFFFFFFFFFFFF AND PUSH20 0xFFFFFFFFFFFFFFFFFFFFFFFFFFFFFFFFFFFFFFFF AND DUP2 MSTORE PUSH1 0x20 ADD SWAP1 DUP2 MSTORE PUSH1 0x20 ADD PUSH0 KECCAK256 SLOAD TIMESTAMP PUSH2 0x767 SWAP2 SWAP1 PUSH2 0x1253 JUMP JUMPDEST GT PUSH2 0x7A7 JUMPI PUSH1 0x40 MLOAD PUSH32 0x8C379A000000000000000000000000000000000000000000000000000000000 DUP2 MSTORE PUSH1 0x4 ADD PUSH2 0x79E SWAP1 PUSH2 0x1452 JUMP JUMPDEST PUSH1 0x40 MLOAD DUP1 SWAP2 SUB SWAP1 REVERT JUMPDEST PUSH2 0xE10 PUSH1 0x1 PUSH0 CALLER PUSH20 0xFFFFFFFFFFFFFFFFFFFFFFFFFFFFFFFFFFFFFFFF AND PUSH20 0xFFFFFFFFFFFFFFFFFFFFFFFFFFFFFFFFFFFFFFFF AND DUP2 MSTORE PUSH1 0x20 ADD SWAP1 DUP2 MSTORE PUSH1 0x20 ADD PUSH0 KECCAK256 SLOAD TIMESTAMP PUSH2 0x7F3 SWAP2 SWAP1 PUSH2 0x1253 JUMP JUMPDEST LT PUSH2 0x833 JUMPI PUSH1 0x40 MLOAD PUSH32 0x8C379A000000000000000000000000000000000000000000000000000000000 DUP2 MSTORE PUSH1 0x4 ADD PUSH2 0x82A SWAP1 PUSH2 0x1452 JUMP JUMPDEST PUSH1 0x40 MLOAD DUP1 SWAP2 SUB SWAP1 REVERT JUMPDEST PUSH0 PUSH1 0x1 PUSH0 CALLER PUSH20 0xFFFFFFFFFFFFFFFFFFFFFFFFFFFFFFFFFFFFFFFF AND PUSH20 0xFFFFFFFFFFFFFFFFFFFFFFFFFFFFFFFFFFFFFFFF AND DUP2 MSTORE PUSH1 0x20 ADD SWAP1 DUP2 MSTORE PUSH1 0x20 ADD PUSH0 KECCAK256 DUP2 SWAP1 SSTORE POP DUP1 PUSH1 0x3 PUSH0 DUP3 DUP3 SLOAD PUSH2 0x886 SWAP2 SWAP1 PUSH2 0x135D JUMP JUMPDEST SWAP3 POP POP DUP2 SWAP1 SSTORE POP DUP1 PUSH0 DUP1 CALLER PUSH20 0xFFFFFFFFFFFFFFFFFFFFFFFFFFFFFFFFFFFFFFFF AND PUSH20 0xFFFFFFFFFFFFFFFFFFFFFFFFFFFFFFFFFFFFFFFF AND DUP2 MSTORE PUSH1 0x20 ADD SWAP1 DUP2 MSTORE PUSH1 0x20 ADD PUSH0 KECCAK256 PUSH0 DUP3 DUP3 SLOAD PUSH2 0x8D8 SWAP2 SWAP1 PUSH2 0x1253 JUMP JUMPDEST SWAP3 POP POP DUP2 SWAP1 SSTORE POP PUSH1 0x6 PUSH0 SWAP1 SLOAD SWAP1 PUSH2 0x100 EXP SWAP1 DIV PUSH20 0xFFFFFFFFFFFFFFFFFFFFFFFFFFFFFFFFFFFFFFFF AND PUSH20 0xFFFFFFFFFFFFFFFFFFFFFFFFFFFFFFFFFFFFFFFF AND PUSH4 0xA9059CBB CALLER DUP4 PUSH1 0x40 MLOAD DUP4 PUSH4 0xFFFFFFFF AND PUSH1 0xE0 SHL DUP2 MSTORE PUSH1 0x4 ADD PUSH2 0x93B SWAP3 SWAP2 SWAP1 PUSH2 0x1470 JUMP JUMPDEST PUSH1 0x20 PUSH1 0x40 MLOAD DUP1 DUP4 SUB DUP2 PUSH0 DUP8 GAS CALL ISZERO DUP1 ISZERO PUSH2 0x957 JUMPI RETURNDATASIZE PUSH0 DUP1 RETURNDATACOPY RETURNDATASIZE PUSH0 REVERT JUMPDEST POP POP POP POP PUSH1 0x40 MLOAD RETURNDATASIZE PUSH1 0x1F NOT PUSH1 0x1F DUP3 ADD AND DUP3 ADD DUP1 PUSH1 0x40 MSTORE POP DUP2 ADD SWAP1 PUSH2 0x97B SWAP2 SWAP1 PUSH2 0x1332 JUMP JUMPDEST POP CALLER PUSH20 0xFFFFFFFFFFFFFFFFFFFFFFFFFFFFFFFFFFFFFFFF AND PUSH32 0x78F466825E45F385F5CC465E2D005D0EFEA6B925C38224D784B9D0FB79AA34EB DUP3 PUSH1 0x40 MLOAD PUSH2 0x9C2 SWAP2 SWAP1 PUSH2 0x1071 JUMP JUMPDEST PUSH1 0x40 MLOAD DUP1 SWAP2 SUB SWAP1 LOG2 POP JUMP JUMPDEST PUSH1 0x4 SLOAD DUP2 JUMP JUMPDEST PUSH0 DUP1 PUSH0 CALLER PUSH20 0xFFFFFFFFFFFFFFFFFFFFFFFFFFFFFFFFFFFFFFFF AND PUSH20 0xFFFFFFFFFFFFFFFFFFFFFFFFFFFFFFFFFFFFFFFF AND DUP2 MSTORE PUSH1 0x20 ADD SWAP1 DUP2 MSTORE PUSH1 0x20 ADD PUSH0 KECCAK256 SLOAD SWAP1 POP SWAP1 JUMP JUMPDEST PUSH1 0x3C PUSH1 0x1 PUSH0 CALLER PUSH20 0xFFFFFFFFFFFFFFFFFFFFFFFFFFFFFFFFFFFFFFFF AND PUSH20 0xFFFFFFFFFFFFFFFFFFFFFFFFFFFFFFFFFFFFFFFF AND DUP2 MSTORE PUSH1 0x20 ADD SWAP1 DUP2 MSTORE PUSH1 0x20 ADD PUSH0 KECCAK256 SLOAD TIMESTAMP PUSH2 0xA61 SWAP2 SWAP1 PUSH2 0x1253 JUMP JUMPDEST GT PUSH2 0xAA1 JUMPI PUSH1 0x40 MLOAD PUSH32 0x8C379A000000000000000000000000000000000000000000000000000000000 DUP2 MSTORE PUSH1 0x4 ADD PUSH2 0xA98 SWAP1 PUSH2 0x1452 JUMP JUMPDEST PUSH1 0x40 MLOAD DUP1 SWAP2 SUB SWAP1 REVERT JUMPDEST PUSH2 0xE10 PUSH1 0x1 PUSH0 CALLER PUSH20 0xFFFFFFFFFFFFFFFFFFFFFFFFFFFFFFFFFFFFFFFF AND PUSH20 0xFFFFFFFFFFFFFFFFFFFFFFFFFFFFFFFFFFFFFFFF AND DUP2 MSTORE PUSH1 0x20 ADD SWAP1 DUP2 MSTORE PUSH1 0x20 ADD PUSH0 KECCAK256 SLOAD TIMESTAMP PUSH2 0xAED SWAP2 SWAP1 PUSH2 0x1253 JUMP JUMPDEST LT PUSH2 0xB2D JUMPI PUSH1 0x40 MLOAD PUSH32 0x8C379A000000000000000000000000000000000000000000000000000000000 DUP2 MSTORE PUSH1 0x4 ADD PUSH2 0xB24 SWAP1 PUSH2 0x1452 JUMP JUMPDEST PUSH1 0x40 MLOAD DUP1 SWAP2 SUB SWAP1 REVERT JUMPDEST PUSH0 DUP1 PUSH0 CALLER PUSH20 0xFFFFFFFFFFFFFFFFFFFFFFFFFFFFFFFFFFFFFFFF AND PUSH20 0xFFFFFFFFFFFFFFFFFFFFFFFFFFFFFFFFFFFFFFFF AND DUP2 MSTORE PUSH1 0x20 ADD SWAP1 DUP2 MSTORE PUSH1 0x20 ADD PUSH0 KECCAK256 SLOAD SWAP1 POP DUP1 PUSH1 0x3 PUSH0 DUP3 DUP3 SLOAD PUSH2 0xB7E SWAP2 SWAP1 PUSH2 0x135D JUMP JUMPDEST SWAP3 POP POP DUP2 SWAP1 SSTORE POP PUSH0 DUP1 PUSH0 CALLER PUSH20 0xFFFFFFFFFFFFFFFFFFFFFFFFFFFFFFFFFFFFFFFF AND PUSH20 0xFFFFFFFFFFFFFFFFFFFFFFFFFFFFFFFFFFFFFFFF AND DUP2 MSTORE PUSH1 0x20 ADD SWAP1 DUP2 MSTORE PUSH1 0x20 ADD PUSH0 KECCAK256 DUP2 SWAP1 SSTORE POP PUSH1 0x6 PUSH0 SWAP1 SLOAD SWAP1 PUSH2 0x100 EXP SWAP1 DIV PUSH20 0xFFFFFFFFFFFFFFFFFFFFFFFFFFFFFFFFFFFFFFFF AND PUSH20 0xFFFFFFFFFFFFFFFFFFFFFFFFFFFFFFFFFFFFFFFF AND PUSH4 0xA9059CBB CALLER DUP4 PUSH1 0x40 MLOAD DUP4 PUSH4 0xFFFFFFFF AND PUSH1 0xE0 SHL DUP2 MSTORE PUSH1 0x4 ADD PUSH2 0xC22 SWAP3 SWAP2 SWAP1 PUSH2 0x1470 JUMP JUMPDEST PUSH1 0x20 PUSH1 0x40 MLOAD DUP1 DUP4 SUB DUP2 PUSH0 DUP8 GAS CALL ISZERO DUP1 ISZERO PUSH2 0xC3E JUMPI RETURNDATASIZE PUSH0 DUP1 RETURNDATACOPY RETURNDATASIZE PUSH0 REVERT JUMPDEST POP POP POP POP PUSH1 0x40 MLOAD RETURNDATASIZE PUSH1 0x1F NOT PUSH1 0x1F DUP3 ADD AND DUP3 ADD DUP1 PUSH1 0x40 MSTORE POP DUP2 ADD SWAP1 PUSH2 0xC62 SWAP2 SWAP1 PUSH2 0x1332 JUMP JUMPDEST POP CALLER PUSH20 0xFFFFFFFFFFFFFFFFFFFFFFFFFFFFFFFFFFFFFFFF AND PUSH32 0x78F466825E45F385F5CC465E2D005D0EFEA6B925C38224D784B9D0FB79AA34EB DUP3 PUSH1 0x40 MLOAD PUSH2 0xCA9 SWAP2 SWAP1 PUSH2 0x1071 JUMP JUMPDEST PUSH1 0x40 MLOAD DUP1 SWAP2 SUB SWAP1 LOG2 POP JUMP JUMPDEST PUSH0 DUP1 PUSH1 0x1 PUSH0 CALLER PUSH20 0xFFFFFFFFFFFFFFFFFFFFFFFFFFFFFFFFFFFFFFFF AND PUSH20 0xFFFFFFFFFFFFFFFFFFFFFFFFFFFFFFFFFFFFFFFF AND DUP2 MSTORE PUSH1 0x20 ADD SWAP1 DUP2 MSTORE PUSH1 0x20 ADD PUSH0 KECCAK256 SLOAD EQ DUP1 PUSH2 0xD49 JUMPI POP PUSH2 0xE10 PUSH1 0x1 PUSH0 CALLER PUSH20 0xFFFFFFFFFFFFFFFFFFFFFFFFFFFFFFFFFFFFFFFF AND PUSH20 0xFFFFFFFFFFFFFFFFFFFFFFFFFFFFFFFFFFFFFFFF AND DUP2 MSTORE PUSH1 0x20 ADD SWAP1 DUP2 MSTORE PUSH1 0x20 ADD PUSH0 KECCAK256 SLOAD TIMESTAMP PUSH2 0xD47 SWAP2 SWAP1 PUSH2 0x1253 JUMP JUMPDEST GT JUMPDEST PUSH2 0xD51 JUMPI PUSH0 DUP1 REVERT JUMPDEST PUSH0 DUP1 PUSH0 CALLER PUSH20 0xFFFFFFFFFFFFFFFFFFFFFFFFFFFFFFFFFFFFFFFF AND PUSH20 0xFFFFFFFFFFFFFFFFFFFFFFFFFFFFFFFFFFFFFFFF AND DUP2 MSTORE PUSH1 0x20 ADD SWAP1 DUP2 MSTORE PUSH1 0x20 ADD PUSH0 KECCAK256 SLOAD GT SWAP1 POP SWAP1 JUMP JUMPDEST PUSH1 0x6 PUSH0 SWAP1 SLOAD SWAP1 PUSH2 0x100 EXP SWAP1 DIV PUSH20 0xFFFFFFFFFFFFFFFFFFFFFFFFFFFFFFFFFFFFFFFF AND PUSH20 0xFFFFFFFFFFFFFFFFFFFFFFFFFFFFFFFFFFFFFFFF AND PUSH4 0x23B872DD CALLER ADDRESS DUP5 PUSH1 0x40 MLOAD DUP5 PUSH4 0xFFFFFFFF AND PUSH1 0xE0 SHL DUP2 MSTORE PUSH1 0x4 ADD PUSH2 0xDF3 SWAP4 SWAP3 SWAP2 SWAP1 PUSH2 0x1497 JUMP JUMPDEST PUSH1 0x20 PUSH1 0x40 MLOAD DUP1 DUP4 SUB DUP2 PUSH0 DUP8 GAS CALL ISZERO DUP1 ISZERO PUSH2 0xE0F JUMPI RETURNDATASIZE PUSH0 DUP1 RETURNDATACOPY RETURNDATASIZE PUSH0 REVERT JUMPDEST POP POP POP POP PUSH1 0x40 MLOAD RETURNDATASIZE PUSH1 0x1F NOT PUSH1 0x1F DUP3 ADD AND DUP3 ADD DUP1 PUSH1 0x40 MSTORE POP DUP2 ADD SWAP1 PUSH2 0xE33 SWAP2 SWAP1 PUSH2 0x1332 JUMP JUMPDEST POP DUP1 PUSH0 DUP1 CALLER PUSH20 0xFFFFFFFFFFFFFFFFFFFFFFFFFFFFFFFFFFFFFFFF AND PUSH20 0xFFFFFFFFFFFFFFFFFFFFFFFFFFFFFFFFFFFFFFFF AND DUP2 MSTORE PUSH1 0x20 ADD SWAP1 DUP2 MSTORE PUSH1 0x20 ADD PUSH0 KECCAK256 PUSH0 DUP3 DUP3 SLOAD PUSH2 0xE7F SWAP2 SWAP1 PUSH2 0x135D JUMP JUMPDEST SWAP3 POP POP DUP2 SWAP1 SSTORE POP DUP1 PUSH1 0x2 PUSH0 DUP3 DUP3 SLOAD PUSH2 0xE97 SWAP2 SWAP1 PUSH2 0x135D JUMP JUMPDEST SWAP3 POP POP DUP2 SWAP1 SSTORE POP CALLER PUSH20 0xFFFFFFFFFFFFFFFFFFFFFFFFFFFFFFFFFFFFFFFF AND PUSH32 0x1369CCCDA59AAD62A6D6FDFB2F5367CF8D111B3A1F10F319B436B146D9B241AD DUP3 PUSH1 0x40 MLOAD PUSH2 0xEE4 SWAP2 SWAP1 PUSH2 0x1071 JUMP JUMPDEST PUSH1 0x40 MLOAD DUP1 SWAP2 SUB SWAP1 LOG2 POP JUMP JUMPDEST PUSH1 0x7 PUSH0 SWAP1 SLOAD SWAP1 PUSH2 0x100 EXP SWAP1 DIV PUSH20 0xFFFFFFFFFFFFFFFFFFFFFFFFFFFFFFFFFFFFFFFF AND PUSH20 0xFFFFFFFFFFFFFFFFFFFFFFFFFFFFFFFFFFFFFFFF AND CALLER PUSH20 0xFFFFFFFFFFFFFFFFFFFFFFFFFFFFFFFFFFFFFFFF AND EQ PUSH2 0xF47 JUMPI PUSH0 DUP1 REVERT JUMPDEST DUP1 PUSH1 0x5 PUSH0 DUP3 DUP3 SLOAD PUSH2 0xF58 SWAP2 SWAP1 PUSH2 0x135D JUMP JUMPDEST SWAP3 POP POP DUP2 SWAP1 SSTORE POP DUP2 PUSH20 0xFFFFFFFFFFFFFFFFFFFFFFFFFFFFFFFFFFFFFFFF AND PUSH2 0x8FC DUP3 SWAP1 DUP2 ISZERO MUL SWAP1 PUSH1 0x40 MLOAD PUSH0 PUSH1 0x40 MLOAD DUP1 DUP4 SUB DUP2 DUP6 DUP9 DUP9 CALL SWAP4 POP POP POP POP ISZERO DUP1 ISZERO PUSH2 0xFA2 JUMPI RETURNDATASIZE PUSH0 DUP1 RETURNDATACOPY RETURNDATASIZE PUSH0 REVERT JUMPDEST POP POP POP JUMP JUMPDEST PUSH1 0x6 PUSH0 SWAP1 SLOAD SWAP1 PUSH2 0x100 EXP SWAP1 DIV PUSH20 0xFFFFFFFFFFFFFFFFFFFFFFFFFFFFFFFFFFFFFFFF AND DUP2 JUMP JUMPDEST PUSH1 0x5 SLOAD DUP2 JUMP JUMPDEST TIMESTAMP PUSH1 0x1 PUSH0 CALLER PUSH20 0xFFFFFFFFFFFFFFFFFFFFFFFFFFFFFFFFFFFFFFFF AND PUSH20 0xFFFFFFFFFFFFFFFFFFFFFFFFFFFFFFFFFFFFFFFF AND DUP2 MSTORE PUSH1 0x20 ADD SWAP1 DUP2 MSTORE PUSH1 0x20 ADD PUSH0 KECCAK256 DUP2 SWAP1 SSTORE POP CALLER PUSH20 0xFFFFFFFFFFFFFFFFFFFFFFFFFFFFFFFFFFFFFFFF AND PUSH32 0x8F15C54FE559A7F3D1A2948CAFF34F60960EF5106F3C57BBBBACE6279522C66D PUSH1 0x40 MLOAD PUSH1 0x40 MLOAD DUP1 SWAP2 SUB SWAP1 LOG2 JUMP JUMPDEST PUSH0 DUP2 SWAP1 POP SWAP2 SWAP1 POP JUMP JUMPDEST PUSH2 0x106B DUP2 PUSH2 0x1059 JUMP JUMPDEST DUP3 MSTORE POP POP JUMP JUMPDEST PUSH0 PUSH1 0x20 DUP3 ADD SWAP1 POP PUSH2 0x1084 PUSH0 DUP4 ADD DUP5 PUSH2 0x1062 JUMP JUMPDEST SWAP3 SWAP2 POP POP JUMP JUMPDEST PUSH0 PUSH20 0xFFFFFFFFFFFFFFFFFFFFFFFFFFFFFFFFFFFFFFFF DUP3 AND SWAP1 POP SWAP2 SWAP1 POP JUMP JUMPDEST PUSH0 PUSH2 0x10B3 DUP3 PUSH2 0x108A JUMP JUMPDEST SWAP1 POP SWAP2 SWAP1 POP JUMP JUMPDEST PUSH2 0x10C3 DUP2 PUSH2 0x10A9 JUMP JUMPDEST DUP3 MSTORE POP POP JUMP JUMPDEST PUSH0 PUSH1 0x20 DUP3 ADD SWAP1 POP PUSH2 0x10DC PUSH0 DUP4 ADD DUP5 PUSH2 0x10BA JUMP JUMPDEST SWAP3 SWAP2 POP POP JUMP JUMPDEST PUSH0 DUP1 REVERT JUMPDEST PUSH0 PUSH2 0x10F0 DUP3 PUSH2 0x108A JUMP JUMPDEST SWAP1 POP SWAP2 SWAP1 POP JUMP JUMPDEST PUSH2 0x1100 DUP2 PUSH2 0x10E6 JUMP JUMPDEST DUP2 EQ PUSH2 0x110A JUMPI PUSH0 DUP1 REVERT JUMPDEST POP JUMP JUMPDEST PUSH0 DUP2 CALLDATALOAD SWAP1 POP PUSH2 0x111B DUP2 PUSH2 0x10F7 JUMP JUMPDEST SWAP3 SWAP2 POP POP JUMP JUMPDEST PUSH2 0x112A DUP2 PUSH2 0x1059 JUMP JUMPDEST DUP2 EQ PUSH2 0x1134 JUMPI PUSH0 DUP1 REVERT JUMPDEST POP JUMP JUMPDEST PUSH0 DUP2 CALLDATALOAD SWAP1 POP PUSH2 0x1145 DUP2 PUSH2 0x1121 JUMP JUMPDEST SWAP3 SWAP2 POP POP JUMP JUMPDEST PUSH0 DUP1 PUSH1 0x40 DUP4 DUP6 SUB SLT ISZERO PUSH2 0x1161 JUMPI PUSH2 0x1160 PUSH2 0x10E2 JUMP JUMPDEST JUMPDEST PUSH0 PUSH2 0x116E DUP6 DUP3 DUP7 ADD PUSH2 0x110D JUMP JUMPDEST SWAP3 POP POP PUSH1 0x20 PUSH2 0x117F DUP6 DUP3 DUP7 ADD PUSH2 0x1137 JUMP JUMPDEST SWAP2 POP POP SWAP3 POP SWAP3 SWAP1 POP JUMP JUMPDEST PUSH0 PUSH1 0x20 DUP3 DUP5 SUB SLT ISZERO PUSH2 0x119E JUMPI PUSH2 0x119D PUSH2 0x10E2 JUMP JUMPDEST JUMPDEST PUSH0 PUSH2 0x11AB DUP5 DUP3 DUP6 ADD PUSH2 0x1137 JUMP JUMPDEST SWAP2 POP POP SWAP3 SWAP2 POP POP JUMP JUMPDEST PUSH0 DUP2 ISZERO ISZERO SWAP1 POP SWAP2 SWAP1 POP JUMP JUMPDEST PUSH2 0x11C8 DUP2 PUSH2 0x11B4 JUMP JUMPDEST DUP3 MSTORE POP POP JUMP JUMPDEST PUSH0 PUSH1 0x20 DUP3 ADD SWAP1 POP PUSH2 0x11E1 PUSH0 DUP4 ADD DUP5 PUSH2 0x11BF JUMP JUMPDEST SWAP3 SWAP2 POP POP JUMP JUMPDEST PUSH0 DUP2 MLOAD SWAP1 POP PUSH2 0x11F5 DUP2 PUSH2 0x1121 JUMP JUMPDEST SWAP3 SWAP2 POP POP JUMP JUMPDEST PUSH0 PUSH1 0x20 DUP3 DUP5 SUB SLT ISZERO PUSH2 0x1210 JUMPI PUSH2 0x120F PUSH2 0x10E2 JUMP JUMPDEST JUMPDEST PUSH0 PUSH2 0x121D DUP5 DUP3 DUP6 ADD PUSH2 0x11E7 JUMP JUMPDEST SWAP2 POP POP SWAP3 SWAP2 POP POP JUMP JUMPDEST PUSH32 0x4E487B7100000000000000000000000000000000000000000000000000000000 PUSH0 MSTORE PUSH1 0x11 PUSH1 0x4 MSTORE PUSH1 0x24 PUSH0 REVERT JUMPDEST PUSH0 PUSH2 0x125D DUP3 PUSH2 0x1059 JUMP JUMPDEST SWAP2 POP PUSH2 0x1268 DUP4 PUSH2 0x1059 JUMP JUMPDEST SWAP3 POP DUP3 DUP3 SUB SWAP1 POP DUP2 DUP2 GT ISZERO PUSH2 0x1280 JUMPI PUSH2 0x127F PUSH2 0x1226 JUMP JUMPDEST JUMPDEST SWAP3 SWAP2 POP POP JUMP JUMPDEST PUSH0 DUP2 SWAP1 POP SWAP2 SWAP1 POP JUMP JUMPDEST PUSH0 PUSH2 0x12A9 PUSH2 0x12A4 PUSH2 0x129F DUP5 PUSH2 0x108A JUMP JUMPDEST PUSH2 0x1286 JUMP JUMPDEST PUSH2 0x108A JUMP JUMPDEST SWAP1 POP SWAP2 SWAP1 POP JUMP JUMPDEST PUSH0 PUSH2 0x12BA DUP3 PUSH2 0x128F JUMP JUMPDEST SWAP1 POP SWAP2 SWAP1 POP JUMP JUMPDEST PUSH0 PUSH2 0x12CB DUP3 PUSH2 0x12B0 JUMP JUMPDEST SWAP1 POP SWAP2 SWAP1 POP JUMP JUMPDEST PUSH2 0x12DB DUP2 PUSH2 0x12C1 JUMP JUMPDEST DUP3 MSTORE POP POP JUMP JUMPDEST PUSH0 PUSH1 0x40 DUP3 ADD SWAP1 POP PUSH2 0x12F4 PUSH0 DUP4 ADD DUP6 PUSH2 0x12D2 JUMP JUMPDEST PUSH2 0x1301 PUSH1 0x20 DUP4 ADD DUP5 PUSH2 0x1062 JUMP JUMPDEST SWAP4 SWAP3 POP POP POP JUMP JUMPDEST PUSH2 0x1311 DUP2 PUSH2 0x11B4 JUMP JUMPDEST DUP2 EQ PUSH2 0x131B JUMPI PUSH0 DUP1 REVERT JUMPDEST POP JUMP JUMPDEST PUSH0 DUP2 MLOAD SWAP1 POP PUSH2 0x132C DUP2 PUSH2 0x1308 JUMP JUMPDEST SWAP3 SWAP2 POP POP JUMP JUMPDEST PUSH0 PUSH1 0x20 DUP3 DUP5 SUB SLT ISZERO PUSH2 0x1347 JUMPI PUSH2 0x1346 PUSH2 0x10E2 JUMP JUMPDEST JUMPDEST PUSH0 PUSH2 0x1354 DUP5 DUP3 DUP6 ADD PUSH2 0x131E JUMP JUMPDEST SWAP2 POP POP SWAP3 SWAP2 POP POP JUMP JUMPDEST PUSH0 PUSH2 0x1367 DUP3 PUSH2 0x1059 JUMP JUMPDEST SWAP2 POP PUSH2 0x1372 DUP4 PUSH2 0x1059 JUMP JUMPDEST SWAP3 POP DUP3 DUP3 ADD SWAP1 POP DUP1 DUP3 GT ISZERO PUSH2 0x138A JUMPI PUSH2 0x1389 PUSH2 0x1226 JUMP JUMPDEST JUMPDEST SWAP3 SWAP2 POP POP JUMP JUMPDEST PUSH0 DUP3 DUP3 MSTORE PUSH1 0x20 DUP3 ADD SWAP1 POP SWAP3 SWAP2 POP POP JUMP JUMPDEST PUSH32 0x496E73756666696369656E742062616C616E6365000000000000000000000000 PUSH0 DUP3 ADD MSTORE POP JUMP JUMPDEST PUSH0 PUSH2 0x13D4 PUSH1 0x14 DUP4 PUSH2 0x1390 JUMP JUMPDEST SWAP2 POP PUSH2 0x13DF DUP3 PUSH2 0x13A0 JUMP JUMPDEST PUSH1 0x20 DUP3 ADD SWAP1 POP SWAP2 SWAP1 POP JUMP JUMPDEST PUSH0 PUSH1 0x20 DUP3 ADD SWAP1 POP DUP2 DUP2 SUB PUSH0 DUP4 ADD MSTORE PUSH2 0x1401 DUP2 PUSH2 0x13C8 JUMP JUMPDEST SWAP1 POP SWAP2 SWAP1 POP JUMP JUMPDEST PUSH32 0x5769746864726177616C206C6F636B6564000000000000000000000000000000 PUSH0 DUP3 ADD MSTORE POP JUMP JUMPDEST PUSH0 PUSH2 0x143C PUSH1 0x11 DUP4 PUSH2 0x1390 JUMP JUMPDEST SWAP2 POP PUSH2 0x1447 DUP3 PUSH2 0x1408 JUMP JUMPDEST PUSH1 0x20 DUP3 ADD SWAP1 POP SWAP2 SWAP1 POP JUMP JUMPDEST PUSH0 PUSH1 0x20 DUP3 ADD SWAP1 POP DUP2 DUP2 SUB PUSH0 DUP4 ADD MSTORE PUSH2 0x1469 DUP2 PUSH2 0x1430 JUMP JUMPDEST SWAP1 POP SWAP2 SWAP1 POP JUMP JUMPDEST PUSH0 PUSH1 0x40 DUP3 ADD SWAP1 POP PUSH2 0x1483 PUSH0 DUP4 ADD DUP6 PUSH2 0x10BA JUMP JUMPDEST PUSH2 0x1490 PUSH1 0x20 DUP4 ADD DUP5 PUSH2 0x1062 JUMP JUMPDEST SWAP4 SWAP3 POP POP POP JUMP JUMPDEST PUSH0 PUSH1 0x60 DUP3 ADD SWAP1 POP PUSH2 0x14AA PUSH0 DUP4 ADD DUP7 PUSH2 0x10BA JUMP JUMPDEST PUSH2 0x14B7 PUSH1 0x20 DUP4 ADD DUP6 PUSH2 0x10BA JUMP JUMPDEST PUSH2 0x14C4 PUSH1 0x40 DUP4 ADD DUP5 PUSH2 0x1062 JUMP JUMPDEST SWAP5 SWAP4 POP POP POP POP JUMP INVALID LOG2 PUSH5 0x6970667358 0x22 SLT KECCAK256 0x21 PUSH13 0x751915690C46DA1852BC575F1E 0xBD 0xB4 CREATE2 CALLDATACOPY BLOCKHASH 0xDF SWAP5 0xE1 0xD7 PUSH1 0x12 MCOPY 0xBB PUSH30 0xD710364736F6C634300081A003300000000000000000000000000000000 "
				},
				"gasEstimates": {
					"creation": {
						"codeDepositCost": "1075600",
						"executionCost": "infinite",
						"totalCost": "infinite"
					},
					"external": {
						"admin_balance()": "infinite",
						"admin_withdraw(address,uint256)": "infinite",
						"admin_withdraw_usdc(address,uint256)": "infinite",
						"bill_user(uint256)": "infinite",
						"contract_balance()": "infinite",
						"contract_owner()": "2583",
						"token()": "2574",
						"total_admin_withdraw()": "2513",
						"total_bill()": "2448",
						"total_deposit()": "2471",
						"total_withdraw()": "2470",
						"user_balance()": "2564",
						"user_deposit_usdc(uint256)": "infinite",
						"user_has_token()": "infinite",
						"user_lock()": "23613",
						"user_lock_cancel()": "6493",
						"user_withdraw(uint256)": "infinite",
						"withdraw_all()": "infinite"
					}
				},
				"methodIdentifiers": {
					"admin_balance()": "a0e57a31",
					"admin_withdraw(address,uint256)": "fa863d30",
					"admin_withdraw_usdc(address,uint256)": "6f7bda33",
					"bill_user(uint256)": "9ff8ba98",
					"contract_balance()": "057440d3",
					"contract_owner()": "384f58eb",
					"token()": "fc0c546a",
					"total_admin_withdraw()": "fecde132",
					"total_bill()": "c3f79c9f",
					"total_deposit()": "2ace5a2e",
					"total_withdraw()": "9a8318f4",
					"user_balance()": "d3da43b3",
					"user_deposit_usdc(uint256)": "f245ee7d",
					"user_has_token()": "e5fa5472",
					"user_lock()": "ff781046",
					"user_lock_cancel()": "3fec9699",
					"user_withdraw(uint256)": "a984d411",
					"withdraw_all()": "dd473d2b"
				}
			},
			"storageLayout": {
				"storage": [
					{
						"astId": 84,
						"contract": "contracts/Tok2tok.sol:Tok2tok",
						"label": "deposit",
						"offset": 0,
						"slot": "0",
						"type": "t_mapping(t_address,t_uint256)"
					},
					{
						"astId": 88,
						"contract": "contracts/Tok2tok.sol:Tok2tok",
						"label": "lock",
						"offset": 0,
						"slot": "1",
						"type": "t_mapping(t_address,t_uint256)"
					},
					{
						"astId": 90,
						"contract": "contracts/Tok2tok.sol:Tok2tok",
						"label": "total_deposit",
						"offset": 0,
						"slot": "2",
						"type": "t_uint256"
					},
					{
						"astId": 92,
						"contract": "contracts/Tok2tok.sol:Tok2tok",
						"label": "total_withdraw",
						"offset": 0,
						"slot": "3",
						"type": "t_uint256"
					},
					{
						"astId": 94,
						"contract": "contracts/Tok2tok.sol:Tok2tok",
						"label": "total_bill",
						"offset": 0,
						"slot": "4",
						"type": "t_uint256"
					},
					{
						"astId": 96,
						"contract": "contracts/Tok2tok.sol:Tok2tok",
						"label": "total_admin_withdraw",
						"offset": 0,
						"slot": "5",
						"type": "t_uint256"
					},
					{
						"astId": 98,
						"contract": "contracts/Tok2tok.sol:Tok2tok",
						"label": "token",
						"offset": 0,
						"slot": "6",
						"type": "t_address"
					},
					{
						"astId": 100,
						"contract": "contracts/Tok2tok.sol:Tok2tok",
						"label": "owner",
						"offset": 0,
						"slot": "7",
						"type": "t_address_payable"
					}
				],
				"types": {
					"t_address": {
						"encoding": "inplace",
						"label": "address",
						"numberOfBytes": "20"
					},
					"t_address_payable": {
						"encoding": "inplace",
						"label": "address payable",
						"numberOfBytes": "20"
					},
					"t_mapping(t_address,t_uint256)": {
						"encoding": "mapping",
						"key": "t_address",
						"label": "mapping(address => uint256)",
						"numberOfBytes": "32",
						"value": "t_uint256"
					},
					"t_uint256": {
						"encoding": "inplace",
						"label": "uint256",
						"numberOfBytes": "32"
					}
				}
			},
			"userdoc": {
				"kind": "user",
				"methods": {},
				"version": 1
			}
		}
	}
}